:020000040800F2
:1080000000800120C190010873E4010873E40108B5
:1080100073E4010873E4010873E401080000000040
:108020000000000000000000000000007966010868
:1080300073E40108000000001F6701087F67010862
:1080400073E4010873E4010873E4010873E40108B0
:1080500073E4010873E4010873E4010873E40108A0
:1080600073E4010873E4010873E4010873E4010890
:1080700073E4010873E4010873E4010873E4010880
:1080800073E4010873E4010873E4010800000000D0
:1080900000000000000000000000000073E4010880
:1080A00073E4010873E4010873E4010873E4010850
:1080B00073E4010873E4010873E4010873E4010840
:1080C00073E4010873E4010873E4010873E4010830
:1080D00073E4010873E4010873E401080000000080
:1080E00073E4010873E4010873E401080000000070
:1080F00000000000000000000000000073E4010820
:108100000000000073E4010873E4010873E401084F
:10811000000000000000000000000000000000005F
:1081200073E4010873E4010873E4010873E40108CF
:1081300073E40108000000000000000000000000DF
:1081400000000000000000000000000073E40108CF
:1081500073E4010873E4010873E4010873E401089F
:1081600073E4010873E4010800000000000000004F
:1081700000000000000000000000000000000000FF
:108180000000000073E4010800000000000000008F
:1081900073E401080000000000000000000000007F
:1081A00001F0FF01102A2BDB10F0070F08D010F8A8
:1081B000013B013A8B422DD010F0070F42B3F6D1AC
:1081C000F0B441EA012141EA014122F007047FF0C5
:1081D00000070023F0E80256083C85EA010586EA1C
:1081E000010685FA47F5A3FA87F586FA47F6A5FA58
:1081F00087F68EB9EED1F0BC01F0FF0102F0070264
:1082000032B110F8013B013A83EA010313B1F8D10E
:108210000020704701387047002D06BF35460338EF
:10822000073815F0010F07D1013015F4807F02BF28
:10823000013015F4C03F0130F0BC0138704700BF79
:108240002DE9F04F0378202B83B00446894603D1F3
:1082500014F8013F202BFBD02B2B08BF013494F8DE
:1082600000C0BCF12D0F67D09FED517B8DED007BE1
:10827000BCF1300F4DD0BCF1000F00F0968000260D
:1082800000274FF0000ADFF838B14FF000081CE07B
:1082900012F0A4FB06460F46284612F035FB324684
:1082A0003B4612F0E5F9524606460F465B46DDE9CD
:1082B0000001B8F1000F03D012F0BAFCCDE90001C3
:1082C00014F801CFBCF1000F14D0ACF13005092D2A
:1082D00052465B4630463946DAD9B8F1000F33D101
:1082E000BCF12E0F30D114F801CF4FF00108BCF1D2
:1082F000000FEAD130463946DDE9002312F06EFB6B
:1083000006460F46C9F800403046394603B0BDE87E
:10831000F08F637843F02003782BB0D110224946C8
:10832000204615F02DF912F0EFFADDE9002312F0E6
:1083300055FB06460F46E7E79FED1F7B94F801C00B
:108340008DED007B013493E70CF0DF0CBCF1450FA1
:10835000257822D130463946DDE9002312F03EFB74
:1083600006460F46002DCDD04946601C0A2215F066
:1083700007F913490246002012F090FE02460B4610
:108380003046394612F02AFB06460F46304639463B
:1083900003B0BDE8F08F14F8015F202DFBD00DB9BC
:1083A0002578D7E70026074FAEE700260027A1E78C
:1083B000000000000000F03F000000000000F0BFDF
:1083C000000024400000F87F2DE9F04F002383B027
:1083D0001446002206460F4612F072FD28B12D21E8
:1083E00007F1004304F8011B1F460022002330461A
:1083F000394612F05BFD30B13022002322706370E9
:1084000003B0BDE8F08F3046394613F031FB12F06F
:1084100095FD46A3D3E90023054601903946304631
:1084200012F062FD40B143A3D3E900233046394640
:1084300012F046FD00285BD1019A3B49002012F062
:108440002DFE02460B463046394612F0F1FB4FF046
:10845000010A06460F46DFF8D09000254FF00008CD
:108460003946304612F06AFD00F13003237083462E
:1084700012F04AFA02460B463046394612F0F6F838
:108480004B46424612F0AAFABAF1010A04BF2E2363
:10849000637006460F4614BF0134023425B9BBF1A0
:1084A000000F18BF0125DBE70135102DD8DDBAF12B
:1084B000000FD5DC14F8013C302B04F1FF3403D15C
:1084C00014F8013D302BFBD001982E2B08BF04F18E
:1084D000FF34012807D06523A11C637003B0BDE8F9
:1084E000F04F0AF057BC0023637003B0BDE8F08F73
:1084F000002D11DD2A4600200B4912F0CFFD0B465E
:1085000002463946304612F093FB012305F1010A79
:1085100006460F4601939EE74FF0010ACDF804A0EE
:1085200099E700BFAFF30080000024408DEDB5A0B7
:10853000F7C6B03E50EFE2D6E41A4B44000000000C
:1085400070B54FF0FF3005F063F904466FF07F40DF
:1085500005F05EF90646204612F0C6F900220C4BE3
:1085600012F03CFA044630460D4612F0BDF906A35F
:10857000D3E9002312F05CFB02460B462046294655
:1085800012F076F870BD00BF0000E0DFFFFF6F4320
:108590000000F03D0000000008B50CF091F812F06A
:1085A000B3F900220C4B12F019FA09A3D3E9002306
:1085B00012F014FA0022094B12F058F80022084B6E
:1085C00012F036FB12F0BAFC08BD00BFAFF300801A
:1085D0000000000000C8A9400000503F00007940A2
:1085E000008033400000000008B50BF075FEDFEDA1
:1085F0000C7A07EE100A67EE277A17EE900A12F04F
:1086000095F905A3D3E9002312F012FB12F096FCB2
:1086100008BD00BFAFF30080EA2E4454FB2119408F
:108620000000B4430000000008B50BF06BFEDFED66
:108630000C7A07EE100A67EE277A17EE900A12F00E
:1086400075F905A3D3E9002312F0F2FA12F076FCD3
:1086500008BD00BFAFF30080EA2E4454FB2119404F
:108660000000B44300000000494A21F00043934257
:108670002DE9704304460D466CDC464A93420E4693
:1086800037DC3FA3D3E9002311F0F2FF0022424B75
:1086900012F034FC00286DD122462B462046294694
:1086A00012F09CF9804689462046294612F0E2FEE7
:1086B0000022394B04460D464046494611F0D8FF8A
:1086C00013F078FC0022344B11F0D2FF02460B4627
:1086D0004046494612F0ACFA22462B4611F0C8FF3C
:1086E00000F0EAFA002E39DC01F100431946BDE83A
:1086F00070832A4A934233DCB3F1804FCCDD12F011
:10870000B9FE2246804689462B462046294612F06D
:1087100065F90022204B11F0ABFF13F04BFC4246F1
:108720004B4611F0A5FF02460B4600201A4912F0F5
:108730007FFA424604460D464B464046494611F0F4
:1087400097FF02460B462046294611F091FF01F0A3
:108750003FFEC7E702460B4611F08AFFBDE8708373
:1087600012F088FE01F034FE07A3D3E9002311F0D4
:108770007FFFB7E720462946BDE87083AFF300804E
:108780009C7500883CE4377EEF39FAFE422EE63FC6
:10879000FFFFEF7FFFFF2F3E0000F03F0000B041E2
:1087A0002DE9F84FBE4B21F000469E4204460D468F
:1087B0008A4616DDBB4B9E420BDC08D0BAF1000F97
:1087C00040F3C2809AA1D1E90001BDE8F88F0028EA
:1087D000F4D022462B462046294611F049FFBDE839
:1087E000F88FB14B9E4200F3BA80A3F1DE739E4234
:1087F00040F39B804FF0FF3B22462B462046294604
:1088000012F0ECF802460B468046894612F0E6F874
:1088100089A3D3E9002306460F4612F0DFF888A3A8
:10882000D3E9002311F024FF32463B4612F0D6F87C
:1088300085A3D3E9002311F01BFF32463B4612F01B
:10884000CDF883A3D3E9002311F012FF32463B4653
:1088500012F0C4F880A3D3E9002311F009FF3246D7
:108860003B4612F0BBF87EA3D3E9002311F000FFD2
:1088700042464B4612F0B2F87BA3D3E90023804670
:1088800089463046394612F0A9F879A3D3E9002386
:1088900011F0ECFE32463B4612F0A0F876A3D3E985
:1088A000002311F0E3FE32463B4612F097F874A322
:1088B000D3E9002311F0DAFE32463B4612F08EF87F
:1088C00071A3D3E9002311F0D1FE32463B4612F0EA
:1088D00085F802460B464046494611F0C9FE22463D
:1088E0002B4612F07BF8BBF1FF3F02460B4630D01F
:1088F0006E4B6F4E4FEACB0B5B44D3E9002311F074
:10890000B5FE22462B4611F0B1FEB34402460B469B
:10891000DBE9000111F0AAFEBAF1000FBFF65FAF6C
:1089200001F100431946BDE8F88F59A3D3E90023AC
:1089300011F09EFE00225F4B12F0E0FA00283FF497
:1089400059AF204629464AE753A1D1E90001BDE8C5
:10895000F88F2046294611F089FEBDE8F88F12F005
:1089600089FD554B9E4204460D461FDCA3F550235E
:108970009E4244DC02460B4611F07AFE00224D4B2B
:1089800011F074FE002206460F464FF08043204649
:10899000294611F06DFE02460B463046394612F06C
:1089A00047F94FF0000B04460D4625E7434B9E4226
:1089B0001ADC0022424B11F059FE002206460F46F7
:1089C0003F4B2046294612F009F80022394B11F09E
:1089D0004FFE02460B463046394612F029F94FF059
:1089E000020B04460D4607E702460B4600203549B8
:1089F00012F01EF94FF0030B04460D46FCE6002270
:108A00002C4B11F033FE002206460F46294B204620
:108A1000294611F02DFE02460B463046394612F02B
:108A200007F94FF0010B04460D46E5E6AFF3008071
:108A3000182D4454FB21F93F11DA22E33AAD903F5F
:108A4000EB0D76244B7BA93F513DD0A0660DB13F85
:108A50006E204CC5CD45B73FFF8300922449C23FED
:108A60000D5555555555D53F2F6C6A2C44B4A2BFB2
:108A70009AFDDE522DDEAD3F6D9A74AFF2B0B33F7A
:108A8000711623FEC671BC3FC4EB98999999C93FF2
:108A90009C7500883CE4377E182D4454FB21F9BFB7
:108AA000FFFF0F440000F07FFFFFDB3F60F4010891
:108AB00040F401080000F03FFFFFF23FFF7F03405A
:108AC0000000F83F0000F0BFF8B5C1F30A57A7F265
:108AD000FF35132D02460B460C46064631DC002DB1
:108AE0001DDB354F2F4107EA010C5CEA000C2DD04D
:108AF0002FA3D3E9002311F0BBFD0022002312F0C5
:108B0000FDF948B1002C04DD4FF4801343FA05F55C
:108B10002C4424EA0704002621463046F8BD24A34D
:108B2000D3E9002311F0A4FD0022002312F0E6F99E
:108B30000028F1D0002C35DB26432FD000261F4C17
:108B4000EAE7332D05DDB5F5806F24D010461946D0
:108B5000F8BDA7F213474FF0FF3C2CFA07F7074286
:108B6000F4D013A3D3E9002311F082FD00220023E7
:108B700012F0C4F90028CFD0002C09DD142D0FD03D
:108B80000123C5F1340503FA05F5AE1928BFE41831
:108B900026EA0706C0E711F06BFDF8BD3446BBE7D7
:108BA0000134F5E700264FF00044B5E7AFF300804D
:108BB0009C7500883CE4377EFFFF0F000000F03F0B
:108BC000F8B5C1F30A57A7F2FF35132D02460B463D
:108BD0000C4606462FDC002D1DDB354F2F4107EAE2
:108BE000010C5CEA000C2BD02FA3D3E9002311F079
:108BF0003FFD0022002312F081F948B1002C04DA75
:108C00004FF4801343FA05F52C4424EA07040026A8
:108C100021463046F8BD24A3D3E9002311F028FDF6
:108C20000022002312F06AF90028F1D0002C25DB85
:108C300000263446ECE7332D05DDB5F5806F1AD0FC
:108C400010461946F8BDA7F213474FF0FF3C2CFA27
:108C500007F70742F4D014A3D3E9002311F008FD6D
:108C60000022002312F04AF90028D1D0002C0EDB9C
:108C700026EA0706CCE711F0FBFCF8BD24F0004320
:108C80000C4A1E43002E18BF14460026C0E7142DC0
:108C900008D00123C5F1340503FA05F5AE1928BF44
:108CA000E418E5E70134E3E79C7500883CE4377E8F
:108CB000FFFF0F000000F0BF2DE9F04FD64B9942A7
:108CC00087B08046894664DDD44B99420E4659DC14
:108CD000D34B994240F353819FEDBB7B8DED047BD9
:108CE0004FEA215A0446AAF2FF3ACE4BC6F31306C6
:108CF0009E4246F07F5500F3388145F440152046EA
:108D000029460022C84B11F0B1FC002204460D4652
:108D1000C64B11F063FE22462B4611F05FFEA046C3
:108D2000CDE90201A946CDE90001002E5CD1002267
:108D300000232046294612F0B9F8002800F0868169
:108D4000BAF1000F00F09F81504611F0DDFDA0A3A5
:108D5000D3E9002306460F4611F040FEDDE9042367
:108D600011F086FC9CA3D3E9002304460D4630464F
:108D7000394611F033FE02460B462046294611F0D3
:108D800077FC03E002460B4611F072FC07B0BDE829
:108D9000F08FA74B21F000449C420A460FDD0022D1
:108DA000A44B12F083F8002800F08A8000220023F0
:108DB0000020A14911F03CFF07B0BDE8F08F9F4BA8
:108DC0009C4240F38A809E4B1A449A4240F2D780DC
:108DD0000022964B11F002FE42464B4611F0FEFD7A
:108DE000CDE900014FF0000A00224FF080434046D9
:108DF000494611F03DFC02460B464046494611F0FB
:108E000017FF02460B4606460F4611F0E7FD74A316
:108E1000D3E9002304460D4611F0E0FD72A3D3E927
:108E2000002311F025FC22462B4611F0D7FD70A33C
:108E3000D3E9002311F01CFC22462B4611F0CEFD95
:108E40006DA3D3E9002311F013FC22462B4611F049
:108E5000C5FD6BA3D3E9002311F00AFC22462B4683
:108E600011F0BCFD68A3D3E9002311F001FC2246F8
:108E70002B4611F0B3FD66A3D3E9002311F0F8FBF4
:108E800022462B4611F0AAFDDDE9002311F0F0FB8C
:108E900032463B4611F0A2FD04460D46BAF1000FE2
:108EA00035D102460B46DDE9000111F0DFFB024639
:108EB0000B464046494611F0D9FB07B0BDE8F08F9C
:108EC00042464B464046494611F0D0FB02460B460F
:108ED00011F0AEFE07B0BDE8F08F0022594B11F043
:108EE000C7FB0022002312F009F828B1564B9C4220
:108EF00002DC4046494649E742464B464046494621
:108F000011F06CFD0022494B11F068FDCFE750468F
:108F100011F0FAFC30A3D3E9002382468B4611F00E
:108F20005DFD2BA3D3E9002306460F465046594664
:108F300011F054FDDDE9042311F09AFB22462B4683
:108F400011F096FB02460B46DDE9000111F08EFBA5
:108F500042464B4611F08AFB02460B4630463946E4
:108F600011F084FB07B0BDE8F08F45F40015C6F59D
:108F7000801620462946B6100AF1010AC1E60022F1
:108F8000294B4046494611F073FB4FEA215AAAF299
:108F9000FF3ABAF1000F04460D460E4640F39680A4
:108FA00042464B4611F062FB02460B4600201E492A
:108FB00011F05CFB22462B4611F03AFECDE904018C
:108FC00093E600BFAFF30080000000000000000047
:108FD000763C7935EF39EA3D0000E0FE422EE63F6F
:108FE00044523EDF12F1C23F9FC678D0099AC33F78
:108FF000DE03CB966446C73FAF788E1DC571CC3F6C
:10900000599322942449D23F04FA97999999D93FC8
:10901000935555555555E53F7982DA3FFFFFEF7F70
:10902000FFFF3F439DA006000000F03F0000E03F2F
:10903000FFFFEF3F0000F0BF000050C3FFFF1F3EE7
:109040003C412D4000005043FFFF8F3C2BA3D3E950
:1090500000232046294611F0C1FC02460B460020A1
:10906000254911F003FBDDE9022311F0B7FC0646A8
:109070000F46BAF1000F09D102460B462046294699
:1090800011F0F4FA82E6002000217FE6504611F04C
:109090003BFC15A3D3E9002382468B4611F09EFCCE
:1090A00013A3D3E90023804689465046594611F060
:1090B00095FCDDE9042311F0DBFA02460B4630464D
:1090C000394611F0D3FA22462B46EEE600220A4B2F
:1090D00011F0CCFA02460B464046494611F0C6FA5A
:1090E00068E700BFAFF300800000E0FE422EE63FDD
:1090F000763C7935EF39EA3D0000F03F555555553E
:109100005555E53F0000000008B512F077FC04A3B8
:10911000D3E9002311F08CFD08BD00BFAFF3008040
:10912000EF39FAFE422EE63FF8B504460D4600F050
:10913000EFFE154B93F90030013306460F4610D071
:1091400022462B462046294611F0E2FE48B9204629
:10915000294612F08FF90AA3D3E9002311F0CEFEBD
:1091600010B930463946F8BD13F0C0FE074F00264F
:109170002223036039463046F8BD00BFAFF30080BC
:109180007DF8B98FCE338640220200200000F07FA8
:10919000F8B504460D4600F06BFF1B4B93F9003009
:1091A000013306460F4614D02046294613F032FDFF
:1091B00078B111A3D3E900232046294611F09EFE81
:1091C00088B9204629460EA3D3E9002311F078FE82
:1091D00010B930463946F8BD13F088FE2223002628
:1091E00000270360F5E713F081FE222303600026C9
:1091F000064FEEE7AFF30080EF39FAFE422E8640CD
:1092000051302DD5104987C0220200200000F07F88
:109210002DE9F84FC44E21F00043B34204460D46F9
:109220000DDD03F1404303F58013034340F0B980A3
:10923000002940F3C08000200021BDE8F88FBB4E1C
:10924000B34208DCBA4A934200F3BA809CA1D1E948
:109250000001BDE8F88F0029C0F2708102460B467C
:109260000020B44911F002FA0022B34B11F0B6FB12
:1092700004460D4612F09EFE93A3D3E900238946CF
:1092800080462946204611F0A9FB91A3D3E900238B
:1092900011F0EEF922462B4611F0A0FB8EA3D3E984
:1092A000002311F0E3F922462B4611F097FB8CA323
:1092B000D3E9002311F0DCF922462B4611F08EFB96
:1092C00089A3D3E9002311F0D1F922462B4611F0EE
:1092D00085FB87A3D3E9002311F0CAF922462B4668
:1092E00011F07CFB84A3D3E9002382468B46204601
:1092F000294611F073FB82A3D3E9002311F0B6F9DC
:1093000022462B4611F06AFB7FA3D3E9002311F01C
:10931000AFF922462B4611F061FB7DA3D3E9002370
:1093200011F0A4F922462B4611F058FB0022814B84
:1093300011F09EF902460B465046594611F078FC52
:1093400042464B4611F04AFB002682468B46324687
:109350004B463046494611F041FB02460B4620463B
:10936000294611F083F9324604460D464B464046E5
:10937000494611F07DF902460B462046294611F078
:1093800057FC02460B465046594611F071F93246D9
:109390004B4611F06DF902460B4611F069F9BDE834
:1093A000F88F02460B4611F061F902460B4611F0A8
:1093B0003FFCBDE8F88F58A1D1E90001BDE8F88F66
:1093C00002460B4611F00AFB3FA3D3E900230646F1
:1093D0000F4611F003FB3EA3D3E9002311F048F937
:1093E00032463B4611F0FAFA3BA3D3E9002311F0D1
:1093F0003DF932463B4611F0F1FA39A3D3E9002397
:1094000011F036F932463B4611F0E8FA36A3D3E9BB
:10941000002311F02BF932463B4611F0DFFA34A35A
:10942000D3E9002311F024F932463B4611F0D6FA75
:1094300031A3D3E90023804689463046394611F0EE
:10944000CDFA2FA3D3E9002311F010F932463B46A1
:1094500011F0C4FA2CA3D3E9002311F009F9324624
:109460003B4611F0BBFA2AA3D3E9002311F0FEF822
:1094700032463B4611F0B2FA00222E4B11F0F8F8BA
:1094800002460B464046494611F0D2FB22462B4687
:1094900011F0A4FA02460B4621A1D1E9000111F016
:1094A000E5F802460B462046294611F0DFF8024651
:1094B0000B4603A1D1E9000111F0D8F8BDE8F88FFF
:1094C000182D4454FB21F93F09F7FD0DE13D023F02
:1094D00088B20175E0EF493F3B8F68B52882A43F11
:1094E0005544880E55C1C93F7D6FEB0312D6D43F5A
:1094F000555555555555C53F82922EB1C5B8B33F08
:1095000059018D1B6C06E63FC88A599CE52A00402C
:109510004B2D8A1C273A0340182D4454FB21094047
:10952000075C143326A6913CFFFFEF3FFFFFDF3FB0
:109530000000603C0000F03F0000E03F00225C4B78
:1095400011F096F800225B4B11F048FA40A3D3E9E2
:10955000002304460D4611F041FA3FA3D3E900234E
:1095600011F086F822462B4611F038FA3CA3D3E9D5
:10957000002311F07BF822462B4611F02FFA3AA374
:10958000D3E9002311F074F822462B4611F026FA95
:1095900037A3D3E9002311F069F822462B4611F0D6
:1095A0001DFA35A3D3E9002311F062F822462B46B9
:1095B00011F014FA804689462046294612F0FAFC3A
:1095C0002FA3D3E9002306460F462046294611F073
:1095D00005FA2DA3D3E9002311F048F822462B46C3
:1095E00011F0FCF92AA3D3E9002311F041F8224637
:1095F0002B4611F0F3F928A3D3E9002311F036F834
:1096000022462B4611F0EAF90022294B11F030F8DE
:1096100002460B464046494611F00AFB32463B469D
:1096200011F0DCF91EA3D3E9002311F01FF8324634
:109630003B4611F01DF802460B4611F019F80246A0
:109640000B4619A1D1E9000111F010F8BDE8F88F1F
:1096500009F7FD0DE13D023F88B20175E0EF493F9A
:109660003B8F68B52882A43F5544880E55C1C93F39
:109670007D6FEB0312D6D43F555555555555C53F13
:1096800082922EB1C5B8B33F59018D1B6C06E63FDF
:10969000C88A599CE52A00404B2D8A1C273A034072
:1096A000075C143326A6913C182D4454FB21094035
:1096B0000000F03F0000E03F414A91422DE9F843AD
:1096C00004460D463EDD3F4A91420B4608DD02F15D
:1096D0007952914266DD024610F0CAFFBDE8F88378
:1096E00001F1404202F58012024357D0B1F1804FA0
:1096F00032DD024611F072F90022334B10F0B6FF52
:1097000012F058FC2246804689462B4620462946C0
:1097100010F0AEFF224606460F462B46404649460D
:1097200010F0A6FF02460B460020274911F080FAF0
:109730000B4602463946304610F098FFBDE8F84324
:1097400000F046BE02460B4610F090FF02460B4664
:1097500011F06EFABDE8F88300221B4B10F086FF73
:1097600002460B4604460D4610F082FF224606468E
:109770000F462B462046294611F030F902460B468B
:109780003046394610F074FF12F014FC22462B4686
:1097900010F06EFFBDE8F843FFF78EBA00200021FD
:1097A000BDE8F88300F014FE03A3D3E9002310F012
:1097B0005FFFBDE8F88300BFEF39FAFE422EE63FB7
:1097C000FFFFEF3FFFFFAF410000F03F0000000050
:1097D0002DE9F04FBE4B21F000479F4287B0044671
:1097E0000D4628DD07F1404707F5801703463B4348
:1097F0000AD002460B4610F039FF02460B4611F024
:1098000017FA07B0BDE8F08F95A3D3E9002311F054
:10981000E5F895A3D3E9002306460F4620462946DE
:1098200011F0DCF802460B463046394610F020FFB6
:1098300007B0BDE8F08FA74B9F420E460FDCB7F193
:10984000795F80F24F818AA3D3E9002310F010FFE3
:109850000022A14B11F052FB002840F0FC80204672
:10986000294611F007FE02460B4600209A4910F0E7
:10987000FDFE0022994B11F0B1F87FA3D3E900233C
:1098800004460D4611F0AAF87DA3D3E9002310F099
:10989000EFFE22462B4611F0A1F87BA3D3E900236B
:1098A00010F0E4FE22462B4611F098F878A3D3E995
:1098B000002310F0DDFE22462B4611F08FF876A330
:1098C000D3E9002310F0D2FE22462B4611F086F891
:1098D00073A3D3E9002310F0CBFE22462B4611F0F0
:1098E0007DF871A3D3E90023CDE900012046294684
:1098F00011F074F86EA3D3E9002310F0B7FE2246EE
:109900002B4611F06BF86CA3D3E9002310F0B0FEE6
:1099100022462B4611F062F869A3D3E9002310F028
:10992000A5FE22462B4611F059F86B4B002210F091
:109930009FFE82468B4620462946CDE902AB12F0B7
:1099400039FB674B9F428046894665DC02460B46E1
:1099500010F08EFEDDE90223CDE90401DDE900010E
:1099600011F066F902460B46DDE9040111F036F804
:109970004FF0000ACDE9000152464B465046494699
:1099800011F02CF802460B462046294610F06EFED8
:10999000524604460D464B464046494610F068FE86
:1099A00002460B462046294611F042F902460B4674
:1099B00010F05EFE02460B462BA1D1E9000110F02B
:1099C00055FE02460B46DDE9000110F04FFE5246FF
:1099D00004460D464B465046494610F049FE0246A5
:1099E0000B4639A1D1E9000110F040FE02460B46BA
:1099F0002046294610F03AFE02460B4632A1D1E934
:109A0000000110F033FE002E3FF7FBAE01F10043E2
:109A1000194607B0BDE8F08F52465B46DDE900010C
:109A200011F006F942464B4610F0D8FF42464B462D
:109A300010F01EFE02460B4610F01AFE0AA3D3E9F0
:109A4000002310F013FE02460B4605A1D1E90001E8
:109A500010F00CFED7E720462946D2E6AFF300808F
:109A6000182D4454FB21F93F075C143326A6913C82
:109A70009C7500883CE4377E09F7FD0DE13D023F0F
:109A800088B20175E0EF493F3B8F68B52882A43F5B
:109A90005544880E55C1C93F7D6FEB0312D6D43FA4
:109AA000555555555555C53F82922EB1C5B8B33F52
:109AB00059018D1B6C06E63FC88A599CE52A004077
:109AC0004B2D8A1C273A0340182D4454FB21E93FB3
:109AD000FFFFEF3FFFFFDF3F0000F03F0000E03FF0
:109AE0003233EF3F02460B4610F078FF37A3D3E93D
:109AF000002306460F4610F071FF36A3D3E900237A
:109B000010F0B6FD32463B4610F068FF33A3D3E9B0
:109B1000002310F0ABFD32463B4610F05FFF31A34F
:109B2000D3E9002310F0A4FD32463B4610F056FF67
:109B30002EA3D3E9002310F099FD32463B4610F0E6
:109B40004DFF2CA3D3E9002310F092FD32463B4693
:109B500010F044FF29A3D3E900238046894630460C
:109B6000394610F03BFF27A3D3E9002310F07EFD18
:109B700032463B4610F032FF24A3D3E9002310F015
:109B800077FD32463B4610F029FF22A3D3E900239C
:109B900010F06CFD32463B4610F020FF00220A4BCD
:109BA00010F066FD02460B464046494611F040F86B
:109BB00022462B4610F012FF22462B4610F058FD8D
:109BC00007B0BDE8F08F00BF0000F03F09F7FD0DC2
:109BD000E13D023F88B20175E0EF493F3B8F68B538
:109BE0002882A43F5544880E55C1C93F7D6FEB03C1
:109BF00012D6D43F555555555555C53F82922EB175
:109C0000C5B8B33F59018D1B6C06E63FC88A599C05
:109C1000E52A00404B2D8A1C273A03400000000033
:109C20002DE9F84F1D465342134325F00049DFF854
:109C3000C8C149EAD3736345144606460F4626D881
:109C4000C0F1000848EA000821F0004A4AEAD87842
:109C5000E04503468B461AD805F1404808F58018C0
:109C600058EA0208AE464AD04FEAA57808F0020842
:109C70005AEA030348EAD17811D1B8F1020F42D071
:109C8000B8F1030F09D14AA1D1E9000105E032463C
:109C90003B462046294610F0EBFCBDE8F88F59EA18
:109CA000020325D0E14536D0E24521D0AAEB0909CF
:109CB0004FEA2959B9F13C0F29DC002D3EDA19F1A0
:109CC0003C0F3BDA00200021B8F1010F4ED0B8F173
:109CD000020F3ED0B8F1000FDFD037A3D3E9002345
:109CE00010F0C4FC36A3D3E9002310F0BFFCD4E786
:109CF000BBF1000F1EDB34A1D1E90001CDE7BDE8C7
:109D0000F84FFEF74DBD2EA1D1E90001C5E72EA108
:109D1000D1E90001D8E7CA452CD0B8F1020FF2D042
:109D2000B8F1030FAFD0B8F1010F4FF000002ED003
:109D30000021B2E726A1D1E90001AEE722462B4679
:109D40003046394610F074FF11F094FBFEF728FD01
:109D5000BAE719A3D3E9002310F088FC02460B46AA
:109D600017A1D1E9000110F081FC96E701F1004351
:109D7000194692E7B8F1020F14D0B8F1030F0DD0D5
:109D8000B8F1010F06D014A1D1E9000185E74FF029
:109D9000004182E712A1D1E900017EE712A1D1E9D9
:109DA00000017AE712A1D1E9000176E7AFF3008064
:109DB000182D4454FB2109C0075C143326A6A13C8E
:109DC000182D4454FB210940182D4454FB21F93F20
:109DD000182D4454FB21F9BF182D4454FB21E93FB1
:109DE000182D4454FB21E9BFD221337F7CD902C016
:109DF000D221337F7CD902400000F07F00000000B8
:109E000043422DE9F047034321F000463C4A46EA2D
:109E1000D373934204460D465AD8964266D0394BC6
:109E20009E428A4624DD384B9E4235462BDD334622
:109E30000246314610F01CFC224606460F462B46D1
:109E400000202F4910F012FC02460B4630463946DE
:109E500010F0EEFEFEF730FF00222C4B10F0BEFD9E
:109E6000BAF1000F02DA01F100431946BDE8F087AC
:109E700021A3D3E9002310F0FBFB0022002311F003
:109E80003DF878BB354622462B462046294610F041
:109E9000EFFB22462B4606460F4610F09FFD22465A
:109EA000804689462B460020154910F0DFFB02460C
:109EB0000B464046494610F0BBFE32463B4610F08A
:109EC000D7FBFEF7F9FE0022104B10F087FDC7E725
:109ED00002460B4610F0CAFB02460B4610F0A8FEE5
:109EE000BDE8F08720462946BDE8F0870022002320
:109EF00010F09EFEBDE8F0879C7500883CE4377E3C
:109F00000000F03FFFFF2F3EFFFFDF3F0000E03F7C
:109F10002DE9F8434E4B21F000449C4206460F4683
:109F200048DC4C4B9C4218DD4B4B9C4266DD4B4B56
:109F30009C427EDD4A4B9C4249DD01339C4243D02A
:109F400041A3D3E900231046194610F047FD064609
:109F50000F4630463946BDE8F88311F08BFA02F01F
:109F60008FFC00223F4B8046894610F081FBB4F104
:109F7000725F06460F46ECDB42464B46404649467A
:109F800010F02CFD324604460D463B46304639461D
:109F900010F06EFB02460B462046294610F048FEA4
:109FA0000022304B10F064FB06460F46304639461F
:109FB000BDE8F88302460B4610F010FD06460F463A
:109FC00030463946BDE8F883274B9842B8D830462A
:109FD000394611F04FFA0022244B10F0FFFC00F03C
:109FE00047F8002204460D46204B10F0F7FC2246AD
:109FF0002B4610F0F3FC06460F46AAE711F03AFA9A
:10A0000000F036F80022194B06460F4610F0E6FC29
:10A0100032463B4604460D460020144910F008FE27
:10A0200002460B462046294610F022FB06460F4604
:10A030008FE711F01FFA00F01BF800220B4B10F015
:10A04000CDFC06460F4684E79C7500883CE4377ECD
:10A05000FFFFEF7F422ED63FFFFF3540412E864067
:10A06000CD3386400000F03F7DF8B98F0000E03F1F
:10A070002DE9F04DCC4D21F00042AA4284B0824639
:10A080008B464FEAD17410D9C84DAA4227D9C1F3E3
:10A0900013030343024640F04081002C00F0DF80B0
:10A0A0000020002104B0BDE8F08DC14B9A4253D886
:10A0B000C04B9A4200F2D680A5A3D3E9002310F04A
:10A0C000D7FA0022BC4B10F019FF002800F0CA801C
:10A0D000504659460022B84B10F0CAFABFE09EA382
:10A0E000D3E9002310F00AFF002840F01C819CA354
:10A0F000D3E900235046594610F0E2FE0028CFD1A4
:10A10000AE4999A3D3E9002301EBC4045046594654
:10A1100010F064FCD4E9002310F0AAFA10F00EFF4E
:10A12000804610F0F1FB92A3D3E9002304460D46CC
:10A1300010F054FC02460B465046594610F096FA71
:10A140008DA3D3E9002306460F462046294610F08A
:10A1500045FCCDE9000115E0994B9A42D0D8994BC6
:10A16000E5002B44D3E9002310F080FA964B2B44F2
:10A1700093ED007B8DED007BC4F1010206460F4696
:10A18000A2EB0408DDE900233046394610F06EFAF0
:10A1900002460B4682468B4610F020FC78A3D3E99A
:10A1A000002304460D4610F019FC77A3D3E90023E1
:10A1B00010F05CFA22462B4610F010FC74A3D3E991
:10A1C000002310F055FA22462B4610F007FC72A32C
:10A1D000D3E9002310F04AFA22462B4610F0FEFB8A
:10A1E0006FA3D3E9002310F043FA22462B4610F068
:10A1F000F5FB02460B465046594610F037FA044626
:10A200000D4622462B465046594610F0E7FB2246A3
:10A21000CDE902012B46B8F1000F5CD000204FF0D1
:10A22000804110F023FA02460B46DDE9020110F0EE
:10A23000FFFC02460B46DDE9000110F017FA32463A
:10A240003B4610F013FA0B4602465B49002010F023
:10A250000DFA6FF47F7398456DDB01EB085104B084
:10A26000BDE8F08D52465B465046594610F0B6FBAD
:10A2700043A3D3E9002304460D4610F0AFFB42A3ED
:10A28000D3E9002310F0F2F922462B4610F0A6FB8A
:10A290003FA3D3E9002310F0EBF922462B4610F040
:10A2A0009DFB3DA3D3E9002310F0E0F922462B46A5
:10A2B00010F094FB3AA3D3E9002310F0D9F9224619
:10A2C0002B4610F08BFB02460B465046594610F0C9
:10A2D000CDF902460B465046594616461F4610F029
:10A2E0007DFB002204460D464FF080433046394640
:10A2F00010F0BCF902460B462046294610F098FCA7
:10A3000052465B4610F0B2F902460B4600202A493D
:10A3100010F0ACF904B0BDE8F08D0B4610F0A8F9D0
:10A3200004B0BDE8F08D0AA3D3E900231046194616
:10A3300010F054FB93E708F57A7301EB0351002208
:10A340004FF0B87310F04AFB04B0BDE8F08D00BFC9
:10A350009C7500883CE4377EEF39FAFE422E864039
:10A3600051302DD5104987C0FE822B654715F73F28
:10A370000000E0FE422EE63F763C7935EF39EA3DBB
:10A38000D0A4BE726937663EF16BD2C541BDBB3EFB
:10A390002CDE25AF6A56113F93BDBE166CC1663FD9
:10A3A0003E5555555555C53F412E8640FFFFEF7F21
:10A3B000422ED63FFFFF2F3E0000F03F80F4010801
:10A3C000B1A2F03F90F40108A0F4010800000000E1
:10A3D0002DE9F04FB1F5801F85B006460F460B46BC
:10A3E00080F2838021F00042024300F021810029A5
:10A3F000C0F261810022D64B10F0F0FAD54A0B462C
:10A40000934206460F466FF0350E73DCC3F3130517
:10A4100005F5152C0CF6647C0CF4801C8CF07F5236
:10A4200082F440121C1542EA0507A4F2FF3474447A
:10A430000022C94B3046394604EB1C5410F016F983
:10A44000AB1CC3F31303022B82468B464FF0000272
:10A4500059DC002310F02AFD002840F0F280A8A368
:10A46000D3E900235046594610F0B8FA02460B468D
:10A470000020BA4910F0FAF8524606460F465B46ED
:10A480005046594610F0AAFA02460B463046394665
:10A4900010F0A4FA06460F46002C00F00381204677
:10A4A00010F032FA98A3D3E900238046894610F0D1
:10A4B00095FA97A3D3E9002304460D464046494642
:10A4C00010F08CFA02460B463046394610F0CEF8B2
:10A4D00052465B4610F0CAF802460B462046294613
:10A4E00010F0C4F805B0BDE8F08F9A4A93424FF0DF
:10A4F000000E8BDD32463B463046394610F0B8F848
:10A5000005B0BDE8F08F4FF0804310F0B1F802467F
:10A510000B465046594610F08BFB064620460F4628
:10A5200010F0F2F93246CDE902013B463046394699
:10A53000CDE9006710F052FA02460B468046894684
:10A5400010F04CFA74A3D3E9002306460F4610F02E
:10A5500045FA73A3D3E9002310F08AF832463B464C
:10A5600010F03CFA70A3D3E9002310F081F83246D2
:10A570003B4610F033FA6EA3D3E9002310F078F8CD
:10A5800042464B4610F02AFA6BA3D3E900238046DB
:10A5900089463046394610F021FA69A3D3E90023F1
:10A5A00010F066F832463B4610F018FA66A3D3E97D
:10A5B000002310F05DF832463B4610F00FFA0B46D0
:10A5C00002464946404610F053F8A5F5C223C5F5AA
:10A5D000D725A3F27A4351351D43002D06460F4679
:10A5E0004BDD00225D4B5046594610F0F7F95246BC
:10A5F0005B4610F0F3F902460B468046894630462A
:10A60000394610F035F8DDE9002310F0E7F9064689
:10A610000F46002C57D102460B464046494610F0E3
:10A6200025F802460B465046594610F01FF867E7DA
:10A630000022002300204A4910F0FAFA05B0BDE8D4
:10A64000F08F002C58D0204610F05EF92EA3D3E9ED
:10A65000002306460F4610F0C1F92DA3D3E90023CD
:10A6600004460D463046394610F0B8F902460B460E
:10A67000204629460FF0FCFF42E702460B465046B3
:10A6800059460FF0F3FFDDE9002310F0A7F9064665
:10A690000F463CB1DDE902891BA3D3E90023404604
:10A6A000494604E732463B46504659460FF0DEFF26
:10A6B00005B0BDE8F08F02460FF0D8FF002200235E
:10A6C00010F0B6FA1CE710A3D3E90023DDE902017C
:10A6D00010F084F90EA3D3E9002304460D46DDE90A
:10A6E000020110F07BF932463B460FF0C1FF0246F3
:10A6F0000B4640464946E9E60020002100E700BF3E
:10A70000555555555555D53F0000E0FE422EE63FC4
:10A71000763C7935EF39EA3D44523EDF12F1C23FD3
:10A72000DE03CB966446C73F599322942449D23F17
:10A73000935555555555E53F9FC678D0099AC33F67
:10A74000AF788E1DC571CC3F04FA97999999D93F7E
:10A7500000005043FFFFEF7F0000F03F0000E03FAC
:10A76000000050C300000000B1F5801F2DE9F84340
:10A7700004460D460B4619DA21F00042024359D037
:10A7800000295FDB00223A4B10F028F9394A0D46C8
:10A790002B46934204466FF035010CDD22462B46D2
:10A7A000204629460FF064FFBDE8F883314A934202
:10A7B0004FF00001F2DC1815A0F2FF3008444FEA18
:10A7C000D0794844C3F3130810F09EF8C9F57F739D
:10A7D000033348EA035506460F4620462946FFF74D
:10A7E000F7FD1DA3D3E9002380468946304639464C
:10A7F00010F0F4F81AA3D3E9002304460D464046AE
:10A80000494610F0EBF802460B46204629460FF069
:10A810002FFF15A3D3E9002304460D4630463946E1
:10A8200010F0DCF802460B46204629460FF020FFC8
:10A83000BDE8F8830022002300200F4910F0F8F94A
:10A84000BDE8F88302460FF011FF0022002310F04C
:10A85000EFF9A9E7AFF30080362BF111F3FE593D74
:10A860000EE526157BCBDB3F00609F501344D33FA2
:10A8700000005043FFFFEF7F000050C300000000C6
:10A880002DE9F04F23F0004959EA020493B03BD080
:10A89000694E21F00044B4420D4683462DDC9A46B1
:10A8A000944636D0B14528DC634EB14522D0002D08
:10A8B00006460F46CDE9002334DB4FF00008BCF11B
:10A8C000000F4BD15C4B994500F091805B4B994553
:10A8D00000F09F80BAF1804F00F0A184584B9A4558
:10A8E0003CD1002D3ADB3046394613B0BDE8F04F7D
:10A8F00011F060BBBCF1000FD9D004F1404404F565
:10A90000801454EA0B0307D14C49002013B0BDE872
:10A91000F08F08B9A145C7DD4A4813B0BDE8F04F34
:10A9200012F07EB9484B99457ADCA3F154739945EE
:10A930000FDD4FEA2953A3F2FF33142B40F3778442
:10A94000C3F134032CFA03F202FA03F3634500F077
:10A95000B5844FF00008BCF1000FB7D0304639463F
:10A9600010F088FDBBF1000F23D124B1334B25F04B
:10A9700040429A421DD1BAF1000F05DA02460B4659
:10A9800000202E4910F054F9002DBFDA04F14044A4
:10A9900004F5801454EA080340F06B8402460B4629
:10A9A000104619460FF062FE02460B4610F040F9C1
:10A9B000ACE7EB0F013B079358EA030333D0234B7B
:10A9C000994547DD03F10473994540F3B783204B64
:10A9D0009C4240F33F83BAF1000F40F33F8314A33E
:10A9E000D3E90023104619460FF0F8FF8EE704F173
:10A9F000404303F5801353EA0B0385D0144B9C426C
:10AA000040F35783BAF1000FC0F22883DDE900015B
:10AA10007CE7BAF1000FC0F2FA833046394675E799
:10AA20004FF002084BE732463B46B9E7AFF30080F0
:10AA30009C7500883CE4377E0000F07F0000F03F0A
:10AA40000000E03FD4F80108FFFF3F430000E04171
:10AA5000FFFFEF3FD44B2B40002B40F0D68300226A
:10AA6000D24B0FF0BBFF6FF034060C46D04D2315D0
:10AA7000C4F31302A3F2FF3342F07F54AA4203EB64
:10AA8000060944F4401440F3B483CA4B9A4240F39D
:10AA9000F9839FEDAF7B8DED0A7B8DED107B9FEDF4
:10AAA000AE7B8DED087B09F10109A4F5801400252A
:10AAB000DDE90823214682460FF0D8FDA346DDE9F3
:10AAC000082306460F4650462146CDE90CAB0FF051
:10AAD000CFFD02460B460020B74910F0A9F80A4600
:10AAE0000146CDE90E1213463946024630460FF0B4
:10AAF00075FF631043F0005382468B4603F5002335
:10AB00008C46CDE904AB5919D3460023CDE902BCEC
:10AB10000293DDE902AB002004460D4602460B46D7
:10AB2000504659460FF05AFF02460B46304639460A
:10AB30000FF09CFDDDE9082306460F462046294616
:10AB40000FF094FD02460B46DDE90C010FF08EFD7F
:10AB500052465B460FF042FF02460B4630463946EE
:10AB60000FF084FDDDE90E230FF038FFDDE9044529
:10AB7000CDE9080122462B46204629460FF02EFF3C
:10AB800077A3D3E9002304460D460FF027FF76A3F1
:10AB9000D3E900230FF06CFD22462B460FF01EFF79
:10ABA00073A3D3E900230FF063FD22462B460FF079
:10ABB00015FF71A3D3E900230FF05AFD22462B465F
:10ABC0000FF00CFF6EA3D3E900230FF051FD2246D6
:10ABD0002B460FF003FF6CA3D3E900230FF048FDD1
:10ABE000224606460F462B46204629460FF0F6FE23
:10ABF00002460B46304639460FF0F0FE52460446F8
:10AC00000D465B46DDE904010FF032FDDDE9082366
:10AC10000FF0E4FE22462B460FF02AFD5246064670
:10AC20000F465B46504659460FF0D8FE0022634B54
:10AC3000CDE90C010FF01CFD32463B460FF018FD2C
:10AC400002980D46044622462B46504659460FF0C0
:10AC5000C5FE002282468B46584B204629460FF0FF
:10AC600005FDDDE90C230FF001FD02460B463046E1
:10AC700039460FF0FBFCDDE904230FF0AFFE22465E
:10AC800006460F462B46DDE908010FF0A7FE0246F7
:10AC90000B46304639460FF0EBFC06460F4602469F
:10ACA0000B46504659460FF0E3FC029838A3D3E90F
:10ACB000002304460D460FF091FE5246CDE90401F3
:10ACC0005B46204629460FF0D1FC02460B46304633
:10ACD00039460FF0CBFC30A3D3E900230FF07EFE02
:10ACE0002FA3D3E9002306460F46204629460FF03E
:10ACF00075FE02460B46304639460FF0B9FCDDE9D9
:10AD000010230FF0B5FC044648460D460FF0FCFD3D
:10AD1000224606460F462B46DDE904010FF0A8FC4B
:10AD2000DDE90A230FF0A4FC32463B460FF0A0FCFD
:10AD3000029832463B4682468B460FF097FCDDE98F
:10AD40000A230FF093FCDDE9042339E0AFF3008020
:10AD50000000000000000000000000000000F03FC4
:10AD6000EF4E454A287ECA3F65DBC9934A86CD3FF0
:10AD700001411DA96074D13F4D268F515555D53FD6
:10AD8000FFAB6FDBB66DDB3F033333333333E33F6E
:10AD9000000000E009C7EE3FFD033ADC09C7EE3FC3
:10ADA000F5015B14E02F3EBE0000F07F0000404341
:10ADB0008E98030079B60B000000F03F00000840B9
:10ADC0000FF054FC02460B46204629460FF04EFC7D
:10ADD000079A08F1FF331343CDE9020140F0648183
:10ADE0009FEDB97B8DED047BDDE900230026104645
:10ADF000194632461F460FF039FC5B4652460FF0AB
:10AE0000EDFDDDE9002380468946DDE902010FF012
:10AE1000E5FD02460B46404649460FF029FC324606
:10AE2000CDE900013B46594650460FF0D7FD0B4691
:10AE3000024680468946DDE900010FF019FCBA4B55
:10AE4000994204460D468B4640F30B8101F13F4386
:10AE500003F5E003034340F0FE819DA3D3E9002303
:10AE6000DDE900010FF004FC424606460F464B4662
:10AE7000204629460FF0FAFB02460B46304639467B
:10AE800010F03CF8002840F0E681CBF30A534FF471
:10AE90008012A3F2FE3342FA03F35B44C3F30A5277
:10AEA000A24DA2F2FF321541C3F3130423EA0501B8
:10AEB0000020C2F1140A44F48014BBF1000F0246D2
:10AEC0000B4644FA0AFA40464946B8BFCAF1000A9E
:10AED0000FF0CCFB804689464246DDE900014B4637
:10AEE0000FF0C6FB4FEA0A5B0D4600247AA3D3E9B4
:10AEF0000023204629460FF071FD424606460F46C4
:10AF00004B46204629460FF0B1FB02460B46DDE9D1
:10AF100000010FF0ABFB72A3D3E900230FF05EFD3D
:10AF200071A3D3E9002380468946204629460FF0C5
:10AF300055FD02460B46404649460FF099FB8046B8
:10AF4000894602460B46304639460FF091FB3246A1
:10AF50003B4604460D460FF089FB02460B46404631
:10AF600049460FF083FB2246804689462B46204601
:10AF700029460FF033FD5EA3D3E9002306460F46B2
:10AF80000FF02CFD5CA3D3E900230FF06FFB3246DA
:10AF90003B460FF023FD5AA3D3E900230FF068FBD3
:10AFA00032463B460FF01AFD57A3D3E900230FF0BA
:10AFB0005DFB32463B460FF011FD55A3D3E900235C
:10AFC0000FF056FB32463B460FF008FD02460B469B
:10AFD000204629460FF04AFB06460F4602460B461E
:10AFE000204629460FF0FAFC0022CDE900014FF07F
:10AFF0008043304639460FF039FB02460B46DDE907
:10B0000000010FF015FE424606460F464B4620460D
:10B0100029460FF0E3FC42464B460FF029FB02465F
:10B020000B46304639460FF021FB22462B460FF0E7
:10B030001DFB02460B4600203D490FF017FB8B44D9
:10B04000BBF5801FC0F236815946DDE904230FF0BD
:10B05000C5FC5BE4BAF1000FFFF6C1AC0020002193
:10B0600054E4DFF8D4C021F00043634540F3ED80A1
:10B07000304B0B4403430AD142464B460FF0F6FADD
:10B08000DDE900230FF030FF00283FF4FEAEDDE9DC
:10B09000040121A3D3E900230FF0A0FC1EA3D3E9F0
:10B0A00000230FF09BFC31E49FED1D7B8DED047BB5
:10B0B0009AE6BAF1000FD1DADDE90034184604F15E
:10B0C000004123E4AFF30080000000000000F0BF67
:10B0D000FE822B654715973C00000000432EE63F9B
:10B0E000EF39FAFE422EE63F396CA80C615C20BEB7
:10B0F000D0A4BE726937663EF16BD2C541BDBB3E7E
:10B100002CDE25AF6A56113F93BDBE166CC1663F5B
:10B110003E5555555555C53F59F3F8C21F6EA5010B
:10B12000000000000000F03FFFFF8F40FFFF0F0016
:10B130000000F03F00346F3FFFCB90407C4B9C42BF
:10B1400088DD7C4B9C423FF746AC0022794B0FF0E8
:10B150008DFA63A3D3E9002304460D460FF03EFCAD
:10B1600061A3D3E9002306460F46204629460FF087
:10B1700035FC002282468B466F4B204629460FF055
:10B180002DFC02460B465AA1D1E900010FF06EFAE0
:10B1900022462B460FF022FC02460B460020674950
:10B1A0000FF064FA2246CDE902012B4620462946DB
:10B1B0000FF014FC02460B46DDE902010FF00EFC15
:10B1C0004DA3D3E900230FF009FC02460B4650467D
:10B1D00059460FF04BFA02460B4604460D463046E0
:10B1E00039460FF045FA002082468B4632463B46F0
:10B1F000E6E59FED437B8DED0A7B8DED107B9FEDAA
:10B20000427B00258DED087B52E400262EE4324679
:10B210003B46002047490FF00BFDFFF777BB324656
:10B220003B46304639460FF0D9FBFFF76FBBBCF108
:10B23000000F36D1C3F1140349FA03F202FA03F303
:10B240004B4545D0E046FFF741BB3C4A934245DCC5
:10B25000B346B24649E6DDE904012DA3D3E9002354
:10B260000FF0BCFB2AA3D3E900230FF0B7FBFFF7D5
:10B270004DBBB8F1010F7FF449AB01F10043194612
:10B28000FFF744BB9FED247B8DED0A7B9FED247B74
:10B290008DED107B9FED247B4FF480258DED087B99
:10B2A00006E410F0E7F8BBF1000F7FF4BCABD84622
:10B2B000FFF75BBB524601F023FDC6E602F0010238
:10B2C000C2F10208BCF1000F3FF400ABFFF746BB30
:10B2D00002F00102C2F10208FFF7F8BA1B15D6E529
:10B2E000000000604715F73F44DF5DF80BAE543EA9
:10B2F000555555555555D53FFE822B654715F73F9A
:10B300000000000000000000000000000000F03F0E
:10B310009C7500883CE4377E0000004003B8E23FA3
:10B3200006D0CF43EBFD4C3E000000000000F83F8C
:10B33000FEFFEF3F0000F03F0000D03F0000E03F85
:10B340002DE9F04F944B21F000459D428FB080468F
:10B35000894640F38180914B9D420E46144626DC7F
:10B36000002983A3D3E9002340F3A5810FF07EF9E0
:10B370008B4B9D4206460F4600F083807EA3D3E9A7
:10B3800000230FF073F902460B46C4E90023394647
:10B3900030460FF06BF978A3D3E900230FF066F97C
:10B3A000C4E90201012738460FB0BDE8F08F7D4B9C
:10B3B0009D4240F386807C4B9D4258DC2F15A7F2BE
:10B3C0001647A5EB075189460FF0B8FD0FF09CFA20
:10B3D00082468B464046494652465B46CDE908AB1D
:10B3E0000FF044F90022714B0FF0F8FA89468046BD
:10B3F0000FF0A4FD05460FF087FA02460B464046C3
:10B400004946CDE90A230FF031F90022674B0FF0CE
:10B41000E5FA00220023CDE90C010FF047FD0028DA
:10B4200000F04781002D0CBF01230223604A0192E6
:10B4300002213A46009108A8214600F07DFB002E2B
:10B440000746B0DA6268E36802F1004203F10043A4
:10B4500047426260E360A6E7002000210027C2E9BE
:10B4600002013846C2E900890FB0BDE8F08F0246FC
:10B470000B460FF0FBF80027C4E90201C4E9000104
:10B4800091E73FA3D3E900230FF0F0F83EA3D3E9FF
:10B49000002306460F460FF0E9F802460B46C4E9C2
:10B4A0000023304639460FF0E1F837A3D3E90023F3
:10B4B0000FF0DCF80127C4E9020138460FB0BDE8FF
:10B4C000F08F0FF0D7FF32A3D3E9002380468946DF
:10B4D0000FF084FA0022374B0FF0CAF80FF02EFD60
:10B4E00007460FF011FA22A3D3E90023CDE90401A6
:10B4F0000FF074FA02460B46404649460FF0B6F884
:10B500001DA3D3E9002382468B46DDE904010FF039
:10B5100065FA1F2FCDE9020150DC02460B4650466A
:10B5200059460FF0A3F8244B7A1E804653F8223078
:10B53000AB4289464AD042464B46C4E90089504650
:10B5400059460FF093F8DDE902230FF08FF8002E33
:10B55000C4E90201BFF627AF09F1004501F100433C
:10B560007F42C4E90085C4E902031CE7AFF3008011
:10B5700000004054FB21F93F3163621A61B4D03DB1
:10B580000000601A61B4D03D7370032E8A19A33B8A
:10B5900083C8C96D305FE43FFB21E93F7BD902409E
:10B5A000FB21F93FFB213941FFFFEF7F0000704194
:10B5B000740302080000E03FF4020208DDE9022300
:10B5C000504659460FF052F8804689462D15C9F36A
:10B5D0000A53EB1A102BAEDD57A3D3E90023DDE9A4
:10B5E00004010FF0FBF98046894602460B4650469F
:10B5F00059460FF03BF802460B4650465946CDE9F6
:10B6000006230FF033F842464B460FF02FF84CA3B9
:10B61000D3E9002380468946DDE904010FF0DEF915
:10B6200042464B460FF022F8DDE906ABCDE90201B8
:10B630000B460246594650460FF018F8C1F30A531C
:10B64000ED1A312D804689467FF775AF3FA3D3E9C8
:10B650000023DDE904010FF0C1F980468946024666
:10B660000B46DDE906010FF001F802460B46824663
:10B670008B46DDE906010EF0F9FF42464B460EF01F
:10B68000F5FF34A3D3E9002380468946DDE90401B0
:10B690000FF0A4F942464B460EF0E8FF02460B4677
:10B6A00050465946CDE902230EF0E0FF8046894618
:10B6B00041E70323BAE60EF0DBFF234B9D4206462B
:10B6C0000F4616D01AA3D3E900230EF0D1FF02468D
:10B6D0000B46C4E90023394630460EF0C7FF14A3D9
:10B6E000D3E900230EF0C4FF4FF0FF37C4E9020195
:10B6F00059E611A3D3E900230EF0BAFF10A3D3E952
:10B7000000230F4606460EF0B3FF02460B46C4E97F
:10B710000023394630460EF0A9FF09A3D3E90023E0
:10B720000EF0A6FF4FF0FF37C4E902013BE600BF71
:10B730003163621A61B4D03D0000601A61B4D03D3B
:10B740007370032E8A19A33BFB21F93F0000002EE2
:10B750008A19A33BC14920259A837B390000000048
:10B76000574A2DE9F84F21F00048904504460D4610
:10B7700058DC544B0029B4BF534F544F98454FF0F9
:10B78000000612DD524B984540F38C80514B984592
:10B7900054DD013398454ED02046294646A3D3E9CF
:10B7A00000230FF01BF9BDE8F88F4B4B98455CDC8C
:10B7B00041A3D3E900230EF05BFF0022474B0FF0BB
:10B7C0009DFBA8BB204629460FF054FE01F058F817
:10B7D00004460D4622462B46204629460EF048FFD9
:10B7E000224682468B462B46204629460FF0F6F825
:10B7F000002280468946394B204629460EF038FF04
:10B8000002460B46404649460FF012FA02460B46E6
:10B81000504659460EF02AFF32463B460FF0DEF8FE
:10B82000BDE8F88F02460B460EF022FFBDE8F88F08
:10B8300020462946FAE72A4B9842ADD820462946A9
:10B840000FF018FE0022214B0FF0C8F8FEF710FC95
:10B8500004460D4602460B46304639460FF0BEF808
:10B8600022462B460FF0BAF8E0E70FF003FE01F096
:10B8700007F81C4B984504460D46ABDD0022174BDC
:10B880000EF0F6FE02460B46204629460FF0D0F990
:10B8900022462B460EF0ECFE32463B460FF09EF859
:10B8A000BDE8F88F0FF0E6FDFEF7E2FB32463B46BF
:10B8B0000FF094F8BAE700BF3374AC3C1F7BAC7F49
:10B8C000FFFFEF7FFFFF35400000E0BF0000E03FDB
:10B8D000412E8640CD338640FFFF2F3E0000F03FD3
:10B8E0007DF8B98FFFFFEF3F2DE9F04F21F00048C1
:10B8F000B8F1795F85B006460F4692469B466BDAF3
:10B900000FF01CFB002800F0EA8032463B46304630
:10B9100039460FF063F874A3D3E9002304460D46BB
:10B920000FF05CF872A3D3E900230EF0A1FE2246CB
:10B930002B460FF053F870A3D3E900230EF096FEC8
:10B9400022462B460FF04AF86DA3D3E900230EF0F0
:10B950008FFE22462B460FF041F86BA3D3E900235C
:10B960000EF084FE22462B460FF038F868A3D3E988
:10B9700000230EF07DFE22462B460FF02FF8CDE976
:10B9800000010022664B204629460FF027F8DDE92A
:10B99000002380468946204629460FF01FF852466C
:10B9A00004460D465B46304639460FF017F802460E
:10B9B0000B46204629460EF059FE02460B464046ED
:10B9C00049460EF053FE02460B46002055490EF044
:10B9D0004DFE05B0BDE8F08F02460B460EF0FEFFAF
:10B9E00041A3D3E9002304460D460EF0F7FF40A320
:10B9F000D3E900230EF03CFE22462B460EF0EEFF6C
:10BA00003DA3D3E900230EF031FE22462B460EF073
:10BA1000E5FF3BA3D3E900230EF02AFE22462B4686
:10BA20000EF0DCFF38A3D3E900230EF01FFE224600
:10BA30002B460EF0D3FF36A3D3E900230EF018FEF9
:10BA40002B4622460EF0CAFF374B9845CDE9000140
:10BA500097DD364B984539DCA8F50013002200200D
:10BA60003049904699460EF001FECDE902010022D0
:10BA70002B4B204629460EF0B1FF42464B460EF0B6
:10BA8000F5FDDDE9002380468946204629460EF073
:10BA9000A5FF524604460D465B46304639460EF039
:10BAA0009DFF02460B46204629460EF0DFFD02466A
:10BAB0000B46404649460EF0D9FD02460B46DDE9ED
:10BAC00002010EF0D3FD05B0BDE8F08F9FED127BB3
:10BAD0004FF000088DED027BDFF85490C7E7114965
:10BAE000002005B0BDE8F08FD43888BEE9FAA8BDC3
:10BAF000C4B1B4BD9EEE213EAD529C804F7E923EBD
:10BB00009015CB19A001FA3E7751C1166CC1563F72
:10BB10004C5555555555A53F000000000000E73F26
:10BB20000000E03F0000F03F3233D33F0000E93F28
:10BB30000000D23F000000002DE9F04FADF5197D67
:10BB4000B54CA29D089354F825400594013B12F191
:10BB5000140F04900B910393C0F2AA82AF49D31E35
:10BB600081FB0301DB17C3EBA10307930133A3EBB5
:10BB70008303DB00D3180693079A039BD61A059A12
:10BB800012EB03081AD408F1010800240025B04480
:10BB900020AFDDF88C9208E059F826000EF0B4FED4
:10BBA00001364645E7E8020108D0002EF4DA0136F6
:10BBB000204629464645E7E80201F6D1059B002BC1
:10BBC000089B4FEAC30301932ADB049A20A902EBE6
:10BBD000030801EB030A059B72AA02EBC30B0DF5E8
:10BBE000E079039B002B4FF000064FF0000711DBBC
:10BBF000049C554675E90223F4E802010EF0EEFEBE
:10BC000002460B46304639460EF032FD44450646A4
:10BC10000F46EFD1E9E80267D9450AF1080AE0D1F9
:10BC20000198049C0599019120448B0083460BA840
:10BC3000A3F10802C3180A930CAB13440993019AA9
:10BC400098A901EBC203002A53E9284529DD0DF527
:10BC5000E07A0AEBC2080DF130090022704B204651
:10BC600029460EF0BBFE0FF069F90EF04DFE0022E2
:10BC70006C4B06460F460EF0B1FE02460B462046C0
:10BC800029460EF0F3FC0FF059F978E9022349F840
:10BC9000040B394630460EF0EBFCD04504460D4609
:10BCA000DBD1DDF81890204629464A4601F028F8F5
:10BCB00000224FF07F5304460D460EF08FFEFCF736
:10BCC0007FFF0022584B0EF089FE02460B462046AD
:10BCD00029460EF0CBFC0D4604460FF02FF98046A6
:10BCE0000EF012FE0B460246294620460EF0BEFC20
:10BCF0004B46002B06460F4640F39880019A0CA94C
:10BD0000013AC9F1180351F8225045FA03F101FA3A
:10BD100003F3EB1AC9F117050CA843FA05F5002D3A
:10BD200040F82230884400F38B8000220023304604
:10BD300039460FF0BBF8002800F08D82019B059A70
:10BD400003F1FF394A4510DC03F180430CAA013BA3
:10BD50000A9802EB8303002253F80419834242EA53
:10BD60000102F9D1002A40F0DA80059B0CAA013BC0
:10BD700052F82330002B40F0CD80099A012352F86D
:10BD8000041901330029FAD001994A1CCB180293F7
:10BD90009146079B089902EB030A019B0B441D4641
:10BDA00020AB0AF1804A03EBC505A39B0AF1FF3AD9
:10BDB00003EB8A0A70AB03EBC20301935AF8040F3A
:10BDC0000EF0A2FD0B4603990246A8460029E8E8BA
:10BDD00002234FF000064FF0000711DB049C01E046
:10BDE00075E90223F4E802010EF0F8FD02460B4665
:10BDF000304639460EF03CFC5C4506460F46EFD116
:10BE0000019BE3E802670193029B09F1010999454F
:10BE10004546D3DD019312E714080208ABAAAA2A0B
:10BE20000000703E000070410000204069D1019B7D
:10BE30000CAA013B52F82350ED15002D7FF775AF8A
:10BE4000019B002B08F1010840F303820C9C002C9D
:10BE50003AD1019B012B09D00CA9012251F8044FC2
:10BE6000531C9CBB1A46019B9342F7D1069B002BA7
:10BE70000EDD012B00F01181022B09D1019B5A1E0E
:10BE80000CAB0CA953F82230C3F3150341F8223050
:10BE9000022D7FF44AAF32463B46002092490EF015
:10BEA000E5FB06460F46002C3FF43FAF069A8E494D
:10BEB000002000F025FF02460B46304639460EF0C2
:10BEC000D5FB06460F4630E7012300220CA9C4F13A
:10BED000807441F822400199994210DD0CAA0CA807
:10BEE00052F8232000EB830300EB81006FF07F41C9
:10BEF00000E01A688A1A43F8042B8342F9D101241E
:10BF0000B4E70022794B0EF0EFFF002840F0D58017
:10BF100005460AE7019B5A1C9146029239E70CAB91
:10BF2000069A53F82930CDF81C80183A04950692E9
:10BF300073B9019B03F18043023B0CA901EB83031E
:10BF400053F8041909F1FF39183A0029F8D006927C
:10BF5000069A6549002000F0D3FEB9F1000F0446AF
:10BF60000D46C0F2D5814FEAC90370AA02EB03085F
:10BF7000069309F101060CABDFF874B14FF0000A2B
:10BF800008F1080703EB860656F8040D0EF0BCFC1A
:10BF900022462B460EF022FD5B4667E9020152461F
:10BFA000204629460EF01AFD0CAB9E4204460D4673
:10BFB000EAD1CDF80890DDF8149048ABB9F1000F44
:10BFC0000393C34601934FF0000A2BDBDFF8248173
:10BFD0005D4643A3D3E9002300260027002403E0A5
:10BFE000544510DCF8E80223F5E802010EF0F6FCF7
:10BFF00002460B46304639460EF03AFB0134A14565
:10C0000006460F46ECDA019B029AE3E80267924586
:10C010000193ABF1080B0AF1010306D0B9F1000F4F
:10C020009A46D3DA00260027EDE7A29BDDF80890B8
:10C03000032B2BD8DFE813F0F200E100E1006200EF
:10C0400048AB00240025039303992B462246D1E9EF
:10C0500000010EF00BFB049B002B40F038810B9B82
:10C06000B9F1000FC3E900450DDD4AAD01240134EB
:10C07000F5E802230EF0FCFAA145F8DA049B13B1AF
:10C0800001F1004319460B9BC3E90201079B03F032
:10C0900007000DF5197DBDE8F08F019B5A1E0CAB12
:10C0A0000CA953F82230C3F3160341F82230EFE60F
:10C0B00000216FF0170307915CE5019B002B08F14D
:10C0C0000108C8BF02253FF7C1AE32463B460020FB
:10C0D00005490EF0CBFA022506460F4625E600BFBD
:10C0E00000000040FB21F93F0000F03F0000E03F6E
:10C0F0000000703EC8F4010848AB0393B9F1000F8B
:10C1000040F31981039A4FEAC9030193D318D3E985
:10C1100000AB984678E9026752465B46304639469E
:10C120000EF0A6FA04460D4602460B463046394646
:10C130000EF09CFA5B4652460EF09AFA039B43457A
:10C14000A246AB46C8E90201C8E90045E2D1B9F10F
:10C15000010F40F3F080019B039A09F1005909F1A6
:10C16000FF3913444FEAC901D3E9006701F1080A16
:10C17000019192440DF5947B7AE9028932463B465F
:10C18000404649460EF074FA04460D4602460B46F8
:10C19000404649460EF06AFA32463B460EF068FACF
:10C1A000D34526462F46CAE90201CAE90045E3D134
:10C1B000019C039B1034002000211C4403F1100556
:10C1C00074E902230EF054FAA542F9D1039C049EAF
:10C1D000D4E90023D4E90245002E40F083800B9E71
:10C1E000C6E90023079BC6E9040103F00700C6E97E
:10C1F00002450DF5197DBDE8F08F069E039F0836B8
:10C20000002400253E4476E90223204629460EF00C
:10C210002FFAB74204460D46F5D115E7069C039D5B
:10C220000834002000212C4474E902230EF020FA87
:10C23000A542F9D1049B13B101F1004319460B9BB0
:10C24000C3E90001079B03F007000DF5197DBDE868
:10C25000F08F00240AE63946069F04957A4230465C
:10C26000CDF81C8000F04CFD0022344B04460D46F6
:10C270000EF03AFE08B30022314B204629460EF05C
:10C28000ADFB0EF05BFE06460EF03EFB00222B4B94
:10C290000EF0A4FB02460B46204629460EF0E6F9B6
:10C2A0000EF04CFE019B0CAA03F10109183742F86D
:10C2B0002300069742F829604AE6204629460EF0F8
:10C2C0003DFE019B0CAA994642F8230040E6224617
:10C2D0000B9C05F10043B9F1000FC4E900233FF7BF
:10C2E000C4AECDE603F1004701F100430B99C1E96B
:10C2F0000403079B2646944605F1004403F007001B
:10C30000C1E900C7C1E902640DF5197DBDE8F08FF0
:10C31000A29B032B3FF6BAAE01A252F823F000BF56
:10C3200031C3000841C0000841C00008F9C000083E
:10C33000002000217EE70020002147E70000704137
:10C340000000703E000000002DE9F04F21F0004693
:10C35000B6F1795F85B004460D469046994604DAF9
:10C360000EF0ECFD002800F0858022462B4620468A
:10C3700029460EF033FB06460F4602460B46204682
:10C3800029460EF02BFB41A3D3E9002382468B46BE
:10C39000304639460EF022FB3EA3D3E900230EF0CF
:10C3A00065F932463B460EF019FB3CA3D3E9002366
:10C3B0000EF05EF932463B460EF010FB39A3D3E98E
:10C3C00000230EF053F932463B460EF007FB37A32D
:10C3D000D3E900230EF04CF90E9BCDE900019BB38D
:10C3E0000022294B404649460EF0F8FADDE90023C9
:10C3F000CDE90201504659460EF0F0FA02460B46CE
:10C40000DDE902010EF032F932463B460EF0E6FA63
:10C4100042464B460EF02AF919A3D3E900230646FB
:10C420000F46504659460EF0D9FA02460B463046A2
:10C4300039460EF01DF902460B46204629460EF0FD
:10C4400015F905B0BDE8F08F02460B463046394677
:10C450000EF0C4FA0AA3D3E900230EF007F95246FE
:10C460005B460EF0BBFA22462B460EF001F905B0F2
:10C47000BDE8F08F2046294605B0BDE8F08F00BF2B
:10C48000495555555555C53F0000E03F7CD5CF5A1D
:10C490003AD9E53DEB9C2B8AE6E55A3E7DFEB15745
:10C4A000E31DC73ED561C119A0012A3FA6F81011AE
:10C4B0001111813F000000002DE9F04FC04C21F028
:10C4C000004687B0A64282468B460F46CDE9002340
:10C4D0001ADC0EF033FD00283FD1109B5246013389
:10C4E0001343334300F0B781109B012B00F0C08150
:10C4F0005B460020B3490EF09BFB04460D462046E8
:10C50000294607B0BDE8F08FAF4B9E4225DD0029DC
:10C5100009DADDE90045224605F10043CDE90023B3
:10C520000BF100418B4652465B4685A1D1E90001E3
:10C530000EF09CF8DDE9002304460D4682A1D1E906
:10C5400000010EF093F89FED827B22462B468DED85
:10C55000007B0EF08DF882468B4652465B46504675
:10C5600059460EF03BFA02460B46804689460EF0CD
:10C5700035FA424604460D464B46504659460EF0A3
:10C580002DFA75A3D3E90023CDE9020120462946FF
:10C590000EF024FA72A3D3E900230EF069F82246C4
:10C5A0002B460EF01BFA70A3D3E900230EF060F8BF
:10C5B00022462B460EF012FA6DA3D3E900230EF0AB
:10C5C00057F822462B460EF009FA6BA3D3E9002355
:10C5D0000EF04EF822462B460EF000FA68A3D3E97F
:10C5E00000230EF045F842464B460EF0F7F966A3DD
:10C5F000D3E90023CDE90401204629460EF0EEF9E7
:10C6000063A3D3E900230EF033F822462B460EF045
:10C61000E5F961A3D3E900230EF02AF822462B4660
:10C620000EF0DCF95EA3D3E900230EF021F82246D8
:10C630002B460EF0D3F95CA3D3E900230EF018F8D3
:10C6400022462B460EF0CAF959A3D3E900230EF077
:10C650000FF802460B46DDE904010EF009F8DDE9AA
:10C6600002230EF0BBF9DDE9004522462B460DF012
:10C67000FFFF42464B460EF0B1F922462B460DF025
:10C68000F7FF4DA3D3E9002304460D46DDE902017F
:10C690000EF0A4F922462B460DF0EAFF0B460246A7
:10C6A00080468946504659460DF0E2FF464B9E4271
:10C6B00004460D4600F38C80109B012B3BD00246B4
:10C6C0000B4600203F490EF0B3FA002406460F4601
:10C6D0002046294652465B46CDE90067CDE9020176
:10C6E00000940DF0C3FFDDE900AB02460B46404667
:10C6F00049460DF0BBFF52465B460EF06FF95246BD
:10C7000004460D465B46DDE902010EF067F90022A2
:10C710002E4B0DF0ADFF02460B46204629460DF08C
:10C72000A7FF32463B460EF059F952465B460DF0E4
:10C730009FFF04460D462046294607B0BDE8F08F0E
:10C74000182D4454FB21E93F075C143326A6813C95
:10C750000000000000000000D47ABF74702AFB3E85
:10C76000E9A7F0320FB8123F68108D1AF726303F54
:10C770001583E0FEC8DB573F93846EE9E326823FD2
:10C78000FE41B31BBAA1AB3F735360DBCB75F3BE65
:10C79000A69237A0887E143F0165F2F2D844433F49
:10C7A000280356C9226D6D3F37D60684F464963F40
:10C7B0007AFE10111111C13F635555555555D53F9E
:10C7C000FFFF2F3E0000F0BF2794E53F0000F03F41
:10C7D00010980EF099F82246CDE900012B4620462C
:10C7E00029460EF0FBF8DDE90023CDE902012046E1
:10C7F00029460DF03DFF02460B46DDE902010EF031
:10C8000017FA42464B460DF031FF02460B465046A2
:10C8100059460DF02BFF02460B460DF029FF02464C
:10C820000B46DDE900010DF021FF0446B81700F0CA
:10C830000200C0F101000D460EF066F802460B46FC
:10C84000204629460EF0CAF804460D4620462946E1
:10C8500007B0BDE8F08F504659460EF00BFE024679
:10C860000B46002004490EF0E3F904460D4662E74A
:10C8700054465D465FE700BF0000F03F0000000047
:10C880002DE9F04FD04A21F00043934285B0824613
:10C890008B460C4659D9CD4A934214D9CC4A93427F
:10C8A00009D9C1F313030343024600F0EA810B46A2
:10C8B0000DF0DEFE12E1AEA3D3E900230EF01EFB65
:10C8C000002840F0F381002CC0F20B81AAA3D3E929
:10C8D0000023504659460EF081F80B46BD490246EA
:10C8E00000200DF0C5FE0EF029FB01900EF00CF8B3
:10C8F000A3A3D3E9002306460F460EF06FF80246C5
:10C900000B46504659460DF0B1FE9FA3D3E90023D4
:10C9100080468946304639460EF060F806460F4696
:10C9200032463B46404649460DF0A0FE02460B46C5
:10C9300082468B46404649460DF098FE32463B46BD
:10C940000DF094FECDE9020109E0A34A934200F202
:10C95000F380A24A934240F2028100230193002215
:10C960009C4B504659460EF039F806460F46024693
:10C970000B46504659460EF031F885A3D3E9002303
:10C9800004460D460EF02AF883A3D3E900230DF0E8
:10C990006FFE22462B460EF021F881A3D3E9002337
:10C9A0000DF064FE22462B460EF018F87EA3D3E964
:10C9B00000230DF05DFE22462B460EF00FF87CA3FF
:10C9C000D3E900230DF052FE22462B460EF006F866
:10C9D0000022834B0DF04CFE8046894602460B46F2
:10C9E000304639460DF0FAFF02460B4600207D49DD
:10C9F0000DF03CFE064602460B460F4640464946B1
:10CA00000DF034FE3246804689463B465046594634
:10CA10000DF0E4FF02460B46002073490DF026FEA0
:10CA200002460B46404649460EF002F922462B4686
:10CA30000DF0D4FF019E02460B46002E40D0DDE9EA
:10CA4000026732463B460DF011FE52465B460DF042
:10CA5000C5FF32463B460DF009FE2B4622460DF03F
:10CA600005FE019B013306460F4600F0DD80019B69
:10CA7000012B00F0BF80019A531C392B4FEA02555D
:10CA800049D8019A132A00F3E9804FF4001343FABE
:10CA900002F452465B460DF0E9FDC4F17F570026D3
:10CAA00007F5401702460B46304639460DF0DEFDCD
:10CAB000824605EB010B5046594605B0BDE8F08FA4
:10CAC000504659460DF08AFF22462B460DF0CEFD0A
:10CAD00002460B46504659460DF0C8FD05B0BDE86C
:10CAE000F08F35A3D3E90023504659460DF0C0FD21
:10CAF000002200230EF0E4F9002840F0C5801EA3B8
:10CB0000D3E90023504659460DF068FF02460B4614
:10CB100000203649E5E652465B460DF0A7FD024689
:10CB20000B4600202E490DF0A1FD6B18194600227E
:10CB30002B4B0DF09BFDD1E72D4A934200F2BE80B6
:10CB400000290FA3D3E900237DDB0DF08FFD012326
:10CB50008046894601930CA7D7E90067E0E618A351
:10CB6000D3E900230DF084FD02460B46AEE700BF7B
:10CB7000EF39FAFE422E8640FE822B654715F73FBD
:10CB80000000E0FE422EE63F763C7935EF39EA3D83
:10CB90002DC3096EB7FD8ABE3952E686CACFD03E94
:10CBA000B7DBAA9E19CE143F8555FE19A0015A3F46
:10CBB000F41011111111A13F59F3F8C21F6EA50114
:10CBC0009C7500883CE4377E79684340412E86405E
:10CBD000FFFFEF7F0000E03F422ED63FFFFF8F3C7C
:10CBE0000000F03F00000840000018400000E0BFD7
:10CBF000B1A2F03F00223E4B504659460EF060F97C
:10CC0000002844D05046594600223A4B0DF030FDE2
:10CC100002460B46304639460DF028FD00224FF003
:10CC200040430DF0DBFE59E702460B46504659469D
:10CC30000DF01CFD00222F4B0DF0D0FE00222D4BDD
:10CC40000DF014FD4AE70DF013FD4FF0FF33804661
:10CC50008946019320A7D7E9006761E6019BC3F5E8
:10CC60007F740334230500220DF002FD02460B46BB
:10CC7000504659460DF0FAFC00221F4B0DF0F8FC0F
:10CC800016E70029BFF617AF00201C4926E73246F9
:10CC90003B46504659460DF0E9FC02460B460DF066
:10CCA000E7FC0022144B0DF0E3FC17E70CA3D3E9DB
:10CCB0000023104619460DF091FE0FE70AA3D3E9B1
:10CCC00000230DF08BFE002C02460B464FF00000B7
:10CCD000FFF61FAF074904E6763C7935EF39EABD28
:10CCE0009C7500883CE4377EFE822B654715F73F34
:10CCF0000000D0BF0000E03F0000F03F0000F0BFA8
:10CD0000F8B5C1F30A5304460D460E46174653BB09
:10CD100021F000460346334324D0374B00220DF068
:10CD20005DFE364B9F4204460D4616DBC1F30A53A7
:10CD30000E46363B3B4440F2FE7293421CDC002B15
:10CD40003CDC13F1350F2BDA4CF250339F4213DCED
:10CD5000002D21A1D1E9000139DB1FA3D3E9002374
:10CD60000DF03CFEF8BD40F2FF729342E2D1024664
:10CD70000B460DF07DFCF8BD002D19A1D1E9000195
:10CD800005DB17A3D3E900230DF028FEF8BD14A39B
:10CD9000D3E9002314A1D1E900010DF01FFEF5E74E
:10CDA00026F0FF4626F4E006363346EA03552046D1
:10CDB00029460022124B0DF011FEF8BD26F0FF4669
:10CDC00026F4E00646EA035520462946F8BD08A1A8
:10CDD000D1E90001C1E700BF59F3F8C21F6EA501F8
:10CDE0009C7500883CE4377E9C7500883CE437FEE7
:10CDF00059F3F8C21F6EA58100005043B03CFFFFFD
:10CE00000000903C10B5054C237833B9044B13B1A6
:10CE10000448AFF300800123237010BDB00200204E
:10CE2000000000002810020808B5034B1BB103499D
:10CE30000348AFF3008008BD00000000B4020020EA
:10CE400028100208154B002B08BF134B9D46A3F575
:10CE5000803A00218B460F461348144A121A05F0F7
:10CE6000FBF90F4B002B00D098470E4B002B00D046
:10CE700098470020002104000D000D48002802D032
:10CE80000C4811F044F910F0CBF92000290011F002
:10CE900032F911F039F900BF0000080000800120CC
:10CEA00000000000E9E0010838020020942A002078
:10CEB0000FE1010800000000F0B5214D2C6883B09F
:10CEC00014B1204603B0F0BD4FF492700AF0A4FFF5
:10CED0004FF0FF310446032000F096FE00B202F04E
:10CEE0006BFF4FF0FF310646022000F08DFE00B2CE
:10CEF00002F062FF31460246204608F045FC04F18C
:10CF0000D80600231A463046012108F0C5FA4FF032
:10CF1000FF31012000F078FE00B202F04DFF38270B
:10CF20004FF0050C02463346214604F1E000CDE9FE
:10CF3000007C05F023FD20462C6003B0F0BD00BF4F
:10CF4000CC0200202DE9F04104460F46FFF7B4FF64
:10CF500000F1E0050646284605F028FD082C18D00B
:10CF6000A4F10903012B0CD8D6F8E03028461B6A3F
:10CF70009847052805DCD6F8E0302846DB6908210B
:10CF800098473A46214610230D20BDE8F04102F0B3
:10CF9000F5BDD6F8E03028461B6A98470228F0DC39
:10CFA000D6F8E0302846DB6904219847E9E700BF5E
:10CFB00010B52DED028BFFF77FFF00F1E004204656
:10CFC00007F002F907EE900A2046F8EEE78A07F02C
:10CFD0000BF907EE900A2046B8EEE78A07F014F93D
:10CFE00068EE087A07EE100AE8EEA87AB8EEC77A7B
:10CFF000E7EE077AF5EE407AF1EE10FAB1EEE78A45
:10D0000006D4FDEEC87ABDEC028B17EE900A10BD77
:10D0100017EE900A0EF080FEF3E700BF08B5032874
:10D020001CD8DFE800F0140D0602BDE80840FFF749
:10D03000BFBFFFF741FFBDE80840E03007F0E4B8AC
:10D04000FFF73AFFBDE80840E03007F0CDB8FFF742
:10D0500033FFBDE80840E03007F0B6B8002008BD57
:10D0600008B518B1012808D0002008BDFFF724FF3B
:10D07000BDE80840E030FBF7B7BAFFF71DFFBDE899
:10D080000840E030FBF7D0BA10B50446FFF714FFB4
:10D090002146E030BDE8104006F09EBE08B500F025
:10D0A000D9FFFCF731F8BDE8084000F0E7BC00BF4D
:10D0B00008B500F0CFFFFCF76BF8BDE8084000F0C2
:10D0C000DDBC00BF08B500F0C5FF0EF04FFABDE8AB
:10D0D000084000F0D3BC00BF08B500F0BBFF0EF065
:10D0E000BFFDBDE8084000F0C9BC00BF08B500F0B6
:10D0F000B1FFFCF719F8BDE8084000F0BFBC00BF65
:10D1000008B500F0A7FF0EF0F5FBBDE8084000F001
:10D11000B5BC00BF08B500F09DFFFBF7A5FABDE860
:10D12000084000F0ABBC00BF08B500F093FF0EF064
:10D1300081FBBDE8084000F0A1BC00BF70B5049EB3
:10D1400096420C4624DB154653B9042A19D0022A0C
:10D1500010D110F001030DD102880A80184670BD6D
:10D1600010448A1810F8013D01F8013B8A42F9D1B8
:10D17000002070BD01462A46204604F0B3F8002086
:10D1800070BD10F00303F5D102680A60184670BD47
:10D190000846002105F060F84FF0FF3070BD00BF79
:10D1A0000830704728B1002902DB43688B4201DC5C
:10D1B000002070470844007A704700BF30B1002952
:10D1C00004DB43688B42C4BF40180272704700BF43
:10D1D000002B22DB002920DB70B546688E4219DB6C
:10D1E0005568761AEC1AB442A8BF3446002C11DBFD
:10D1F000054602F108060830AA420844224606EB1A
:10D20000030103D004F06EF8002070BD11F055FD4D
:10D21000002070BD4FF0FF3070BD4FF0FF30704701
:10D220004068704710B4141E10DB4268A2420DDB48
:10D2300033EA230328BF1346121B08309A422044C6
:10D24000A8BF1A465DF8044B05F006B85DF8044B1C
:10D25000704700BF10B443688B4200F108041846C1
:10D26000A8BF084632EA220128BF19461B1A994274
:10D270002044A8BF19465DF8044B00F0A3BA00BFD4
:10D2800070B5002BBCBF43689B1A002A0E4622DBF8
:10D2900044689918A1421EDC91421CDBDBB136F0D8
:10D2A000004118D05942B14213DAB34211DD0830BF
:10D2B000002E00EB020516DB9C1B2246A91928460E
:10D2C00011F0FBFC324628190021BDE8704004F043
:10D2D000C3BF002C00DA70BD224608300021BDE833
:10D2E000704004F0B9BF74429A192946281911F008
:10D2F000E4FC224628460021BDE8704004F0ACBFA3
:10D3000070B5054600206968490000F02BFA6B688B
:10D31000002B14DD0A4EEB1D02465C782411991F88
:10D32000345D94715C7804F00F04491B345DD47152
:10D330006C688C4202F1020203F10103EDDC70BD66
:10D3400010F50108002BBCBF43689B1A002A30DB94
:10D3500030B444689D18A54229DC954227DB33B3DD
:10D3600031F0004423D00029B8BF01EB032191FB29
:10D37000F3F403FB1414002C00F10800B8BFE41808
:10D3800002441444A242134411D0204604E0A242B5
:10D3900008460FD082420AD001461578007802F87C
:10D3A000010B01F8015B8B42F1D12046F2E730BC62
:10D3B000704770470C46EDE700B583B04FF0FF3380
:10D3C00000930023FFF704FF03B05DF804FB00BFE8
:10D3D0000146002000F0F6B930B5013A83B00446AA
:10D3E0000D460F2A14D8DFE802F01E15606A5A1E97
:10D3F00015532531424D74088C7A184600F02AFEE8
:10D40000072DCDE9000103DD6B4603CB2060616091
:10D4100003B030BD184600F08BFE002DC0B2F7DD22
:10D42000207003B030BD184600F082FE002DEFDD05
:10D430002070F6E7184600F07BFE012D83B2E7DD91
:10D44000C3F307232370607003B030BD184600F0AB
:10D450006FFE032DDCDDC0F30721C0F30742C0F3EC
:10D460000763E070A1706270237003B030BD18468E
:10D4700000F0F2FD032DCBDDA3070CBF2060206080
:10D4800003B030BD184600F0E7FD032DE3DCBFE735
:10D49000184600F04DFE012D03B2D1DCB8E7184666
:10D4A00000F046FE032DE7DCB2E7184600F040FE30
:10D4B000012DADDDE10780B209D42080A8E7184630
:10D4C00000F036FE012D80B2A2DDE207F5D5208006
:10D4D0009EE7184600F092FE032DCDDC98E7184633
:10D4E00000F0B8FD072DCDE9000191DD0DF1FF320F
:10D4F00004F1080312F8011F03F8011D9C42F9D141
:10D5000086E7184600F07AFE032DA4DC80E700BF12
:10D5100030B4141E07DB456808300A462044291B36
:10D5200030BCFFF759BF30BC704700BF00B5013AAF
:10D5300085B00F2A00F28880DFE802F01623303D24
:10D540004A56595C5F6265717480830800910123BB
:10D5500008220DEB0201FFF7F1FDDDE9020100F009
:10D560008DFA05B05DF804FB00910023012202A9A9
:10D57000FFF7E4FD9DF9080000F0BEFA05B05DF884
:10D5800004FB00910023012202A9FFF7D7FD9DF8BB
:10D59000080000F0B1FA05B05DF804FB009100232B
:10D5A000022202A9FFF7CAFDBDF9080000F0A4FAA3
:10D5B00005B05DF804FB00910023022202A9FFF7E9
:10D5C000BDFDBDF8080000F097FA05B05DF804FB5A
:10D5D00000910023042202A9FFF7B0FD029800F099
:10D5E0008BFA05B05DF804FB01230091BEE701232F
:10D5F0000091C8E700910123D2E700910123DCE705
:10D6000000910123E6E700910023042202A9FFF71D
:10D6100095FD029800F09CFA05B05DF804FB0091BE
:10D620000123F2E700910023042202A9FFF786FDFF
:10D63000029800F03BFA05B05DF804FB009100236E
:10D6400086E700910123EFE700208AE7131E09DB3C
:10D6500010B4446808300A461844E11A5DF8044BD7
:10D66000FFF764BF002000F047BA00BF02F054BAD1
:10D6700002F084BA05F010BAC11702F0B5B900BFC4
:10D6800002F0C6B902F0D6B902F044BA18B18188E6
:10D69000063002F0F9BC7047704700BF38B5044649
:10D6A0000C200D460AF0B8FB03212022446085605F
:10D6B0000180428038BD00BFD0B544000DF014F9A0
:10D6C000064660100F460DF01FF902460B46304625
:10D6D00039460DF0EBFB10B144F00100D0BD3046EF
:10D6E0003946BDE8D040FFF7D9BF00BF054B1B68E6
:10D6F0002BB15A688242FAD19A688A42F7D1184609
:10D70000704700BFD00200202DE9F041DFF85080C3
:10D71000D8F8004005460E46174614B910E02468B4
:10D7200074B163689D42FAD1A3689E42F7D138462E
:10D7300001F0D2FBE06801F077FDE760BDE8F08121
:10D74000384601F0C9FB10200AF066FBD8F800301B
:10D75000C760C0E901560360C8F80000BDE8F08169
:10D76000D0020020F8B50D1E074613DB02D1144C81
:10D770002046F8BDE81D0AF04FFB032201230446B2
:10D780008580028043802E469FB925440023AB71DB
:10D790002046F8BD11F06DFB064605460028E6D090
:10D7A00007300AF039FB03220123044686800280F9
:10D7B000438032463946A01D03F094FDE5E700BFE3
:10D7C000ECF5010870B50D1E12DD064605F10800E6
:10D7D0000AF022FB032202230280044645604380B4
:10D7E0002A463146083036B103F07CFD204670BD34
:10D7F000034C204670BD04F02FFD204670BD00BFD5
:10D80000E4F50108014B1860704700BF9801002043
:10D8100030B40E4D2A68044621460020930983EA5D
:10D82000D273534083EA121383EA9203520853409F
:10D8300042EAC37202F00103490843EA4000EDD115
:10D840008442E9D32A6030BC704700BF98010020B1
:10D8500000210148FFF786BFD4F8010800B583B066
:10D860000023ADF8043001218DF8040001A8FFF772
:10D8700079FF03B05DF804FB00B583B020B1002947
:10D8800002DB83888B4206DC00210A48FFF76AFF2F
:10D8900003B05DF804FB084400228379ADF804204E
:10D8A000012101A88DF80430FFF75CFF03B05DF89B
:10D8B00004FB00BFD4F8010870B50D46F0B1044672
:10D8C00081882DB1E9B92846BDE8704001F004BB5C
:10D8D000F1B10431124D0020FFF744FF831D0646CD
:10D8E000A288A11D184603F0FDFC0346A088AA8863
:10D8F0001844A91D03F0F6FC304670BD61B1084C18
:10D900000421AB8833B92046BDE8704001F0E4BA89
:10D91000034DD8E71944DEE7014C0821DAE700BFE0
:10D92000CCF60108808870472DE9F041054682B0A9
:10D93000841D204601A9FAF783FCAA88019B1444A0
:10D94000A34208D02B4F002630463946FFF7A6FEEB
:10D9500002B0BDE8F0810022002306460F460DF01C
:10D96000A5FAA0B1394630460DF0E8FA440060103F
:10D970000CF0CAFF02460B46304639460DF096FAC7
:10D980000028E1D044F0010002B0BDE8F08127F0AA
:10D990000045304629464FF0FF32174B34464FF0D2
:10D9A00001080DF0B5FA38B94FF0FF32124B30468E
:10D9B00029460DF0A3FAC0B118F0FF0FC2D1002222
:10D9C0004FF48013204629464FF001080DF0A0FACD
:10D9D00038B92046294600224FF480130DF070FA22
:10D9E00028B118F0FF0FBDD0ACE78046E4E78046D1
:10D9F000F7E700BF0000F87FFFFFEF7F0B46111E27
:10DA000011DD10B48488002BBCBF1B1923EAE3731B
:10DA1000E41AA14200F10600A8BF214618445DF8AF
:10DA2000044BFFF79FBE00210148FFF79BBE00BFDC
:10DA3000D4F8010880B179B1002A0DDB10B58B88CC
:10DA400084881344A3420ADC841DA018063111F017
:10DA500018FA20B1001B10BD4FF0FF3070474FF097
:10DA6000FF3010BD08B5FFF7E5FF013018BF0120FA
:10DA700008BD00BFB0FA80F040097047D0B50F462E
:10DA800006460DF05BFA440060100CF03DFF324694
:10DA90003B460DF00BFA10B144F00100D0BD30460A
:10DAA0003946BDE8D040FFF7F9BD00BFD0B52DED38
:10DAB000028B08EE100A0CF039FFFDEEC87A06461C
:10DAC00017EE904A640060100F460CF01DFF0246EE
:10DAD0000B46304639460DF0E9F920B1BDEC028B1A
