:020000040800F2
:10800000008001202199010833EF010833EF0108B6
:1080100033EF010833EF010833EF010800000000DF
:10802000000000000000000000000000D96E010800
:1080300033EF0108000000007F6F0108DF6F0108C7
:1080400033EF010833EF010833EF010833EF010884
:1080500033EF010833EF010833EF010833EF010874
:1080600033EF010833EF010833EF010833EF010864
:1080700033EF010833EF010833EF010833EF010854
:1080800033EF010833EF010833EF0108000000006F
:1080900000000000000000000000000033EF0108B5
:1080A00033EF010833EF010833EF010833EF010824
:1080B00033EF010833EF010833EF010833EF010814
:1080C00033EF010833EF010833EF010833EF010804
:1080D00033EF010833EF010833EF0108000000001F
:1080E00033EF010833EF010833EF0108000000000F
:1080F00000000000000000000000000033EF010855
:108100000000000033EF010833EF010833EF0108EE
:10811000000000000000000000000000000000005F
:1081200033EF010833EF010833EF010833EF0108A3
:1081300033EF010800000000000000000000000014
:1081400000000000000000000000000033EF010804
:1081500033EF010833EF010833EF010833EF010873
:1081600033EF010833EF01080000000000000000B9
:1081700000000000000000000000000000000000FF
:108180000000000033EF01080000000000000000C4
:1081900033EF0108000000000000000000000000B4
:1081A00001F0FF01102A2BDB10F0070F08D010F8A8
:1081B000013B013A8B422DD010F0070F42B3F6D1AC
:1081C000F0B441EA012141EA014122F007047FF0C5
:1081D00000070023F0E80256083C85EA010586EA1C
:1081E000010685FA47F5A3FA87F586FA47F6A5FA58
:1081F00087F68EB9EED1F0BC01F0FF0102F0070264
:1082000032B110F8013B013A83EA010313B1F8D10E
:108210000020704701387047002D06BF35460338EF
:10822000073815F0010F07D1013015F4807F02BF28
:10823000013015F4C03F0130F0BC0138704700BF79
:108240002DE9F04F2DED028B0378202B83B00446EF
:108250008B4603D114F8013F202BFBD02B2B08BFFA
:10826000013494F800C0BCF12D0F6DD09FED587B08
:10827000B0EE478AF0EE678ABCF1300F51D0BCF106
:10828000000F00F09F80DFF85C91002600274FF080
:1082900000084FF0000A1EE012F0D0FF02460B4625
:1082A0002846CDE9002312F05FFFDDE9002312F03C
:1082B0000FFE424606460F464B4651EC180BBAF1EC
:1082C000000F03D013F0E4F841EC180B14F801CFC1
:1082D000BCF1000F14D0ACF13005092D42464B46DD
:1082E00030463946D8D9BAF1000F37D1BCF12E0F3C
:1082F00034D114F801CF4FF0010ABCF1000FEAD1DC
:108300003046394653EC182B12F098FF06460F46BC
:10831000CBF800403046394603B0BDEC028BBDE8D7
:10832000F08F637843F02003782BACD110225946AC
:10833000204615F07DFE12F017FF53EC182B12F0BB
:108340007DFF06460F46E5E79FED237B94F801C0CD
:10835000B0EE478AF0EE678A01348DE70CF0DF0C4F
:10836000BCF1450F0AD02378202B03D114F8013F2C
:10837000202BFBD013B11A4F0026CBE753EC182B60
:108380003046394612F05AFF237806460F46002B36
:10839000BED05946601C0A2215F04AFE1149024619
:1083A000002013F0ABFA02460B463046394612F075
:1083B00045FF06460F463046394603B0BDEC028BFA
:1083C000BDE8F08F002600279AE700BFAFF30080DA
:1083D000000000000000F03F000000000000F0BFBF
:1083E0000000F87F000024402DE9F04F002383B007
:1083F0001646002204460D4613F092F928B12D21AD
:1084000005F1004306F8011B1D460022002320460B
:10841000294613F07BF930B130220023327073709B
:1084200003B0BDE8F08F2046294614F043F813F05E
:10843000B5F948A3D3E9002307462946204601970A
:1084400013F082F940B145A3D3E900232046294621
:1084500013F066F9002860D1019A3D49002013F01D
:108460004DFA02460B462046294613F011F84FF00C
:10847000010B04460D46DFF8D8904FF0000A4FF08C
:1084800000082946204613F089F900F130033370C3
:10849000074612F069FE02460B462046294612F0B6
:1084A00015FD4B46424612F0C9FEBBF1010B04BF5D
:1084B0002E23737004460D4614BF01360236BAF1FE
:1084C000000F04D1002F18BF4FF0010AD9E70AF1BD
:1084D000010ABAF1100FD4DDBBF1000FD1DC16F8A0
:1084E000013C302B06F1FF3603D116F8013D302B4D
:1084F000FBD001982E2B08BF06F1FF36012807D0CC
:108500006523B11C737003B0BDE8F04F0BF048B8A1
:108510000023737003B0BDE8F08F002F11DD3A46E1
:108520000B49002013F0EAF90B4602462946204683
:1085300012F0AEFF012307F1010B04460D46019333
:1085400099E74FF0010BCDF804B094E7AFF300804A
:10855000000024408DEDB5A0F7C6B03E50EFE2D646
:10856000E41A4B440000000070B54FF0FF3005F0F6
:108570007BFC04466FF07F4005F076FC0646204603
:1085800012F0E2FD0C4B002212F058FE0446304679
:108590000D4612F0D9FD06A3D3E9002312F078FFAF
:1085A00002460B462046294612F092FC70BD00BFE1
:1085B0000000E0DFFFFF6F430000F03D000000001F
:1085C00008B50CF095FC12F0CFFD0D4B002212F017
:1085D00035FE09A3D3E9002312F030FE094B002237
:1085E00012F074FC084B002212F052FF13F0D6F880
:1085F00008BD00BFAFF300800000000000C8A94024
:108600000000503F0000794000803340000000002F
:1086100008B50CF07BFADFED0C7A07EE100A67EE76
:10862000277A17EE900A12F0B1FD05A3D3E90023D3
:1086300012F02EFF13F0B2F808BD00BFAFF30080B8
:10864000EA2E4454FB2119400000B443000000000E
:1086500008B50CF071FADFED0C7A07EE100A67EE40
:10866000277A17EE900A12F091FD05A3D3E90023B3
:1086700012F00EFF13F092F808BD00BFAFF30080B8
:10868000EA2E4454FB2119400000B44300000000CE
:10869000494A21F0004393422DE9704304460D46B8
:1086A0006EDC464A93420E4639DC3FA3D3E90023F1
:1086B00012F00EFC424B002213F050F800286FD14C
:1086C00022462B462046294612F0B8FD02460B46AC
:1086D0002046294614461D4613F0F4FA384B002272
:1086E000804689462046294612F0F2FB14F0B4F980
:1086F000334B002212F0ECFB02460B462046294683
:1087000012F0C6FE42464B4612F0E2FB00F0F4FACD
:10871000002E39DC01F100431946BDE87083294A77
:10872000934233DCB3F1804FCADD13F0CBFA22461B
:10873000804689462B462046294612F07FFD204B75
:10874000002212F0C5FB14F087F942464B4612F0A6
:10875000BFFB02460B460020194912F099FE424623
:108760004B4604460D464046494612F0B1FB0246D0
:108770000B462046294612F0ABFB02F089F8C7E70A
:1087800002460B4612F0A4FBBDE8708313F09AFA80
:1087900002F07EF806A3D3E9002312F099FBB7E7B5
:1087A00020462946BDE870839C7500883CE4377EEE
:1087B000EF39FAFE422EE63FFFFFEF7FFFFF2F3E2D
:1087C0000000F03F0000B0412DE9F84FC44B21F00C
:1087D00000469E4204460D468A460EDDC14B9E422F
:1087E00000F3B08000F0AB80BAF1000F40F3E880F6
:1087F0009FA1D1E90001BDE8F88FBB4B9E4200F379
:10880000B880A3F1DE739E4240F3A4804FF0FF3B9B
:1088100022462B462046294612F010FD02460B4602
:108820008046894612F00AFD93A3D3E90023064649
:108830000F4612F003FD92A3D3E9002312F048FB88
:1088400032463B4612F0FAFC8FA3D3E9002312F024
:108850003FFB32463B4612F0F1FC8DA3D3E90023E7
:1088600012F036FB32463B4612F0E8FC8AA3D3E90D
:10887000002312F02DFB32463B4612F0DFFC88A3AA
:10888000D3E9002312F024FB42464B4612F0D6FCFB
:1088900085A3D3E90023804689463046394612F045
:1088A000CDFC83A3D3E9002312F010FB32463B46F4
:1088B00012F0C4FC80A3D3E9002312F007FB324678
:1088C0003B4612F0BBFC7EA3D3E9002312F0FEFA74
:1088D00032463B4612F0B2FC7BA3D3E9002312F0F0
:1088E000F5FA32463B4612F0A9FCBBF1FF3F0246C7
:1088F0000B466AD04046494612F0EAFA7B4E2246C1
:108900002B4612F09BFC7A4B06EBCB064FEACB0BC7
:108910009B44DBE9002312F0D9FA22462B4612F0E1
:10892000D5FA02460B46D6E9000112F0CFFABAF1A9
:10893000000F0DDA01F100431946BDE8F88F002859
:108940003FF452AF22462B462046294612F0C0FA89
:10895000BDE8F88F5EA3D3E9002312F0B9FA654BA6
:10896000002212F0FBFE00283FF450AF20462946BB
:10897000EEE713F0A7F9604B9E4204460D4634DC47
:10898000A3F550239E4259DC02460B4612F0A0FA92
:10899000584B002212F09AFA00224FF0804306460C
:1089A0000F462046294612F093FA02460B463046FF
:1089B000394612F06DFD4FF0000B04460D4627E7D7
:1089C00045A1D1E90001BDE8F88F4046494612F0C3
:1089D0007FFA22462B4612F031FC02460B46204617
:1089E000294612F073FABDE8F88F444B9E421ADA1A
:1089F000434B002212F06AFA414B06460F46002212
:108A00002046294612F01AFC3A4B002212F060FA76
:108A100002460B463046394612F03AFD4FF0020B43
:108A200004460D46F4E602460B460020354912F096
:108A30002FFD4FF0030B04460D46E9E62D4B0022B7
:108A400012F044FA2B4B002206460F4620462946D8
:108A500012F03EFA02460B463046394612F018FD37
:108A60004FF0010B04460D46D2E600BFAFF3008085
:108A7000182D4454FB21F93F11DA22E33AAD903F1F
:108A8000EB0D76244B7BA93F513DD0A0660DB13F45
:108A90006E204CC5CD45B73FFF8300922449C23FAD
:108AA0000D5555555555D53F2F6C6A2C44B4A2BF72
:108AB0009AFDDE522DDEAD3F6D9A74AFF2B0B33F3A
:108AC000711623FEC671BC3FC4EB98999999C93FB2
:108AD0009C7500883CE4377E182D4454FB21F9BF77
:108AE000FFFF0F440000F07FFFFFDB3F00FF0108A6
:108AF00020FF01080000F03FFFFFF23F008003402D
:108B00000000F83F0000F0BFF8B5C1F30A57A7F224
:108B1000FF35132D02460B460C46064631DC002D70
:108B20001DDB354F2F4101EA070C5CEA000C2DD00C
:108B30002FA3D3E9002312F0CBF90022002312F077
:108B40000DFE48B1002C04DD4FF4801343FA05F507
:108B50002C4424EA0704002621463046F8BD24A30D
:108B6000D3E9002312F0B4F90022002312F0F6FD3D
:108B70000028F1D0002C35DB26432FD01F4C0026D7
:108B8000EAE7332D05DDB5F5806F24D01046194690
:108B9000F8BDA7F213474FF0FF3C2CFA07F7074246
:108BA000F4D013A3D3E9002312F092F9002200239A
:108BB00012F0D4FD0028CFD0002C09DD142D0FD0E9
:108BC0000123C5F1340503FA05F5AE1928BFE418F1
:108BD00026EA0706C0E712F07BF9F8BD3446BBE78A
:108BE0000134F5E700264FF00044B5E7AFF300800D
:108BF0009C7500883CE4377EFFFF0F000000F03FCB
:108C0000F8B5C1F30A57A7F2FF35132D02460B46FC
:108C10000C4606461FDC002D3DDB354F2F4101EA97
:108C2000070C5CEA000C1BD02FA3D3E9002312F041
:108C30004FF90022002312F091FD48B1002C04DA14
:108C40004FF4801343FA05F52C4424EA0704002668
:108C500021463046F8BD332D05DDB5F5806F2AD0AD
:108C600010461946F8BDA7F213474FF0FF3C2CFA07
:108C700007F70742F4D01CA3D3E9002312F028F928
:108C80000022002312F06AFD0028E1D0002C1EDB38
:108C900026EA0706DCE714A3D3E9002312F018F94B
:108CA0000022002312F05AFD0028D1D0002C05DB51
:108CB00000263446CCE712F00BF9F8BD24F000434F
:108CC0000C4A1E43002E18BF14460026C0E7142D80
:108CD00008D00123C5F1340503FA05F5AE1928BF04
:108CE000E418D5E70134D3E79C7500883CE4377E6F
:108CF000FFFF0F000000F0BF2DE9F04FD44B2DED2A
:108D0000028B994285B082468B4666DDD14B9942F3
:108D10000E4659DCD04B994240F3B4819FEDB87BAD
:108D20008DED027B4FEA215A0446AAF2FF38CB4B65
:108D3000C6F313069E4246F07F5500F3568145F474
:108D4000401520462946C64B002212F0BFF8C54BFD
:108D500004460D46002212F071FA22462B4612F00C
:108D60006DFAA246CDE9000141EC180BAB46002E8E
:108D700060D1002200232046294612F0C7FC0028BB
:108D800000F0A081B8F1000F00F0B981404612F068
:108D9000EBF99DA3D3E9002306460F4612F04EFAE5
:108DA000DDE9022312F094F899A3D3E900230446E5
:108DB0000D463046394612F041FA02460B4620462F
:108DC000294612F085F803E002460B4612F080F8BF
:108DD00005B0BDEC028BBDE8F08FA34B21F0004441
:108DE0009C420A4611DDA14B002212F08FFC0028A4
:108DF00000F09280002200239D49002012F048FBE1
:108E000005B0BDEC028BBDE8F08F9A4B9C4240F35D
:108E10009280994B1A449A4240F23481914B00223D
:108E200012F00CFA52465B4612F008FA41EC180BAD
:108E30004FF0000800224FF080435046594612F090
:108E400047F802460B465046594612F021FB0246AF
:108E50000B4606460F4612F0F1F96FA3D3E9002343
:108E600004460D4612F0EAF96DA3D3E9002312F08F
:108E70002FF822462B4612F0E1F96BA3D3E9002329
:108E800012F026F822462B4612F0D8F968A3D3E94F
:108E9000002312F01DF822462B4612F0CFF966A3EC
:108EA000D3E9002312F014F822462B4612F0C6F93B
:108EB00063A3D3E9002312F00BF822462B4612F0ED
:108EC000BDF961A3D3E9002312F002F822462B4634
:108ED00012F0B4F904460D46B8F1000F45D155EC37
:108EE000184B18EE102A2B4611F0F2FF32463B4683
:108EF00012F0A4F9024618EE100A0B46294611F0AA
:108F0000E5FF02460B465046594611F0DFFF05B01B
:108F1000BDEC028BBDE8F08F52465B465046594689
:108F200011F0D4FF02460B4612F0B2FA05B0BDECC8
:108F3000028BBDE8F08F514B002211F0C9FF0022D7
:108F4000002312F00BFC28B14D4B9C4202DC504632
:108F500059463DE752465B465046594612F06EF977
:108F6000404B002212F06AF9CBE7404612F0FCF8C1
:108F700027A3D3E900238046894612F05FF941EC2C
:108F8000170B53EC182B2046294655EC174B11F0C4
:108F90009FFF32463B4612F051F91BA3D3E9002351
:108FA00006460F464046494612F048F9DDE90223DD
:108FB00011F08EFF02460B463046394611F088FF0D
:108FC00002460B4651EC180B11F080FF52465B46EF
:108FD00011F07CFF02460B462046294611F076FF31
:108FE00005B0BDEC028BBDE8F08F45F40015C6F569
:108FF000801620462946B61008F10108A3E600BFF6
:109000000000000000000000763C7935EF39EA3DB1
:109010000000E0FE422EE63F44523EDF12F1C23F26
:109020009FC678D0099AC33FDE03CB966446C73FFC
:10903000AF788E1DC571CC3F599322942449D23FFD
:1090400004FA97999999D93F935555555555E53F48
:109050007982DA3FFFFFEF7FFFFF3F439DA00600CD
:109060000000F03F0000E03FFFFFEF3F0000F0BFD7
:10907000000050C3FFFF1F3E3C412D400000504305
:10908000FFFF8F3C3C4B00225046594611F020FF19
:109090000B15A3F2FF38B8F1000F04460D460E463B
:1090A00050DD52465B4611F011FF02460B46002090
:1090B000314911F00BFF22462B4612F0E9F9CDE9B8
:1090C000020134E626A3D3E900232046294612F004
:1090D000B5F802460B460020274911F0F7FEDDE9FE
:1090E000002312F0ABF806460F46B8F1000F09D185
:1090F00002460B462046294611F0E8FE68E60020AD
:10910000002165E6404612F02FF817A3D3E90023AB
:109110008046894612F092F815A3D3E900238246CF
:109120008B464046494612F089F8DDE9022311F0EA
:10913000CFFE02460B463046394611F0C7FE2246A6
:109140002B46DCE60C4B002211F0C0FE02460B461B
:109150005046594611F0BAFEADE700BFAFF30080AC
:10916000555555555555E53F0000E0FE422EE63F6A
:10917000763C7935EF39EA3D0000F03F0000000011
:1091800008B513F011F904A3D3E9002312F080F914
:1091900008BD00BFAFF30080EF39FAFE422EE63F74
:1091A0002DE9F043DFF8B4908BB004460D4601F092
:1091B000F3F899F90030013306460F462CD02246C9
:1091C0002B462046294612F0D3FA804620BB204683
:1091D000294612F077FD1FA3D3E9002312F0BEFA4F
:1091E000D0B1194A99F90030CDF820800321CDE99A
:1091F0000445CDE90245CDE9001293B113490020A1
:10920000022BCDE9060111D114F0B4FB2223036037
:10921000089B9BB9DDE90667304639460BB0BDE8CF
:10922000F0830B4B4FF06042CDE90623684614F003
:1092300049FA0028E8D0089B002BEBD014F09AFBE9
:10924000089B0360E6E700BF040E02080000F07F01
:10925000FFFFEF477DF8B98FCE3386402202002012
:109260002DE9F043DFF8F4808BB004460D4601F0A1
:1092700043F998F90030013306460F4616D02046D0
:10928000294614F019FA88B130A3D3E90023204607
:10929000294612F063FA8146002836D12DA3D3E97E
:1092A00000232046294612F03BFA20B930463946C1
:1092B0000BB0BDE8F08398F90030214ACDF820903A
:1092C000002000210426022BCDE90445CDE902450A
:1092D000CDE906010096019212D0684614F0F2F929
:1092E00070B1089B2BBBDDE90667304639460BB0F1
:1092F000BDE8F08313490020022BCDE90601ECD133
:1093000014F038FB22230360EBE70D4A98F9003094
:10931000019203210022CDE90445CDE902450091E7
:109320000892002BE6D1084B4FF06042CDE90623AE
:10933000D3E714F01FFB089B0360D4E7AFF3008072
:109340000C0E02080000F07FFFFFEF47EF39FAFE36
:10935000422E864051302DD5104987C02202002070
:109360002DE9F04F2DED028BDFF848B38FB00646A4
:109370000F4614461D4601F013FD9BF900A0BAF1FB
:10938000FF3F41EC180B3BD022462B462046294696
:1093900012F0EEF98146002832D132463B46304683
:1093A000394612F0E5F90090002840F0E1804FF0D6
:1093B00000084FF000093046394642464B4612F04D
:1093C000A5F920B342464B462046294612F09EF9A5
:1093D0000390002854D0009B0C930122B04B0492C0
:1093E000CDE90667CDE90845CDE90A890593BAF1CB
:1093F000000F6BD09FEDA47BB0EE478AF0EE678A3A
:1094000051EC180B0FB0BDEC028BBDE8F08F51ECA6
:10941000180B14F051F9824600286FD04FF0000865
:109420004FF0000951EC180B42464B4612F06EF912
:109430000028E5D03046394614F03EF90028DFD048
:109440002046294614F038F90028D9D09BF900307D
:10945000934A059204210022022BCDE90667CDE94B
:109460000845CDE90A8904910C9204D004A814F0AF
:1094700029F900282FD114F07DFA222303602AE075
:109480002046294614F018F90028B9D042464B4628
:109490002046294612F044F90028B1D00399804AA9
:1094A0009BF900300C910121CDE90667CDE9084513
:1094B000CDE90412002B78D1CDE90A8904A814F073
:1094C00001F9002877D00C9B5BB106E004A814F0EA
:1094D000F9F8002874D00C9B1BB114F04BFA0C9BCC
:1094E00003609DED0A7BB0EE478AF0EE678A51EC8F
:1094F000180B0FB0BDEC028BBDE8F08F304639463B
:1095000014F0DAF8002889D02046294614F0D4F85F
:10951000002883D053EC182B18EE100A194612F0CD
:1095200027F9002840F0918003239BF900A00493C1
:109530005B4B0C90CDE90667CDE908450593BAF180
:10954000000F42D19FED527B42464B463046394692
:109550008DED0A7B12F0E4F8002845D104A814F040
:10956000B1F80028AFD114F005FA22230360AAE76E
:10957000002200232046294612F0C8F800283FF4B4
:109580003FAF4849464BCDF8309000200122BAF158
:10959000020FCDE90667CDE90845CDE90A0104923D
:1095A000059393D141EC180B2AE73F490020022B89
:1095B000CDE90A0182D114F0DDF92123036082E7AD
:1095C00014F0D8F92123036085E79FED337B4246F1
:1095D0004B46304639468DED0A7B12F0A1F8E0B9D2
:1095E000BAF1020FBFD0B9E7304B0022204629461E
:1095F00011F024FE02460B46CDE9002314F06AF870
:10960000DDE9002312F082F8E0B9294B9BF900A0B4
:109610004FF06042CDE90A23E2E7244B00222046C6
:10962000294611F00BFE02460B46CDE9002314F04B
:1096300051F8DDE9002312F069F818B91A4B00223D
:10964000CDE90A239BF900A0CAE7154B9BF900B0AE
:10965000CDF830A00122CDE90667CDE90845CDE976
:109660000423BBF1000F3FF427AF42464B46404670
:10967000494611F00DFFBBF1020FCDE90A019AD066
:109680001CE700BFAFF30080000000000000F03FC7
:10969000000000E0FFFFEF47000000000000F07F47
:1096A000240E02080000F03F0000F0FF0000E03F41
:1096B000FFFFEFC7220200202DE9F84FC44E21F032
:1096C0000043B34204460D460DDD03F1404303F56C
:1096D0008013034340F0B980002940F3C08000208C
:1096E0000021BDE8F88FBB4EB34208DCBA4A934272
:1096F00000F3BA809CA1D1E90001BDE8F88F0029F0
:10970000C0F2708102460B460020B44911F0DEFB26
:10971000B34B002211F092FD04460D4613F09CF964
:1097200093A3D3E90023894680462946204611F0B9
:1097300085FD91A3D3E9002311F0CAFB22462B46F5
:1097400011F07CFD8EA3D3E9002311F0BFFB22466C
:109750002B4611F073FD8CA3D3E9002311F0B8FB65
:1097600022462B4611F06AFD89A3D3E9002311F0AC
:10977000ADFB22462B4611F061FD87A3D3E9002300
:1097800011F0A6FB22462B4611F058FD84A3D3E925
:10979000002382468B462046294611F04FFD82A3C6
:1097A000D3E9002311F092FB22462B4611F046FD2F
:1097B0007FA3D3E9002311F08BFB22462B4611F047
:1097C0003DFD7DA3D3E9002311F080FB22462B460B
:1097D00011F034FD814B002211F07AFB02460B465A
:1097E0005046594611F054FE42464B4611F026FDB4
:1097F000002682468B4632464B463046494611F09B
:109800001DFD02460B462046294611F05FFB3246FD
:1098100004460D464B464046494611F059FB024668
:109820000B462046294611F033FE02460B465046B1
:10983000594611F04DFB32464B4611F049FB0246AA
:109840000B4611F045FBBDE8F88F02460B4611F0C0
:109850003DFB02460B4611F01BFEBDE8F88F58A1F8
:10986000D1E90001BDE8F88F02460B4611F0E6FC95
:109870003FA3D3E9002306460F4611F0DFFC3EA3C9
:10988000D3E9002311F024FB32463B4611F0D6FC0D
:109890003BA3D3E9002311F019FB32463B4611F0FC
:1098A000CDFC39A3D3E9002311F012FB32463B462D
:1098B00011F0C4FC36A3D3E9002311F007FB3246B4
:1098C0003B4611F0BBFC34A3D3E9002311F000FBAD
:1098D00032463B4611F0B2FC31A3D3E90023804667
:1098E00089463046394611F0A9FC2FA3D3E900235D
:1098F00011F0ECFA32463B4611F0A0FC2CA3D3E960
:10990000002311F0E5FA32463B4611F097FC2AA3FA
:10991000D3E9002311F0DAFA32463B4611F08EFC0F
:109920002E4B002211F0D4FA02460B46404649461F
:1099300011F0AEFD22462B4611F080FC02460B468C
:1099400021A1D1E9000111F0C1FA02460B462046DF
:10995000294611F0BBFA02460B4603A1D1E90001EA
:1099600011F0B4FABDE8F88F182D4454FB21F93FEB
:1099700009F7FD0DE13D023F88B20175E0EF493F77
:109980003B8F68B52882A43F5544880E55C1C93F16
:109990007D6FEB0312D6D43F555555555555C53FF0
:1099A00082922EB1C5B8B33F59018D1B6C06E63FBC
:1099B000C88A599CE52A00404B2D8A1C273A03404F
:1099C000182D4454FB210940075C143326A6913C12
:1099D000FFFFEF3FFFFFDF3F0000603C0000F03F74
:1099E0000000E03F5C4B002211F072FA5B4B00225A
:1099F00011F024FC40A3D3E9002304460D4611F0E6
:109A00001DFC3FA3D3E9002311F062FA22462B4646
:109A100011F014FC3CA3D3E9002311F057FA2246BD
:109A20002B4611F00BFC3AA3D3E9002311F050FAB6
:109A300022462B4611F002FC37A3D3E9002311F094
:109A400045FA22462B4611F0F9FB35A3D3E9002352
:109A500011F03EFA22462B4611F0F0FB8046894673
:109A60002046294612F0F8FF2FA3D3E9002306462B
:109A70000F462046294611F0E1FB2DA3D3E9002330
:109A800011F024FA22462B4611F0D8FB2AA3D3E981
:109A9000002311F01DFA22462B4611F0CFFB28A31C
:109AA000D3E9002311F012FA22462B4611F0C6FB2F
:109AB000294B002211F00CFA02460B46404649465B
:109AC00011F0E6FC32463B4611F0B8FB1EA3D3E989
:109AD000002311F0FBF932463B4611F0F9F902463A
:109AE0000B4611F0F5F902460B4619A1D1E9000128
:109AF00011F0ECF9BDE8F88F09F7FD0DE13D023FEB
:109B000088B20175E0EF493F3B8F68B52882A43FDA
:109B10005544880E55C1C93F7D6FEB0312D6D43F23
:109B2000555555555555C53F82922EB1C5B8B33FD1
:109B300059018D1B6C06E63FC88A599CE52A0040F6
:109B40004B2D8A1C273A0340075C143326A6913C10
:109B5000182D4454FB2109400000F03F0000E03F75
:109B6000414A91422DE9F84304460D463EDD3F4A05
:109B700091420B4608DD02F17952914266DD0246C0
:109B800011F0A6F9BDE8F88301F1404202F5801218
:109B9000024357D0B1F1804F32DD024611F04EFB47
:109BA000334B002211F092F912F056FF22462B4659
:109BB000804689462046294611F08AF92246064603
:109BC0000F462B464046494611F082F902460B46A5
:109BD0000020274911F05CFC0B460246394630460E
:109BE00011F074F9BDE8F84300F052BE02460B468E
:109BF00011F06CF902460B4611F04AFCBDE8F883FF
:109C00001B4B002211F062F902460B4604460D463A
:109C100011F05EF922462B4606460F46204629469D
:109C200011F00CFB02460B463046394611F050F954
:109C300012F012FF22462B4611F04AF9BDE8F84314
:109C4000FFF75AB800200021BDE8F88300F020FE9D
:109C500003A3D3E9002311F03BF9BDE8F88300BF6B
:109C6000EF39FAFE422EE63FFFFFEF3FFFFFAF4125
:109C70000000F03F000000002DE9F04FC64B2DED35
:109C8000028B21F00049994583B004460D4615DD4D
:109C900009F1404909F58019034659EA030300F028
:109CA000058102460B4611F011F902460B4611F0F0
:109CB000EFFB03B0BDEC028BBDE8F08FB74B9945CD
:109CC0000E460FDCB9F1795F80F2708196A3D3E97B
:109CD000002311F0FDF8B24B002211F03FFD0028E7
:109CE00040F01C812046294611F0ECFF02460B464D
:109CF0000020AB4911F0EAF8AA4B002211F09EFABD
:109D00008BA3D3E9002304460D4611F097FA8AA3EA
:109D1000D3E9002311F0DCF822462B4611F08EFA2D
:109D200087A3D3E9002311F0D1F822462B4611F086
:109D300085FA85A3D3E9002311F0CAF822462B4601
:109D400011F07CFA82A3D3E9002311F0BFF8224678
:109D50002B4611F073FA80A3D3E9002311F0B8F871
:109D600022462B4611F06AFA7DA3D3E900238246EE
:109D70008B462046294611F061FA7BA3D3E90023E4
:109D800011F0A4F822462B4611F058FA78A3D3E933
:109D9000002311F09DF822462B4611F04FFA76A3CE
:109DA000D3E9002311F092F822462B4611F046FA2F
:109DB0007B4B002211F08CF8074688462046294646
:109DC00012F04AFEDFF8E0C14BEC18ABE1458246E9
:109DD0008B46CDE900AB00F38280DDE900239B4692
:109DE00011F076F84346894680463A4651EC180B06
:109DF00011F04EFB02460B464046494611F01EFA52
:109E00004FF0000A8046894652465B465046594606
:109E100011F014FA02460B462046294611F056F876
:109E2000524604460D465B46DDE9000111F050F84C
:109E300002460B462046294611F02AFB02460B46F5
:109E400011F046F802460B464DA1D1E9000111F090
:109E50003DF802460B464046494611F037F8524657
:109E600004460D465B465046594611F031F802460D
:109E70000B4645A1D1E9000111F028F802460B4636
:109E80002046294611F022F802460B463EA1D1E9B0
:109E9000000111F01BF8002E3FF70BAF01F100435A
:109EA000194603B0BDEC028BBDE8F08F38A3D3E9AF
:109EB000002311F0C3F932A3D3E9002306460F466D
:109EC0002046294611F0BAF902460B46304639467B
:109ED00010F0FEFF03B0BDEC028BBDE8F08F3A46F8
:109EE000434651EC180B11F0D3FA52465B4611F081
:109EF000A5F952465B4610F0EBFF02460B4610F008
:109F0000E7FF1FA3D3E9002310F0E0FF02460B4652
:109F10001FA1D1E9000110F0D9FFBCE72046294676
:109F2000C7E600BFAFF300809C7500883CE4377E35
:109F300009F7FD0DE13D023F88B20175E0EF493FB1
:109F40003B8F68B52882A43F5544880E55C1C93F50
:109F50007D6FEB0312D6D43F555555555555C53F2A
:109F600082922EB1C5B8B33F59018D1B6C06E63FF6
:109F7000C88A599CE52A00404B2D8A1C273A034089
:109F8000075C143326A6913C182D4454FB21E93F6D
:109F9000182D4454FB21F93FFFFFEF3FFFFFDF3F48
:109FA0000000F03F0000E03F3233EF3F02460B4637
:109FB00011F044F939A3D3E9002306460F4611F006
:109FC0003DF938A3D3E9002310F082FF32463B4627
:109FD00011F034F935A3D3E9002310F077FF3246AE
:109FE0003B4611F02BF933A3D3E9002310F070FFA7
:109FF00032463B4611F022F930A3D3E9002310F09A
:10A0000065FF32463B4611F019F92EA3D3E9002330
:10A0100010F05EFF32463B4611F010F92BA3D3E956
:10A020000023804689463046394611F007F929A3B6
:10A03000D3E9002310F04AFF32463B4611F0FEF808
:10A0400026A3D3E9002310F043FF32463B4611F02C
:10A05000F5F824A3D3E9002310F038FF32463B463D
:10A0600011F0ECF80C4B002210F032FF02460B46C8
:10A070004046494611F00CFA22462B4611F0DEF814
:10A0800022462B4610F024FF03B0BDEC028BBDE846
:10A09000F08F00BFAFF300800000F03F09F7FD0D27
:10A0A000E13D023F88B20175E0EF493F3B8F68B563
:10A0B0002882A43F5544880E55C1C93F7D6FEB03EC
:10A0C00012D6D43F555555555555C53F82922EB1A0
:10A0D000C5B8B33F59018D1B6C06E63FC88A599C31
:10A0E000E52A00404B2D8A1C273A0340000000005F
:10A0F0002DE9F84F994653425F4F134329F0004E24
:10A100004EEAD373BB42904604460D463DD84642C4
:10A11000064321F0004A4AEAD676BE4203468B4601
:10A1200033D809F1404606F5801616433DD04FEA74
:10A13000A97606F002065AEA030346EAD1762CD045
:10A140005EEA020335D0BE4546D0BA4531D0AAEB0F
:10A150000E0EBEF1747F4FEA2E5339DAB9F1000FBB
:10A1600046DA3C3344DA00200021012E58D0022E7A
:10A1700049D086B134A3D3E9002310F0A7FE34A35D
:10A18000D3E9002310F0A2FE05E022462B4640460C
:10A19000494610F09DFEBDE8F88F022E10D0032E28
:10A1A000F9D12DA1D1E90001F5E7BDE8F84FFEF79F
:10A1B0000BBBBBF1000F07DB29A1D1E90001EAE7E6
:10A1C00023A1D1E90001E6E727A1D1E90001E2E7F7
:10A1D00023A1D1E90001C8E7F24506F1FF3623D0FB
:10A1E000022E29D8254B03EBC606D6E90001D2E79B
:10A1F00042464B462046294611F04AF911F062FDCD
:10A20000FEF7E2FAB1E710A3D3E9002310F05EFEF7
:10A2100002460B460EA1D1E9000110F057FEBAE745
:10A2200001F100431946B6E7022E08D8144B03EBA0
:10A23000C606D6E90001AEE700200021ABE70CA17D
:10A24000D1E90001A7E700BF075C143326A6A13CB3
:10A25000182D4454FB210940182D4454FB2109C0FA
:10A26000182D4454FB21F93F182D4454FB21F9BF0C
:10A27000182D4454FB21E93F0000F07F58FF0108EE
:10A2800040FF0108000000002DE9F84343423E4A28
:10A29000034321F0004747EAD373934204460D4637
:10A2A00059D8974265D0394B9F420E4623DD384B33
:10A2B0009F423D462ADD02463B46394610F008FEE5
:10A2C00022463B4604460D4600202F4910F0FEFD75
:10A2D00002460B462046294611F0DAF8FEF70CFD3F
:10A2E0002C4B002210F0AAFF002E02DA01F10043ED
:10A2F0001946BDE8F88322A3D3E9002310F0E8FD56
:10A300000022002311F02AFA78BB3D4622462B4654
:10A310002046294610F0DCFD22462B468046894621
:10A3200010F08CFF22462B4604460D4600201649AD
:10A3300010F0CCFD02460B462046294611F0A8F845
:10A3400042464B4610F0C4FDFEF7D6FC114B0022EE
:10A3500010F074FFC8E702460B4610F0B7FD024646
:10A360000B4611F095F8BDE8F88320462946BDE874
:10A37000F8830022002311F08BF8BDE8F88300BFBA
:10A380009C7500883CE4377E0000F03FFFFF2F3EC5
:10A39000FFFFDF3F0000E03F2DE9F8434E4B21F087
:10A3A00000449C4206460F4648DC4C4B9C4218DD5C
:10A3B0004B4B9C4266DD4B4B9C427EDD4A4B9C42A4
:10A3C00049DD01339C4243D041A3D3E90023104629
:10A3D000194610F033FF06460F4630463946BDE8B1
:10A3E000F88311F06FFC02F06FFD404B00228046B5
:10A3F000894610F06DFDB4F1725F06460F46ECDB46
:10A4000042464B464046494610F018FF32463B460E
:10A4100004460D463046394610F05AFD02460B46BA
:10A420002046294611F034F8304B002210F050FD40
:10A4300006460F4630463946BDE8F88302460B46CD
:10A4400010F0FCFE06460F4630463946BDE8F8835C
:10A45000274B9842B8D83046394611F033FC254B8B
:10A46000002210F0EBFE00F047F8224B04460D46A8
:10A47000002210F0E3FE22462B4610F0DFFE0646D7
:10A480000F46AAE711F01EFC00F036F8194B002227
:10A4900004460D4610F0D2FE22462B4604460D46D9
:10A4A0000020144910F0F4FF02460B4620462946CE
:10A4B00010F00EFD06460F468FE711F003FC00F08A
:10A4C0001BF80C4B002210F0B9FE06460F4684E73D
:10A4D0009C7500883CE4377EFFFFEF7F422ED63F1D
:10A4E000FFFF3540412E8640CD3386400000F03FCF
:10A4F0007DF8B98F0000E03F2DE9F04FDA4F2DEDE8
:10A50000028B21F00042BA4283B004460D464FEA66
:10A51000D17612D9D54FBA4229D9C1F313030343D7
:10A52000024640F05481002E00F0EB800020002114
:10A5300003B0BDEC028BBDE8F08FCD4B9A4253D8EF
:10A54000CC4B9A4200F2E480B1A3D3E9002310F08F
:10A55000BFFCC94B002211F001F9002800F0D8809F
:10A56000C54B20462946002210F0B2FCCBE0AAA33E
:10A57000D3E9002311F0F2F8002840F03081A8A3BD
:10A58000D3E900232046294611F0CAF80028CDD18E
:10A59000BA49A5A3D3E9002301EBC6062046294604
:10A5A00010F04CFED6E9002310F092FC11F0F6F802
:10A5B000019010F0D9FD9EA3D3E9002306460F4673
:10A5C00010F03CFE02460B462046294610F07EFC69
:10A5D00099A3D3E90023804689463046394610F0D6
:10A5E0002DFE41EC180B19E0A54B9A42D0D8A54B93
:10A5F00003EBC603D3E9002310F068FCA24BF20082
:10A60000134493ED007BC6F1010AAAEB06038046D2
:10A6100089460193B0EE478AF0EE678A53EC182B17
:10A620004046494610F052FC02460B4682468B4695
:10A6300010F004FE82A3D3E9002304460D4610F077
:10A64000FDFD81A3D3E9002310F040FC22462B46F8
:10A6500010F0F4FD7EA3D3E9002310F039FC22466C
:10A660002B4610F0EBFD7CA3D3E9002310F02EFC69
:10A6700022462B4610F0E2FD79A3D3E9002310F027
:10A6800027FC22462B4610F0D9FD02460B465046C9
:10A69000594610F01BFC019B0F46064654465D468A
:10A6A00001463A46002B6CD032463B46504659464E
:10A6B00010F0C4FD32463B4604460D4600204FF0E4
:10A6C000804110F003FC02460B462046294610F05C
:10A6D000DFFE02460B4651EC180B10F0F7FB42462A
:10A6E0004B4610F0F3FB02460B460020624910F087
:10A6F000EDFB019A6FF47F739A4278DB044601EB1D
:10A7000002552046294603B0BDEC028BBDE8F08F10
:10A7100022462B462046294610F090FD48A3D3E957
:10A72000002306460F4610F089FD47A3D3E9002316
:10A7300010F0CCFB32463B4610F080FD44A3D3E939
:10A74000002310F0C5FB32463B4610F077FD42A3D4
:10A75000D3E9002310F0BAFB32463B4610F06EFD01
:10A760003FA3D3E9002310F0B3FB32463B4610F081
:10A7700065FD02460B462046294610F0A7FB0A4617
:10A780000146914688460A464B462046294610F027
:10A7900055FD002206460F464FF08043404649468D
:10A7A00010F094FB02460B463046394610F070FE1E
:10A7B00022462B4610F08AFB02460B4600202E490B
:10A7C00010F084FB03B0BDEC028BBDE8F08F0B46AC
:10A7D00010F07EFB03B0BDEC028BBDE8F08F0CA344
:10A7E000D3E900231046194610F028FD8BE7019BA2
:10A7F00003F57A7A01EB0A53194600224FF0B87339
:10A8000010F01CFD03B0BDEC028BBDE8F08F00BF63
:10A810009C7500883CE4377EEF39FAFE422E864074
:10A8200051302DD5104987C0FE822B654715F73F63
:10A830000000E0FE422EE63F763C7935EF39EA3DF6
:10A84000D0A4BE726937663EF16BD2C541BDBB3E36
:10A850002CDE25AF6A56113F93BDBE166CC1663F14
:10A860003E5555555555C53F412E8640FFFFEF7F5C
:10A87000422ED63FFFFF2F3E0000F03F70FF010841
:10A88000B1A2F03F80FF010890FF01080000000026
:10A890002DE9F04F2DED028BB1F5801F83B00246FC
:10A8A0000B460E4658DA21F00044044300F0FB80CA
:10A8B0000029C0F23781DC4B002210F0BFFC0E46AD
:10A8C0000B46DA498E4202466FF0350E49DCC6F37C
:10A8D000130505F5152707F6647707F4801787F049
:10A8E0007F5C8CF4401C3415D14B10464CEA0501BA
:10A8F0000022A4F2FF34744410F0E8FAAB1CC3F356
:10A900001303022B04EB175482468B464FF00002D0
:10A9100030DC002310F0FAFE002800F0CF80002C7D
:10A9200000F05681204610F01FFCABA3D3E90023B2
:10A9300006460F4610F082FCA9A3D3E90023044683
:10A940000D463046394610F079FC02460B4620464B
:10A95000294610F0BDFA08E0B4498E424FF0000ECF
:10A96000B5DD1046194610F0B3FA03B0BDEC028B0A
:10A97000BDE8F08F4FF0804310F0AAFA02460B4674
:10A980005046594610F084FD02460B46204643ECE3
:10A99000182B10F0E9FB53EC182B06460F4651EC30
:10A9A000180BCDE9006710F049FC02460B468046C3
:10A9B000894610F043FC8CA3D3E9002306460F46DA
:10A9C00010F03CFC8AA3D3E9002310F081FA324650
:10A9D0003B4610F033FC88A3D3E9002310F078FA4B
:10A9E00032463B4610F02AFC85A3D3E9002310F041
:10A9F0006FFA42464B4610F021FC83A3D3E90023B3
:10AA0000804689463046394610F018FC80A3D3E9C9
:10AA1000002310F05DFA32463B4610F00FFC7EA397
:10AA2000D3E9002310F054FA32463B4610F006FCFE
:10AA30000B4602464946404610F04AFAA5F5C223A5
:10AA4000C5F5D725A3F27A4351351D43002D06469F
:10AA50000F4659DD774B00225046594610F0EEFB69
:10AA600052465B4610F0EAFB80468946002C60D1D6
:10AA700042464B463046394610F02AFA53EC182B22
:10AA800010F0DCFB02460B464046494610F01EFA29
:10AA900002460B465046594610F018FA03B0BDEC7A
:10AAA000028BBDE8F08F002200236349002010F0E4
:10AAB000EFFC03B0BDEC028BBDE8F08F58A3D3E9E7
:10AAC00000235046594610F0B9FB02460B460020C1
:10AAD000584910F0FBF9524606460F465B46504671
:10AAE000594610F0ABFB02460B463046394610F093
:10AAF000A5FB06460F46002C52D102460B46504697
:10AB0000594610F0E3F930E7002C40F097800246F8
:10AB10000B465046594610F0D9F953EC182B10F05B
:10AB20008DFBB5E710F0D2F90022002310F0B0FC45
:10AB30001BE729A3D3E90023DDE9000110F07EFB28
:10AB400042464B4604460D463046394610F0C0F9A1
:10AB500053EC182B10F072FB21A3D3E90023064617
:10AB60000F46DDE9000110F069FB02460B46304656
:10AB7000394610F0ADF902460B464046494610F002
:10AB8000A5F952465B4610F0A1F902460B46204655
:10AB9000294610F09BF903B0BDEC028BBDE8F08FA5
:10ABA000204610F0E1FA0CA3D3E900238046894641
:10ABB00010F044FB0AA3D3E9002304460D464046A7
:10ABC000494610F03BFB02460B4630463946D6E775
:10ABD00000200021C9E600BF0000E0FE422EE63F53
:10ABE000763C7935EF39EA3D44523EDF12F1C23FFF
:10ABF000DE03CB966446C73F599322942449D23F43
:10AC0000935555555555E53F9FC678D0099AC33F92
:10AC1000AF788E1DC571CC3F04FA97999999D93FA9
:10AC2000555555555555D53F00005043FFFFEF7F13
:10AC30000000F03F0000E03F000050C3DDE9008964
:10AC40000DA3D3E900234046494610F0F7FA3246F7
:10AC50003B4604460D465046594610F037F953EC32
:10AC6000182B10F0EBFA06A3D3E9002306460F4693
:10AC7000A5E700BFAFF300800000E0FE422EE63FF4
:10AC8000763C7935EF39EA3DB1F5801F2DE9F8437F
:10AC900004460D460B4619DA21F00042024359D012
:10ACA00000295FDB3A4B002210F0C8FA394A0D4602
:10ACB0002B46934204466FF035010CDD22462B46AD
:10ACC0002046294610F004F9BDE8F883314A934242
:10ACD0004FF00001F2DC1815A0F2FF300844C70F56
:10ACE00000EBD070C3F3130610F03EFAC7F57F7384
:10ACF000033346EA03550F46064629462046FFF72A
:10AD0000C7FD1DA3D3E90023804689463046394656
:10AD100010F094FA1AA3D3E9002304460D464046E6
:10AD2000494610F08BFA02460B462046294610F0A1
:10AD3000CFF815A3D3E9002304460D463046394623
:10AD400010F07CFA02460B462046294610F0C0F867
:10AD5000BDE8F883002200230F49002010F098FB83
:10AD6000BDE8F883024610F0B1F80022002310F08D
:10AD70008FFBA9E7AFF30080362BF111F3FE593DAD
:10AD80000EE526157BCBDB3F00609F501344D33F7D
:10AD900000005043FFFFEF7F000050C300000000A1
:10ADA0002DE9F04F2DED0A8B23F0004B1F469A46FC
:10ADB0005BEA020389B03DD0164694466E4A21F004
:10ADC0000048904504460D46894603462BDC38D0A2
:10ADD000934528DC684A934522D0B9F1000F3BDB4C
:10ADE00000220092BCF1000F52D1634A934500F05B
:10ADF0009D80624A934500F0AB80BAF1804F00F02D
:10AE0000D4845F4A924543D1B9F1000F40DB20461C
:10AE1000294609B0BDEC0A8BBDE8F04F11F01CBE0D
:10AE2000BCF1000FD9D008F1404808F5801858EA65
:10AE3000030309D15149002009B0BDEC0A8BBDE8DC
:10AE4000F08F08B9C345C5DD4E4809B0BDEC0A8B8B
:10AE5000BDE8F04F12F038BC4B4A93457FDCA2F1BD
:10AE6000547293450FDD4FEA2B52A2F2FF32142A9F
:10AE700040F3A384C2F134022CFA02F000FA02F289
:10AE8000624500F0EC8400220092BCF1000FB0D0CB
:10AE900020462946029310F015FF029B3BBBB8F1F8
:10AEA000000F04D0354B29F040429A421FD1BAF12D
:10AEB000000F05DA02460B460020304910F0E8FA90
:10AEC000B9F1000FB8DA009B08F1404808F5801886
:10AED00058EA030340F0968402460B461046194692
:10AEE0000FF0F4FF02460B4610F0D2FAA4E7009AE6
:10AEF0004FEAD973013B0693134333D0234B9B4551
:10AF000048DD03F104739B45214B40F3CF83984503
:10AF100040F35D83BAF1000F40F35D8314A3D3E9DE
:10AF200000231046194610F089F985E708F14042E0
:10AF300002F5801213433FF47DAF154B984540F363
:10AF40007783BAF1000FC0F246833046394673E783
:10AF5000BAF1000FC0F22184204629466CE7022294
:10AF600000923FE722462B46B8E700BFAFF30080D0
:10AF70009C7500883CE4377E0000F07F0000F03FC5
:10AF80000000E03FC4030208FFFF3F430000E04130
:10AF9000FFFFEF3FE84B09EA0303002B40F0FB8380
:10AFA000E64B002210F04AF96FF0340588464FEA6C
:10AFB0002853E34CC8F31302A3F2FF3342F07F5847
:10AFC0005D19A242079548F4401840F3D383DD4B46
:10AFD0009A4240F320849FEDC07BB0EE47BAF0EE7A
:10AFE00067BAB0EE47CAF0EE67CA9FEDBD7B013588
:10AFF00054EC173B0795A8F580184FF0000944EC76
:10B00000183B1A464146234682460FF05FFF53EC39
:10B01000182B04460D46504641460FF059FF024694
:10B020000B460020C84910F033FA45EC1A4B41ECAE
:10B03000190B51EC1A0B53EC192B10F0FFF8C34607
:10B040004FEA680848F0005808F5002303EB0905AB
:10B050000A4600230146CDE902120293DDE9028986
:10B060000024CDE904122B4622464046494610F002
:10B07000E5F802460B4651EC1A0B0FF027FF41ECA6
:10B08000170B53EC182B2046294655EC174B0FF0A5
:10B090001DFF02460B46504659460FF017FF424629
:10B0A0004B4610F0CBF802460B46204629460FF0DF
:10B0B0000DFF53EC192B10F0C1F8DDE904AB044689
:10B0C0000D4652465B465046594610F0B7F886A3E7
:10B0D000D3E9002345EC1A4B04460D4610F0AEF8B8
:10B0E00083A3D3E900230FF0F3FE22462B4610F092
:10B0F000A5F881A3D3E900230FF0EAFE22462B46F0
:10B1000010F09CF87EA3D3E900230FF0E1FE224665
:10B110002B4610F093F87CA3D3E900230FF0D8FE60
:10B1200022462B4610F08AF879A3D3E900230FF0CA
:10B13000CFFE22462B4604460D461046194610F017
:10B140007DF802460B462046294610F077F8424625
:10B1500004460D464B4650465946CDE904AB0FF028
:10B16000B7FE53EC1A2B10F069F822462B460FF06D
:10B17000AFFE424604460D464B464046494610F057
:10B180005DF845EC194B714B002282468B460FF05F
:10B190009FFE53EC192B0FF09BFE029C0D4622469E
:10B1A0002B464046494610F049F8684B8046894690
:10B1B0000022204629460FF089FE52465B460FF0DA
:10B1C00085FE02460B4651EC190B0FF07FFEDDE9C0
:10B1D000042310F033F849EC188B22468046894648
:10B1E0002B4651EC1A0B10F029F802460B4640464C
:10B1F00049460FF06DFE82468B4652465B4651EC47
:10B20000180B0FF065FE029C43A3D3E900232046F0
:10B210000D4610F013F853EC182B80468946204653
:10B2200029460FF053FE02460B46504659460FF092
:10B230004DFE3BA3D3E9002310F000F849EC198B35
:10B2400039A3D3E9002380468946204629460FF0DA
:10B25000F5FF02460B46404649460FF039FE53ECD7
:10B260001C2B0FF035FE824607988B460FF07CFFB3
:10B270005246804689465B4651EC190B0FF028FE7A
:10B2800053EC1B2B0FF024FE42464B460FF020FEE2
:10B29000029C42464B4620460D460FF017FE53ECEB
:10B2A0001B2B0FF013FE53EC192B0FF00FFE024671
:10B2B0000B46504659460FF009FE82468B46009BCE
:10B2C000069A013B134340F0AC819FED197BB0EE31
:10B2D000479AF0EE679A3BE0000000000000000093
:10B2E000000000000000F03FEF4E454A287ECA3FB4
:10B2F00065DBC9934A86CD3F01411DA96074D13FEA
:10B300004D268F515555D53FFFAB6FDBB66DDB3FFB
:10B31000033333333333E33F000000E009C7EE3F2C
:10B32000FD033ADC09C7EE3FF5015B14E02F3EBE9A
:10B33000000000000000F0BF0000F07F000040436C
:10B340008E98030079B60B000000F03F0000084023
:10B350000023CDE900670093DDE9008930464246CD
:10B3600039464B460FF0B2FD22462B460FF066FFE2
:10B3700032463B4606460F46504659460FF05EFFA2
:10B3800002460B46304639460FF0A2FD4246824641
:10B390008B464B46204629460FF050FF06460F4687
:10B3A0003B465046594632460FF092FDBA4B994201
:10B3B00004460D46884640F3118101F13F4303F5F1
:10B3C000E003034340F010829DA3D3E900235046DD
:10B3D00059460FF07DFD324641EC180B3B462046A6
:10B3E00029460FF073FD02460B4651EC180B10F086
:10B3F000B5F9002840F0F881C8F30A534FF48012E1
:10B40000A3F2FE3342FA03F34344A449C3F30A52BE
:10B41000A2F2FF3241FA02FCC3F3130523EA0C0146
:10B42000C2F1140445F48015B8F1000F0B4645FA3B
:10B4300004F102914FF00000B8BF49420246B8BF84
:10B440000291304639460FF041FD06460F463B4615
:10B450005046594632460FF03BFD029B1B050093B8
:10B460000D46002478A3D3E90023204629460FF097
:10B47000E5FE3246804689463B46204629460FF087
:10B4800025FD02460B46504659460FF01FFD70A39E
:10B49000D3E900230FF0D2FE6FA3D3E900230646C1
:10B4A0000F46204629460FF0C9FE02460B4630469D
:10B4B00039460FF00DFD06460F4632463B464046E4
:10B4C00049460FF005FD42464B460D4604460FF037
:10B4D000FDFC02460B46304639460FF0F7FC2B4682
:10B4E00082468B462246294620460FF0A7FE5CA3E3
:10B4F000D3E9002306460F460FF0A0FE5AA3D3E976
:10B5000000230FF0E3FC32463B460FF097FE58A3B2
:10B51000D3E900230FF0DCFC32463B460FF08EFEF1
:10B5200055A3D3E900230FF0D1FC32463B460FF080
:10B5300085FE53A3D3E900230FF0CAFC32463B46F5
:10B540000FF07CFE02460B46204629460FF0BEFC5B
:10B5500006460F4632463B46294620460FF06EFE11
:10B560000022804689464FF08043304639460FF02E
:10B57000ADFC02460B46404649460FF089FF524655
:10B5800006460F465B46294620460FF057FE5246B8
:10B590005B460FF09DFC02460B46304639460FF0E5
:10B5A00095FC2B4622460FF091FC02460B460020EC
:10B5B0003B490FF08BFC009D0D44B5F5801FC0F298
:10B5C0004A81294653EC192B0FF038FE34E4BAF1C6
:10B5D000000FFFF6A3AC002000212DE4DFF8C8C067
:10B5E00021F00043634540F3F7802E4B0B440343A7
:10B5F0000AD132463B460FF069FC52465B4610F0DA
:10B60000A3F800283FF4F8AE1FA3D3E9002351ECC0
:10B61000190B0FF013FE1CA3D3E900230FF00EFE4D
:10B620000AE49FED1B7BB0EE479AF0EE679A8FE637
:10B63000BAF1000FCFDA304607F10041FFF7FCBB4B
:10B64000FE822B654715973C00000000432EE63F25
:10B65000EF39FAFE422EE63F396CA80C615C20BE41
:10B66000D0A4BE726937663EF16BD2C541BDBB3E08
:10B670002CDE25AF6A56113F93BDBE166CC1663FE6
:10B680003E5555555555C53F59F3F8C21F6EA50196
:10B69000000000000000F03FFFFF8F40FFFF0F00A1
:10B6A0000000F03F00346F3FFFCB904098458EDBA9
:10B6B000894B98453FF72EAC874B00220FF006FCD4
:10B6C00071A3D3E9002304460D460FF0B7FD70A324
:10B6D000D3E9002382468B46204629460FF0AEFD73
:10B6E0007E4B804689460022204629460FF0A6FD63
:10B6F00002460B4668A1D1E900010FF0E7FB2246A4
:10B700002B460FF09BFD02460B46002074490FF0BC
:10B71000DDFB22462B4604460D46104619460FF027
:10B720008DFD02460B46204629460FF087FD5CA39F
:10B73000D3E900230FF082FD02460B4640464946FE
:10B740000FF0C4FB804689465046594642464B4658
:10B750000FF0BEFB002452465B4620460D460FF01C
:10B76000B5FB02460B46404649460FF0AFFB82460A
:10B770008B46A4E59FED4C7BB0EE47BAF0EE67BA7E
:10B78000B0EE47CAF0EE67CA9FED497B4FF0000963
:10B7900054EC173B33E4002509E422462B464E497E
:10B7A00000200FF075FEFFF747BB22462B462046D0
:10B7B00029460FF043FDFFF73FBBBCF1000F3ED120
:10B7C000C2F114024BFA02F000FA02F25A4551D0CB
:10B7D000CDF800C0FFF70DBB414A934251DCDDE9D3
:10B7E0000012009102913CE633A3D3E9002351EC0F
:10B7F000190B0FF023FD30A3D3E900230FF01EFD3A
:10B80000FFF71ABB009B012B7FF416AB01F100433D
:10B810001946FFF711BB9FED2A7BB0EE47BAF0EE59
:10B8200067BA9FED297BB0EE47CAF0EE67CA9FED7D
:10B83000287B4FF4802954EC173BFFF7E0BB2046F0
:10B840002946009310F03EFA009B002B7FF48AAB50
:10B850000093FFF724BB029A01F082FDB2E600F0EC
:10B860000100C0F102020092BCF1000F3FF4C1AA36
:10B87000FFF70EBB00F00100C0F102020092FFF7DB
:10B88000B8BA1B15BAE500BF000000604715F73FC6
:10B8900044DF5DF80BAE543E555555555555D53FD3
:10B8A000FE822B654715F73F0000000000000000F6
:10B8B000000000000000F03F9C7500883CE4377EEB
:10B8C0000000004003B8E23F06D0CF43EBFD4C3E02
:10B8D000000000000000F83F0000F03F0000D03FF3
:10B8E0000000E03F000000002DE9F04FD84B2DEDA7
:10B8F000048B21F000459D4289B006460F46144650
:10B9000040F38880D34B9D428B4629DC0029C2A39B
:10B91000D3E9002340F3CD810FF0D8FACE4B9D42FE
:10B9200006460F4600F08F80BDA3D3E900230FF039
:10B93000CDFA02460B46C4E90023304639460FF0E3
:10B94000C5FAB7A3D3E900230FF0C0FAC4E9020196
:10B950004FF0010A504609B0BDEC048BBDE8F08FF2
:10B96000BE4B9D4240F39280BD4B9D4260DC4FEA4E
:10B97000255AAAF2164AA5EB0A510F460FF00EFF00
:10B980000FF0F2FB804689463046394642464B4628
:10B99000CDE902890FF09AFAB24B00220FF04EFC6B
:10B9A0000F4606460FF0FAFE05460FF0DDFB024695
:10B9B0000B4630463946CDE904230FF087FAA94BF0
:10B9C00000220FF03BFC02460B46CDE90623002285
:10B9D00000230FF09BFE002800F06981002D0CBFB2
:10B9E00001230223A04A019202215246009102A89B
:10B9F000214600F0A1FBBBF1000F8246AADA626883
:10BA0000E36802F1004203F10043C0F1000A626002
:10BA1000E3609FE74FF0000A002200235046C4E98C
:10BA20000067C4E9022309B0BDEC048BBDE8F08FC8
:10BA300002460B460FF04AFA4FF0000AC4E9020131
:10BA4000C4E9000186E778A3D3E900230FF03EFAAA
:10BA500077A3D3E9002306460F460FF037FA0246D4
:10BA60000B46C4E90023304639460FF02FFA70A385
:10BA7000D3E900230FF02AFA4FF0010AC4E90201CA
:10BA8000504609B0BDEC048BBDE8F08F10F01AF9F8
:10BA900069A3D3E9002306460F460FF0CFFB734B93
:10BAA00000220FF015FA0FF079FE82460FF05CFBD2
:10BAB00059A3D3E90023804689460FF0BFFB024615
:10BAC0000B46304639460FF001FA55A3D3E900235F
:10BAD00006460F46404649460FF0B0FBBAF11F0F2D
:10BAE00049EC198B47EC186B804689460BDC604BA0
:10BAF0000AF1FF3253F82230AB4204D002460B4623
:10BB0000304639467FE042464B4651EC180B0FF069
:10BB1000DDF90A46C2F30A53C3EB1553102B014655
:10BB2000064617464FEA255540F3A4803EA3D3E9C5
:10BB3000002351EC190B0FF081FB59EC188B0646D2
:10BB40000F4632463B4618EE100A49460FF0BEF942
:10BB500041EC180B404653EC182B49460FF0B6F950
:10BB600032463B460FF0B2F931A3D3E90023064633
:10BB70000F4651EC190B0FF061FB32463B460FF0BC
:10BB8000A5F98046894642464B4651EC180B0FF00A
:10BB90009DF90A46C2F30A53ED1A312D01460646B5
:10BBA000174667DD26A3D3E9002351EC190B0FF0EC
:10BBB00045FB56EC185B8046894642464B4618EEDC
:10BBC000100A31460FF082F941EC180B314653EC64
:10BBD000182B28460FF07AF942464B460FF076F9BB
:10BBE00019A3D3E9002306460F4651EC190B0FF0B9
:10BBF00025FB32463B460FF069F98046894651ECF9
:10BC0000180B42464B460FF061F9C4E900010646A5
:10BC10000F4631E0AFF3008000004054FB21F93FB4
:10BC20003163621A61B4D03D0000601A61B4D03D46
:10BC30007370032E8A19A33B83C8C96D305FE43F3C
:10BC40000000002E8A19A33BC14920259A837B3925
:10BC5000FB21E93F7BD90240FB21F93FFB21394120
:10BC6000FFFFEF7F00007041C00E02080000E03FC0
:10BC7000400E0208C4E9001232463B4651EC180B54
:10BC80000FF024F942464B460FF020F9BBF1000FAC
:10BC9000C4E90201BFF65EAE07F1004501F10043C1
:10BCA000C4E90065C4E90203CAF1000A52E60323AD
:10BCB00098E60FF00DF9244B9D4206460F4616D02C
:10BCC0001BA3D3E900230FF003F902460B46C4E996
:10BCD0000023304639460FF0F9F815A3D3E90023C5
:10BCE0000FF0F6F84FF0FF3AC4E9020132E612A372
:10BCF000D3E900230FF0ECF811A3D3E900230646A3
:10BD00000F460FF0E5F802460B46C4E90023304623
:10BD100039460FF0DBF80AA3D3E900230FF0D8F877
:10BD20004FF0FF3AC4E9020114E600BFAFF3008010
:10BD30003163621A61B4D03D0000601A61B4D03D35
:10BD40007370032E8A19A33BFB21F93F000000000A
:10BD5000574A2DE9F84F21F00048904504460D461A
:10BD600058DC544B0029B4BF534F544F98454FF003
:10BD7000000612DD524B984540F38C80514B98459C
:10BD800054DD013398454ED047A3D3E90023204624
:10BD900029460FF053FABDE8F88F4B4B98455CDC11
:10BDA00041A3D3E900230FF093F8484B00220FF092
:10BDB000D5FCA8BB204629460FF084FF01F084F88B
:10BDC00004460D4622462B46204629460FF080F8B1
:10BDD000224682468B462B46204629460FF02EFAF5
:10BDE0003A4B804689460022204629460FF070F8DB
:10BDF00002460B46404649460FF04AFB02460B46B8
:10BE0000504659460FF062F832463B460FF016FA9C
:10BE1000BDE8F88F02460B460FF05AF8BDE8F88FE0
:10BE200020462946FAE72A4B9842ADD820462946B3
:10BE30000FF048FF214B00220FF000FAFEF75CFBE9
:10BE400004460D4622462B46304639460FF0F6F999
:10BE500022462B460FF0F2F9E0E70FF033FF01F036
:10BE600033F81C4B984504460D46ABDD174B0022BA
:10BE70000FF02EF802460B46204629460FF008FB2D
:10BE800022462B460FF024F832463B460FF0D6F9F7
:10BE9000BDE8F88F0FF016FFFEF72EFB32463B464B
:10BEA0000FF0CCF9BAE700BF3374AC3C1F7BAC7F1A
:10BEB000FFFFEF7FFFFF35400000E0BF0000E03FE5
:10BEC000412E8640CD338640FFFF2F3E0000F03FDD
:10BED0007DF8B98FFFFFEF3F2DE9F84F21F00049C2
:10BEE000B9F1795F2DED048B06460F4692469B46CD
:10BEF0006CDA0FF053FC002800F0EE8032463B462F
:10BF0000304639460FF09AF977A3D3E90023044667
:10BF10000D460FF093F976A3D3E900230EF0D8FF76
:10BF200022462B460FF08AF973A3D3E900230EF0C3
:10BF3000CDFF22462B460FF081F971A3D3E90023F0
:10BF40000EF0C6FF22462B460FF078F96EA3D3E918
:10BF500000230EF0BBFF22462B460FF06FF96CA3B7
:10BF6000D3E900230EF0B4FF22462B460FF066F90A
:10BF700041EC180B6A4B0022204629460FF05EF96F
:10BF800053EC182B80468946204629460FF056F977
:10BF900052465B4604460D46304639460FF04EF990
:10BFA00002460B46204629460EF090FF02460B46FD
:10BFB000404649460EF08AFF02460B46002059498A
:10BFC0000EF084FFBDEC048BBDE8F88F02460B46F3
:10BFD0000FF034F944A3D3E9002304460D460FF0D3
:10BFE0002DF943A3D3E900230EF072FF22462B461E
:10BFF0000FF024F940A3D3E900230EF067FF224697
:10C000002B460FF01BF93EA3D3E900230EF060FF8F
:10C0100022462B460FF012F93BA3D3E900230EF082
:10C0200055FF22462B460FF009F939A3D3E9002327
:10C030000EF04EFF2B4622460FF000F93A4B994581
:10C0400041EC180B96DD394B99453ADC0022A9F5F5
:10C05000001334490020904699460EF037FF41EC1A
:10C06000190B2F4B0022204629460FF0E7F84246D5
:10C070004B460EF02BFF53EC182B8046894620468A
:10C0800029460FF0DBF852465B4604460D46304623
:10C0900039460FF0D3F802460B46204629460EF0EB
:10C0A00015FF02460B46404649460EF00FFF02467A
:10C0B0000B4651EC190B0EF009FFBDEC048BBDE8EB
:10C0C000F88F9FED157BDFF86890B0EE479AF0EEA1
:10C0D000679A4FF00008C4E7BDEC048B11490020BB
:10C0E000BDE8F88FAFF30080D43888BEE9FAA8BD68
:10C0F000C4B1B4BD9EEE213EAD529C804F7E923EB7
:10C100009015CB19A001FA3E7751C1166CC1563F6C
:10C110004C5555555555A53F000000000000E73F20
:10C120000000E03F0000F03F3233D33F0000E93F22
:10C130000000D23F000000002DE9F04FADF5197D61
:10C14000B84CA29D089354F825400594013B12F188
:10C15000140F04900B910393C0F22083B249D31EB5
:10C1600081FB0301DB17C3EBA10307930133A3EBAF
:10C170008303DB00D3180693079A039BD41A059A0E
:10C18000D6181AD40136A39F4FF000084FF00009CB
:10C19000264420AD08E057F824000EF0E5FF0134F6
:10C1A000B442E5E8020108D0002CF4DA013440463C
:10C1B0004946B442E5E80201F6D1059B002BC0F2E6
:10C1C000B883089BDDF80C90DA000292059A1A44B5
:10C1D0000192049A20A901EBC30A0DF5E07B02EB62
:10C1E000C308039B002B4FF000044FF0000511DB48
:10C1F000049E574677E90223F6E802010FF01EF885
:10C2000002460B46204629460EF062FE464504468D
:10C210000D46EFD1019B09F101099945EBE8024573
:10C220000AF1080ADDD1059A04980CA901EB8203F2
:10C2300002990144083B8B460BA90993134601EB75
:10C2400082020A920193019A98A901EBC203002A83
:10C2500053E928452ADD0DF5E07909EBC2080DF117
:10C26000300A724B0022204629460EF0E7FF0FF0FD
:10C2700095FA0EF079FF6E4B002206460F460EF03F
:10C28000DDFF02460B46204629460EF01FFE0FF04A
:10C2900085FA044678E902234AF8044B30463946C9
:10C2A0000EF016FEC84504460D46DAD1DDF81890AA
:10C2B000204629464A4601F053F800224FF07F53AA
:10C2C00004460D460EF0BAFFFCF79AFC594B0022CB
:10C2D0000EF0B4FF02460B46204629460EF0F6FD4E
:10C2E0000D4604460FF05AFA80460EF03DFF0B460D
:10C2F0000246294620460EF0E9FD4B46002B064635
:10C300000F4640F39980019A0CA9013AC9F118032C
:10C3100051F8225045FA03F101FA03F3EB1AC9F17F
:10C3200017050CA843FA05F5002D40F82230884483
:10C3300000F38C8000220023304639460FF0E6F9E6
:10C34000002800F05182019B059A03F1FF3A524503
:10C3500010DC03F180430CAA013B0A9802EB830333
:10C36000002253F80419834242EA0102F9D1002A5B
:10C3700040F0DD80059B0CAA013B52F82330002BD6
:10C3800040F0D080099A012352F8041901330029A2
:10C39000FAD001994A1CCB1802939146079B089941
:10C3A00002EB030A019B0B44984620AB0AF1804A3A
:10C3B00003EBC808A39B0AF1FF3A03EB8A0A70ABB0
:10C3C00003EBC20301935AF8040F0EF0CDFE0B46A7
:10C3D000039902460029C8E9002347464FF00004AC
:10C3E00008F108084FF0000511DB049E01E077E931
:10C3F0000223F6E802010EF021FF02460B4620461A
:10C4000029460EF065FD5E4504460D46EFD1019BC1
:10C41000E3E802450193029B09F101099945D2DD48
:10C4200010E700BF60130208ABAAAA2A0000703E02
:10C4300000007041000020406BD1019B0CAA013B21
:10C4400052F82350ED15002D7FF774AF019B002BA0
:10C4500008F1010840F3C6810C9C002C51D1019BCE
:10C46000012B20D00CAB012253F8044F002C4BD0F1
:10C47000531C0CA9C4F1807441F8224001999942DF
:10C4800010DD0CAA0CA852F8232000EB830300EB6C
:10C4900081006FF07F4100E01A688A1A43F8042B8C
:10C4A0008342F9D10124069B002B0EDD012B00F005
:10C4B0006A81022B09D1019B5A1E0CAB0CA953F8BF
:10C4C0002230C3F3150341F82230022D7FF432AF3E
:10C4D00032463B46B64900200EF0F8FC06460F46B1
:10C4E000002C3FF427AF069AB149002000F038FF36
:10C4F00002460B46304639460EF0E8FC06460F462B
:10C5000018E701230022B4E7019901328A42ABD136
:10C51000C9E7A84B00220FF017F9002840F050811E
:10C52000054607E7019B5A1C9146029236E70CAB81
:10C53000069A53F82A30CDF81C80183A03950692D3
:10C5400073B9019B03F18043023B0CA901EB830308
:10C5500053F804190AF1FF3A183A0029F8D0069264
:10C56000069A9349002000F0FBFEBAF1000F044642
:10C570000D46C0F2D48170AB03EBCA0B0CAA0AF1D2
:10C580000103069302EB83084FEACA030BF1080983
:10C59000049358F8040D0EF0E7FD22462B460EF0EA
:10C5A0004DFE06460F46844B2046294669E9026740
:10C5B00000220EF043FE0CAB984504460D46E8D130
:10C5C00048ABCDE9013ADDF814A0BAF1000F4FF005
:10C5D00000092CDB74A3D3E90023DFF8E0815F4678
:10C5E00000240025002603E0B14510DBF8E8022313
:10C5F000F7E802010EF022FE02460B4620462946CD
:10C600000EF066FC0136B24504460D46ECDA019B9D
:10C61000029A03EBC9034A45C3E90045ABF1080B95
:10C6200009F1010306D0BAF1000F9946D2DA0024CD
:10C630000025ECE7A29BDDF808A0022B1EDC002BF6
:10C6400000F3058113D1049C019D083400200021D2
:10C650002C4474E902230EF03BFCA542F9D1039B64
:10C6600013B101F1004319460B9BC3E90001079B7D
:10C6700003F007000DF5197DBDE8F08FA29B032B99
:10C68000F5D1BAF1000F00F06681019A049BD3182E
:10C69000D3E9004502EBCA0B7BE902672046294635
:10C6A00032463B460EF014FCA046A94604460D4611
:10C6B00022462B46304639460EF008FC4B46424691
:10C6C0000EF006FC019B5B45CBE90045CBE902017E
:10C6D000E2D1BAF1010F40F33E81019A049B0AF1C5
:10C6E000005A0AF1FF3A13444FEACA01D3E9004560
:10C6F00001F1080A029192440DF5947B7AE90267F0
:10C700002046294632463B460EF0E2FBA046A946AB
:10C7100004460D4622462B46304639460EF0D6FBDF
:10C7200042464B460EF0D4FBD345CAE90045CAE960
:10C730000201E3D1029C019B0026002710341C4417
:10C7400003F110053046394674E902230EF0C0FBB0
:10C75000A542F9D106460F46039B002B40F0B58059
:10C76000019A0B99D2E90045D2E90223C1E90223DB
:10C77000079B03F00700C1E90467C1E900450DF517
:10C78000197DBDE8F08F019B5A1E0CAB0CA953F824
:10C790002230C3F3160341F8223096E600216FF0F1
:10C7A00017030791E6E400BF00000040FB21F93FBA
:10C7B0000000F03F0000E03F0000703EB8FF0108BD
:10C7C000019B002B08F10108C8BF02253FF744AECA
:10C7D00032463B46614900200EF078FB02250646B2
:10C7E0000F46A7E500245EE63946069F03957A4288
:10C7F0003046CDF81C8000F0B3FD594B00220446B2
:10C800000D460EF0A1FF002855D0564B00222046C1
:10C8100029460EF013FD0EF0C1FF06460EF0A4FCF3
:10C820004F4B00220EF00AFD0B46024629462046D9
:10C830000EF04CFB019C0EF0B1FF04F1010A0CABB1
:10C84000183743F82400069743F82A6088E6019DCC
:10C85000069A002005EBC204002174E902230EF0C1
:10C8600037FBA542F9D1039B002B48D10B9BC3E9B1
:10C8700000010B4601990246D1E900010EF026FBAA
:10C88000BAF1000F0DDD4AAD0124F5E802230134B1
:10C890000EF01EFBA245F8DA039B13B101F1004331
:10C8A00019460B9BC3E90201079B03F007000DF536
:10C8B000197DBDE8F08F204629460EF06FFF019BE1
:10C8C0000CAA9A4642F823004AE6019B19465A6888
:10C8D000DB680D688C680B9903F10043CB60079B04
:10C8E0000D6002F100424A6003F0070007F10042C8
:10C8F0008C600E614A610DF5197DBDE8F08F0B9CCF
:10C9000001F10043C4E900030B4601990246D1E955
:10C9100000010EF0DBFABAF1000FB4DCBEE7A29B17
:10C92000022B0ADC002B11DC7FF4A1AE00200021D9
:10C9300095E6089BDB00029375E4A29B032B7FF432
:10C9400096AE48AB00260027019305E748AB0020D0
:10C950000021019387E700260027FDE60000F03F55
:10C96000000070410000703E2DE9F04F1F4621F09D
:10C97000004383B01646B3F1795FCDE90067044602
:10C980000D4604DA0EF00AFF002800F085802246EA
:10C990002B46204629460EF051FC06460F463246ED
:10C9A0003B46204629460EF049FC42A3D3E900232A
:10C9B00082468B46304639460EF040FC3FA3D3E911
:10C9C00000230EF083FA32463B460EF037FC3DA3BF
:10C9D000D3E900230EF07CFA32463B460EF02EFCE3
:10C9E0003AA3D3E900230EF071FA32463B460EF02B
:10C9F00025FC38A3D3E900230EF06AFA0C9B80468D
:10CA000089469BB3DDE90001294B00220EF016FC9C
:10CA100042464B4680468946504659460EF00EFC2B
:10CA200002460B46404649460EF050FA32463B4617
:10CA30000EF004FCDDE900230EF048FA1AA3D3E956
:10CA4000002306460F46504659460EF0F7FB0246B5
:10CA50000B46304639460EF03BFA02460B4620465E
:10CA600029460EF033FA03B0BDE8F08F02460B46BC
:10CA7000304639460EF0E2FB0BA3D3E900230EF05B
:10CA800025FA52465B460EF0D9FB22462B460EF0A5
:10CA90001FFA03B0BDE8F08F2046294603B0BDE879
:10CAA000F08F00BFAFF30080495555555555C53F30
:10CAB0000000E03F7CD5CF5A3AD9E53DEB9C2B8A6C
:10CAC000E6E55A3E7DFEB157E31DC73ED561C1196B
:10CAD000A0012A3FA6F810111111813F00000000AB
:10CAE0002DE9F04F2DED048BC74C85B021F00045AA
:10CAF000A54243EC192B80468946039100951CDC26
:10CB00000EF04CFE002846D1129B424601331343DF
:10CB10002B4300F0C781129B012B00F0D0814B46C4
:10CB2000BA4900200EF0B4FC04460D4620462946C2
:10CB300005B0BDEC048BBDE8F08FB54B009A9A426E
:10CB400029DD039B002B0ADA55EC194B19EE102A4C
:10CB500005F1004309F1004143EC192B8946424697
:10CB60004B4689A1D1E900010EF0B0F953EC192B25
:10CB700004460D4686A1D1E900010EF0A7F9224630
:10CB80002B460EF0A5F99FED847B80468946B0EEDA
:10CB9000479AF0EE679A42464B46404649460EF0A9
:10CBA0004DFB02460B4682468B460EF047FB524633
:10CBB00004460D465B46404649460EF03FFB78A3CF
:10CBC000D3E9002306460F46204629460EF036FBE1
:10CBD00075A3D3E900230EF07BF922462B460EF015
:10CBE0002DFB73A3D3E900230EF072F922462B46E6
:10CBF0000EF024FB70A3D3E900230EF069F922465E
:10CC00002B460EF01BFB6EA3D3E900230EF060F958
:10CC100022462B460EF012FB6BA3D3E900230EF045
:10CC200057F952465B460EF009FB47EC186B68A3B8
:10CC3000D3E9002306460F46204629460EF0FEFAA9
:10CC400065A3D3E900230EF043F922462B460EF0EC
:10CC5000F5FA63A3D3E900230EF03AF922462B46F6
:10CC60000EF0ECFA60A3D3E900230EF031F922466E
:10CC70002B460EF0E3FA5EA3D3E900230EF028F969
:10CC800022462B460EF0DAFA5BA3D3E900230EF01E
:10CC90001FF955EC194B02460B46304639460EF04B
:10CCA00017F953EC182B0EF0C9FA2B4619EE102A7F
:10CCB0000EF00EF952465B460EF0C0FA2B4619EE06
:10CCC000102A0EF005F94EA3D3E9002304460D46C1
:10CCD00051EC180B0EF0B2FA22462B460EF0F8F883
:10CCE00006460F4632463B46404649460EF0F0F8AF
:10CCF000474B009A9A4204460D4600F38D80129BE2
:10CD0000012B39D002460B46002040490EF0C0FBF3
:10CD100082468B465C465346CDE9003429460020C6
:10CD200042464B4682460EF0D1F802460B4630464C
:10CD300039460EF0CBF8234652460EF07FFAAB464A
:10CD4000234606460F465246504659460EF076FA9E
:10CD5000304B00220EF0BCF802460B4630463946F6
:10CD60000EF0B6F8DDE900230EF068FA23465246CD
:10CD70000EF0AEF804460D462046294605B0BDEC3F
:10CD8000048BBDE8F08F00BF182D4454FB21E93F10
:10CD9000075C143326A6813C000000000000000060
:10CDA000D47ABF74702AFB3EE9A7F0320FB8123F65
:10CDB00068108D1AF726303F1583E0FEC8DB573F19
:10CDC00093846EE9E326823FFE41B31BBAA1AB3FD9
:10CDD000735360DBCB75F3BEA69237A0887E143FF9
:10CDE0000165F2F2D844433F280356C9226D6D3FD6
:10CDF00037D60684F464963F7AFE10111111C13FB4
:10CE0000635555555555D53FFFFF2F3E0000F0BFE8
:10CE10002794E53F0000F03F12980EF0A5F9224656
:10CE200082468B462B46204629460EF007FA52468C
:10CE300041EC180B5B46204629460EF049F80246A5
:10CE40000B4651EC180B0EF023FB32463B460EF01E
:10CE50003DF802460B46404649460EF037F802467A
:10CE60000B460EF035F802460B46504659460EF07A
:10CE70002DF8039B9B1703F002030446C3F1010046
:10CE80000D460EF071F902460B46204629460EF07B
:10CE9000D5F904460D462046294605B0BDEC048B65
:10CEA000BDE8F08F404649460EF00CFF02460B46A7
:10CEB000002004490EF0ECFA04460D465CE74446B7
:10CEC0004D4659E70000F03F2DE9F04FD24A2DEDD5
:10CED000028B21F00043934283B004460D460E4678
:10CEE0005BD9CE4A934214D9CD4A934209D9C1F3B2
:10CEF00013030343024600F0EF810B460DF0E8FFF9
:10CF00000FE1AFA3D3E900230EF028FC002840F086
:10CF1000F881002EC0F20A81ABA3D3E9002320469A
:10CF200029460EF08BF9BF4F002602460B463046CD
:10CF300039460DF0CDFF0EF031FC01900EF014F9E2
:10CF4000A3A3D3E90023804689460EF077F9024671
:10CF50000B46204629460DF0B9FF9FA3D3E90023D5
:10CF600006460F46404649460EF068F98046894617
:10CF700042464B46304639460DF0A8FF04460D4662
:10CF800022462B46304639460DF0A0FF42464B461E
:10CF90000DF09CFF41EC180B09E0A34A934200F20C
:10CFA000F180A24A934240F20181002301939D4BFC
:10CFB0000022204629460EF041F906460F46324629
:10CFC0003B46204629460EF039F985A3D3E90023D4
:10CFD00082468B460EF032F983A3D3E900230DF08D
:10CFE00077FF52465B460EF029F981A3D3E900236F
:10CFF0000DF06CFF52465B460EF020F97EA3D3E99C
:10D0000000230DF065FF52465B460EF017F97CA336
:10D01000D3E900230DF05AFF52465B460EF00EF99D
:10D02000834B00220DF054FF8046894642464B4612
:10D03000304639460EF002F902460B4600207D4983
:10D040000DF044FF06460F463246404649463B46F1
:10D050000DF03CFF3246804689463B462046294635
:10D060000EF0ECF802460B46002073490DF02EFF3F
:10D0700002460B46404649460EF00AFA52465B46C7
:10D080000EF0DCF8019E02460B46002E3BD057EC1A
:10D09000186B18EE102A3B460DF018FF22462B465F
:10D0A0000EF0CCF83B4618EE102A0DF00FFF5B4651
:10D0B00052460DF00BFF019B013306460F4600F070
:10D0C000DB80019B012B00F0BD80019B0133392BDC
:10D0D00046D8019A132A00F3EA804FF40013134153
:10D0E000C3F17F5722462B460DF0F0FE002607F5D0
:10D0F000401702460B46304639460DF0E7FE019ACE
:10D1000001EB02510DE0204629460EF097F85246F9
:10D110005B460DF0DBFE02460B46204629460DF02D
:10D12000D5FE03B0BDEC028BBDE8F08F36A3D3E98A
:10D130000023204629460DF0CBFE002200230EF0EE
:10D14000EFFA002840F0CB801FA3D3E9002320464C
:10D1500029460EF073F8394F002602460B46E6E6E4
:10D1600022462B460DF0B2FE02460B460020304907
:10D170000DF0ACFE019A2E4B01EB025100220DF096
:10D18000A5FECEE72E4A934200F2C380002910A3E9
:10D19000D3E900237FDB0DF099FE01230FF238095C
:10D1A000D9E90089019306460F46E1E618A3D3E9C1
:10D1B00000230DF08DFE02460B46AAE7AFF3008078
:10D1C000EF39FAFE422E8640FE822B654715F73F67
:10D1D0000000E0FE422EE63F763C7935EF39EA3D2D
:10D1E0002DC3096EB7FD8ABE3952E686CACFD03E3E
:10D1F000B7DBAA9E19CE143F8555FE19A0015A3FF0
:10D20000F41011111111A13F59F3F8C21F6EA501BD
:10D210009C7500883CE4377E79684340412E864007
:10D22000FFFFEF7F0000E03F422ED63FFFFF8F3C25
:10D230000000F03F00000840000018400000E0BF80
:10D24000B1A2F03F404B0022204629460EF068FA7A
:10D25000002847D03D4B2046294600220DF038FEDD
:10D2600002460B46304639460DF030FE00224FF0A4
:10D2700040430DF0E3FF54E702460B4620462946A3
:10D280000DF024FE314B00220DF0D8FF2F4B002271
:10D290000DF01CFE45E70DF01BFE4FF0FF330FF2C3
:10D2A0009009D9E90089019306460F4660E6019F7F
:10D2B000C7F57F760336002233050DF009FE0246DE
:10D2C0000B46204629460DF001FE214B00220DF0B1
:10D2D000FFFD01EB075124E70029BFF622AF1D49EE
:10D2E00000201EE732463B46204629460DF0EEFD63
:10D2F00002460B460DF0ECFD154B00220DF0E8FD4B
:10D300000FE70DA3D3E90023104619460DF096FF51
:10D3100007E70BA3D3E900230DF090FF002DB4BF66
:10D320000D4F0A4F02460B46002600E6AFF3008081
:10D33000763C7935EF39EABD9C7500883CE4377E50
:10D34000FE822B654715F73F0000D0BF0000E03F8D
:10D350000000F03F0000F0BF0000E0BF0000000050
:10D36000F8B5C1F30A5304460D460E46174653BBA3
:10D3700021F000460346334324D0374B00220DF002
:10D380005DFF364B9F4204460D4616DBC1F30A5340
:10D390000E46363B3B4440F2FE7293421CDC002BAF
:10D3A0003BDC13F1350F2BDA4CF250339F4213DC88
:10D3B000002D21A1D1E9000137DB1FA3D3E9002310
:10D3C0000DF03CFFF8BD40F2FF729342E2D10246FD
:10D3D0000B460DF07DFDF8BD002D19A1D1E900012E
:10D3E00005DB17A3D3E900230DF028FFF8BD14A334
:10D3F000D3E9002314A1D1E900010DF01FFFF5E7E7
:10D4000026F0FF4626F4E006363346EA035120466E
:10D41000134B00220DF012FFF8BD26F0FF4626F454
:10D42000E006204646EA0351F8BD09A1D1E9000112
:10D43000C3E700BFAFF3008059F3F8C21F6EA50128
:10D440009C7500883CE4377E9C7500883CE437FE80
:10D4500059F3F8C21F6EA58100005043B03CFFFF96
:10D460000000903C10B5054C237833B9044B13B140
:10D470000448AFF300800123237010BDB0020020E8
:10D4800000000000741B020808B5034B1BB10349E0
:10D490000348AFF3008008BD00000000B402002084
:10D4A000741B0208154B002B08BF134B9D46A3F5B8
:10D4B000803A00218B460F461348144A121A05F091
:10D4C000C9FA0F4B002B00D098470E4B002B00D011
:10D4D00098470020002104000D000D48002802D0CC
:10D4E0000C4811F074FB10F0DFFB2000290011F054
:10D4F00062FB11F069FB00BF000008000080012002
:10D5000000000000A9EB010838020020942A002046
:10D51000CFEB010800000000F0B5214D2C6883B06E
:10D5200014B1204603B0F0BD4FF492700BF0A4F894
:10D530004FF0FF310446032000F088FE00B202F0F5
:10D54000E7FF4FF0FF310646022000F07FFE00B2F9
:10D5500002F0DEFF31460246204608F025FD04F1C8
:10D56000D80600231A463046012108F0A5FB4FF0EB
:10D57000FF31012000F06AFE00B202F0C9FF382737
:10D580004FF0050C0246CDE9007C3346214604F1FC
:10D59000E00005F0F7FD20462C6003B0F0BD00BFB1
:10D5A000CC0200202DE9F04104460E46FFF7B4FFFF
:10D5B00000F1E0070546384605F0FCFD082C18D0C0
:10D5C000A4F10903012B0CD8D5F8E03038461B6ACA
:10D5D0009847052805DCD5F8E0303846DB69082196
:10D5E0009847324621461023BDE8F0410D2002F055
:10D5F00067BED5F8E03038461B6A98470228F0DC51
:10D60000D5F8E0303846DB6904219847E9E700BFE8
:10D6100010B52DED028BFFF77FFF00F1E0042046EF
:10D6200007F0E8F908EE900A204607F0F3F907EE54
:10D63000900A2046B8EEE78A07F0FCF9F8EEE88A8F
:10D6400068EE087A07EE100AE8EEA87AB8EEC77A14
:10D65000E7EE077AF5EE407AF1EE10FAB1EEE78ADE
:10D6600006D4FDEEC87ABDEC028B17EE900A10BD11
:10D6700017EE900A0FF06CF8F3E700BF08B5032827
:10D680001CD8DFE800F0060D1402BDE80840FFF7E3
:10D69000BFBFFFF741FFBDE80840E03007F0AAB97F
:10D6A000FFF73AFFBDE80840E03007F0B3B9FFF7F5
:10D6B00033FFBDE80840E03007F0BCB9002008BDEA
:10D6C00008B518B1012808D0002008BDFFF724FFD5
:10D6D000BDE80840E030FAF79BBFFFF71DFFBDE84B
:10D6E0000840E030FAF7B4BF00B583B00190FFF70F
:10D6F00013FF0199E03003B05DF804EB06F080BF42
:10D7000008B500F0A1FFFBF73BFDBDE8084000F0C5
:10D71000F3BC00BF08B500F097FFFBF7A1FDBDE823
:10D72000084000F0E9BC00BF08B500F08DFF0EF026
:10D7300045FBBDE8084000F0DFBC00BF08B500F0C5
:10D7400083FF0EF03DFFBDE8084000F0D5BC00BFF0
:10D7500008B500F079FFFBF723FDBDE8084000F0B5
:10D76000CBBC00BF08B500F06FFF0EF04FFDBDE869
:10D77000084000F0C1BC00BF08B500F065FFFAF733
:10D7800087FFBDE8084000F0B7BC00BF08B500F057
:10D790005BFF0EF089FCBDE8084000F0ADBC00BFA7
:10D7A00070B5049D95420C4625DB164653B9042AF4
:10D7B0001AD0022A11D110F001030ED102880A807A
:10D7C000184670BD10440B468A1810F8011D03F866
:10D7D000011B9A42F9D1002070BD01463246204615
:10D7E00004F0D8F8002070BD10F00303F5D10268F2
:10D7F0000A60184670BD0846002105F02BF94FF06D
:10D80000FF3070BD0830704728B1002902DB436843
:10D810008B4201DC002070470844007A704700BF4B
:10D8200030B1002904DB43688B42C4BF4018027248
:10D83000704700BF002B23DB002970B50D461CDBB1
:10D840004168A94219DB5668491B1446F21A8A42FC
:10D85000A8BF0A46002A10DB844207D008340830EB
:10D860002844E11804F096F8002070BD0834E1184F
:10D87000601911F083FF002070BD4FF0FF3070BDC4
:10D880004FF0FF30704700BF4068704710B4141E5F
:10D8900010DB4268A2420DDB33EA230328BF1346A4
:10D8A000121B08309A422044A8BF1A465DF8044B68
:10D8B00005F0D0B85DF8044B704700BF436899424B
:10D8C000A8BF194610B40C4632EA220128BF1946F7
:10D8D0001B1B083099422044A8BF19465DF8044B31
:10D8E00000F09CBA002BBCBF43689B1A002A70B59D
:10D8F0000E4622DB44689918A1421EDC91421CDBD3
:10D90000DBB136F0004118D05942B14213DAB342CC
:10D9100011DD0830002E00EB020516DB9C1B2246B1
:10D92000A919284611F02AFF324628190021BDE81E
:10D93000704005F08FB8002C00DA70BD2246083028
:10D94000BDE87040002105F085B89A192946744257
:10D95000A81B11F013FF224628460021BDE87040A5
:10D9600005F078B870B5054600206968490000F0F8
:10D9700025FA6B68002B14DD0A4EE91D02460B46A2
:10D9800011F8014F2411063B345D94710C7804F0BA
:10D990000F045B1B345DD4716C689C4202F102027F
:10D9A000EDDC70BD00000208002BBCBF43689B1A71
:10D9B000002A30DB30B445689C18AC4229DC944224
:10D9C00027DB33B331F0004423D00029B8BF01EB8B
:10D9D000032191FBF3F403FB1411002900F108006B
:10D9E000B8BFC91802445418A242134411D02046AB
:10D9F00004E0A24208460FD082420AD001461578C0
:10DA0000007802F8010B01F8015B8B42F1D120464E
:10DA1000F2E730BC704770470C46EDE700B583B0C5
:10DA20004FF0FF3300930023FFF704FF03B05DF8CE
:10DA300004FB00BF0146002000F0F0B930B5013A08
:10DA4000044683B00D4618460F2A13D8DFE802F0CB
:10DA50001C145761521C144C222D3D4767087D6CE5
:10DA600000F0F2FD072DCDE9000103DD6B4603CB8D
:10DA70002060616003B030BD00F07AFE002DC0B2BE
:10DA8000F8DD207003B030BD00F072FE002DF1DD36
:10DA90002070F7E700F06CFE012D83B2EADDC3F3DE
:10DAA00007232370607003B030BD00F061FE032DCA
:10DAB000E0DDC0F30721C0F30742C0F30763E07065
:10DAC000A1706270237003B030BD00F0E5FD032D3E
:10DAD000D0DDA3070CBF2060206003B030BD00F094
