:020000040800F2
:108000000080012061970108DBEC0108DBEC01082E
:10801000DBEC0108DBEC0108DBEC010800000000F0
:10802000000000000000000000000000196D0108C1
:10803000DBEC010800000000BF6D01081F6E0108A5
:10804000DBEC0108DBEC0108DBEC0108DBEC0108F0
:10805000DBEC0108DBEC0108DBEC0108DBEC0108E0
:10806000DBEC0108DBEC0108DBEC0108DBEC0108D0
:10807000DBEC0108DBEC0108DBEC0108DBEC0108C0
:10808000DBEC0108DBEC0108DBEC01080000000080
:10809000000000000000000000000000DBEC010810
:1080A000DBEC0108DBEC0108DBEC0108DBEC010890
:1080B000DBEC0108DBEC0108DBEC0108DBEC010880
:1080C000DBEC0108DBEC0108DBEC0108DBEC010870
:1080D000DBEC0108DBEC0108DBEC01080000000030
:1080E000DBEC0108DBEC0108DBEC01080000000020
:1080F000000000000000000000000000DBEC0108B0
:1081000000000000DBEC0108DBEC0108DBEC0108FF
:10811000000000000000000000000000000000005F
:10812000DBEC0108DBEC0108DBEC0108DBEC01080F
:10813000DBEC01080000000000000000000000006F
:10814000000000000000000000000000DBEC01085F
:10815000DBEC0108DBEC0108DBEC0108DBEC0108DF
:10816000DBEC0108DBEC010800000000000000006F
:1081700000000000000000000000000000000000FF
:1081800000000000DBEC010800000000000000001F
:10819000DBEC01080000000000000000000000000F
:1081A00001F0FF01102A2BDB10F0070F08D010F8A8
:1081B000013B013A8B422DD010F0070F42B3F6D1AC
:1081C000F0B441EA012141EA014122F007047FF0C5
:1081D00000070023F0E80256083C85EA010586EA1C
:1081E000010685FA47F5A3FA87F586FA47F6A5FA58
:1081F00087F68EB9EED1F0BC01F0FF0102F0070264
:1082000032B110F8013B013A83EA010313B1F8D10E
:108210000020704701387047002D06BF35460338EF
:10822000073815F0010F07D1013015F4807F02BF28
:10823000013015F4C03F0130F0BC0138704700BF79
:108240002DE9F04F0378202B83B00446894603D1F3
:1082500014F8013F202BFBD02B2B08BF013494F8DE
:1082600000E0BEF12D0F00F086809FED577BBEF140
:10827000300F8DED007B00F08A80BEF1000F00F022
:108280009D80002600274FF0000ADFF84CB14FF028
:1082900000081CE012F0EEFE06460F46284612F0DB
:1082A00083FE32463B4612F033FD524606460F46E9
:1082B0005B46DDE90001B8F1000F03D013F004F8CC
:1082C000CDE9000114F801EFBEF1000F14D0AEF1BA
:1082D0003005092D52465B4630463946DAD9B8F1A9
:1082E000000F18D1BEF12E0F15D114F801EF4FF089
:1082F0000108BEF1000FEAD132463B46DDE900013C
:1083000012F0B8FE06460F46C9F80040304639461E
:1083100003B0BDE8F08F0EF0DF0EBEF1450F08D0C0
:108320002378202B03D114F8013F202BFBD0002B06
:1083300041D1DDE900233046394612F09BFE237817
:1083400006460F46002BDFD04946601C0A2215F076
:1083500059FD21490246002013F0ECF902460B4674
:108360003046394612F086FE06460F4630463946FC
:1083700003B0BDE8F08F94F801E09FED157BBEF1EE
:10838000300F8DED007B04F101047FF476AF63784C
:1083900043F02003782B7FF474AF10224946204627
:1083A00015F030FD12F000FEDDE9002312F062FE50
:1083B00006460F46AAE70026084FA7E70026002733
:1083C0009AE700BFAFF30080000000000000F03F1C
:1083D000000000000000F0BF000024400000F87F13
:1083E0002DE9F04F002383B01446002206460F46C5
:1083F00013F0B2F8002876D1002200233046394627
:1084000013F0A0F830B1302200232270637003B063
:10841000BDE8F08F3046394613F086FF13F0DAF8E6
:108420004CA3D3E90023054601903946304613F0AA
:10843000A7F800285ED1019A4549002013F07AF987
:1084400002460B463046394612F03EFF01250646ED
:108450000F46DFF8FC904FF0000A4FF00008394655
:10846000304613F0B7F800F130032370834612F062
:108470009BFD02460B463046394612F047FC4B4600
:10848000424612F0F7FD013D04BF2E2363700646FD
:108490000F4614BF01340234BAF1000F06D1BBF10C
:1084A000000F0CBFDA464FF0010AD8E70AF1010AC3
:1084B000BAF1100FD3DD002DD1DC14F8013C302BC4
:1084C00004F1FF3403D114F8013D302BFBD00198A7
:1084D0002E2B08BF04F1FF34012827D1002363703D
:1084E00003B0BDE8F08F07F100431F462D23237032
:1084F000013481E714A3D3E900233046394613F051
:108500002BF8002897D0002D18DD2A4600201049AE
:1085100013F010F90B4602463946304612F0D4FEED
:108520000123013506460F46019392E76523A11CFE
:10853000637003B0BDE8F04F0AF08ABF01250195D2
:1085400087E700BFAFF3008050EFE2D6E41A4B4458
:10855000000024408DEDB5A0F7C6B03E000000003D
:1085600070B54FF0FF3005F0D1FB04466FF07F404F
:1085700005F0CCFB0646204612F006FD00220C4B0F
:1085800012F078FD044630460D4612F0FDFC06A3BD
:10859000D3E9002312F098FE02460B4620462946F6
:1085A00012F0B6FB70BD00BF0000E0DFFFFF6F43BD
:1085B0000000F03D0000000008B50CF0C7FB12F011
:1085C000F3FC00220C4B12F055FD09A3D3E9002364
:1085D00012F050FD0022094B12F098FB0022084BCC
:1085E00012F072FE12F0F6FF08BD00BFAFF300807C
:1085F0000000000000C8A9400000503F0000794082
:10860000008033400000000008B50CF0B7F9DFED42
:108610000C7A07EE100A67EE277A17EE900A12F02E
:10862000D5FC05A3D3E9002312F04EFE12F0D2FFD1
:1086300008BD00BFAFF30080EA2E4454FB2119406F
:108640000000B4430000000008B50CF0ABF9DFED0A
:108650000C7A07EE100A67EE277A17EE900A12F0EE
:10866000B5FC05A3D3E9002312F02EFE12F0B2FFF1
:1086700008BD00BFAFF30080EA2E4454FB2119402F
:108680000000B44300000000494A21F00043934237
:108690002DE9704304460D464BDC464A93420E4694
:1086A0000EDC3FA3D3E9002312F032FB0022424B41
:1086B00012F070FF00284CD020462946BDE8708398
:1086C0003E4A93423BDCB3F1804F42DD13F026FA81
:1086D0002246804689462B462046294612F0CAFC8F
:1086E0000022354B12F014FB14F0DCF802460B4666
:1086F0004046494612F00CFB02460B4600202E492C
:1087000012F0E2FD424604460D464B4640464946BD
:1087100012F0FEFA02460B462046294612F0F8FAFD
:1087200002F06AF8002EC9DC01F100431946BDE8E9
:10873000708302460B4612F0EBFABDE8708313F02B
:10874000EDF902F059F818A3D3E9002312F0E0FA8A
:10875000E8E722462B462046294612F08BFC80464D
:1087600089462046294613F0D9F9002204460D46D1
:10877000114B4046494612F0CBFA14F093F8002210
:108780000D4B12F0C5FA02460B464046494612F020
:108790009BFD22462B4612F0BBFA00F0C5FAC1E75A
:1087A0009C7500883CE4377EEF39FAFE422EE63FA6
:1087B000FFFFEF7FFFFF2F3E0000F03F0000B041C2
:1087C0002DE9F84FC44B21F000469E4204460D4669
:1087D0008A460EDDC14B9E4200F3AC8000F0A780BC
:1087E000BAF1000F40F3EA809FA1D1E90001BDE892
:1087F000F88FBB4B9E4200F3B580A3F1DE739E421F
:1088000040F3A0804FF0FF3B22462B4620462946EE
:1088100012F030FC02460B468046894612F02AFCD4
:1088200093A3D3E9002306460F4612F023FC92A33C
:10883000D3E9002312F06CFA32463B4612F01AFCE0
:108840008FA3D3E9002312F063FA32463B4612F0BD
:1088500011FC8DA3D3E9002312F05AFA32463B46AD
:1088600012F008FC8AA3D3E9002312F051FA324631
:108870003B4612F0FFFB88A3D3E9002312F048FA2D
:1088800042464B4612F0F6FB85A3D3E9002380460F
:1088900089463046394612F0EDFB83A3D3E9002325
:1088A00012F034FA32463B4612F0E4FB80A3D3E9DF
:1088B000002312F02BFA32463B4612F0DBFB7EA37C
:1088C000D3E9002312F022FA32463B4612F0D2FBE3
:1088D0007BA3D3E9002312F019FA32463B4612F08B
:1088E000C9FBBBF1FF3F02460B466CD040464946F0
:1088F00012F00EFA22462B4612F0BCFB794E7A4B50
:108900004FEACB0B5E449B44DBE9002312F0FEF9F7
:1089100022462B4612F0FAF902460B46D6E9000130
:1089200012F0F4F9BAF1000F43DBBDE8F88F00282C
:108930003FF456AF22462B462046294612F0E8F96E
:10894000BDE8F88F60A3D3E9002312F0E1F900221B
:10895000664B12F01FFE00283FF454AF2046294614
:10896000BDE8F88F13F0DAF8614B9E4204460D46DD
:1089700039DCA3F550239E425EDC02460B4612F022
:10898000C7F90022594B12F0C1F9002206460F46E2
:108990004FF080432046294612F0BAF902460B46B2
:1089A0003046394612F090FC4FF0000B04460D465D
:1089B0002AE701F100431946BDE8F88F44A1D1E947
:1089C0000001BDE8F88F4046494612F0A1F9224661
:1089D0002B4612F04FFB02460B462046294612F06A
:1089E00095F9BDE8F88F434B9E421ADC0022424BBA
:1089F00012F08CF9002206460F463F4B20462946CE
:108A000012F038FB0022394B12F082F902460B4675
:108A10003046394612F058FC4FF0020B04460D4622
:108A2000F2E602460B460020344912F04DFC4FF0AE
:108A3000030B04460D46E7E600222C4B12F066F9C4
:108A4000002206460F46294B2046294612F060F9BF
:108A500002460B463046394612F036FC4FF0010B09
:108A600004460D46D0E600BF182D4454FB21F93FC3
:108A700011DA22E33AAD903FEB0D76244B7BA93F10
:108A8000513DD0A0660DB13F6E204CC5CD45B73FDE
:108A9000FF8300922449C23F0D5555555555D53F8A
:108AA0002F6C6A2C44B4A2BF9AFDDE522DDEAD3F7E
:108AB0006D9A74AFF2B0B33F711623FEC671BC3F1E
:108AC000C4EB98999999C93F9C7500883CE4377E1E
:108AD000182D4454FB21F9BFFFFF0F440000F07F25
:108AE000FFFFDB3F28FE010848FE01080000F03FC1
:108AF000FFFFF23FFF7F03400000F83F0000F0BFA0
:108B00002DE9F843C1F30A59A9F2FF35132D0246A6
:108B10000B460C4606468846074622DC002D50DBF5
:108B2000DFF8F09049FA05F901EA090E5EEA060657
:108B30001CD036A3D3E9002312F0EAF80022002368
:108B400012F028FD48B1002C04DD4FF4801343FAE5
:108B500005F5A84428EA0904002721463846BDE85F
:108B6000F883332D06DDB5F5806F3DD010461946EC
:108B7000BDE8F883A9F213494FF0FF3E2EFA09F938
:108B800010EA090FF2D021A3D3E9002312F0C0F8B4
:108B90000022002312F0FEFC0028DED0002C09DDAC
:108BA000142D2BD00127C5F1340507FA05F5AE19B0
:108BB00028BFB844444626EA090721463846BDE89E
:108BC000F88312A3D3E9002312F0A2F800220023B5
:108BD00012F0E0FC0028C0D0002C0BDB54EA0607A2
:108BE00006D00027084CB8E712F092F8BDE8F883E9
:108BF0003C46B2E700274FF00044AEE704F101081D
:108C0000D8E700BFAFF300800000F03F9C750088FC
:108C10003CE4377EFFFF0F002DE9F041C1F30A5716
:108C2000A7F2FF35132D02460B460C468846064632
:108C30001CDC002D3FDB3A4F2F41864601EA070C32
:108C40005CEA0E0E17D034A3D3E9002312F060F8CB
:108C50000022002312F09EFC20B1002C3FDB28EA0A
:108C60000704002621463046BDE8F081332D06DD9D
:108C7000B5F5806F2FD010461946BDE8F081A7F2F8
:108C800013474FF0FF3E2EFA07F73842F3D022A3E6
:108C9000D3E9002312F03CF80022002312F07AFC02
:108CA0000028DFD0002C20DB444626EA07062146B8
:108CB0003046BDE8F08118A3D3E9002312F028F86C
:108CC0000022002312F066FC0028CBD0002C17DB1A
:108CD00000263446C6E712F01BF8BDE8F0814FF4D9
:108CE000801343FA05F5A844B9E7142D10D00123E9
:108CF000C5F1340503FA05F5AE1928BF9844D3E74A
:108D000024F00042074B324318BF1C460026A9E757
:108D100004F10108C8E700BF9C7500883CE4377E79
:108D2000FFFF0F000000F0BF2DE9F04FD84B994234
:108D300087B0804689460E4613DCD64B21F00044AE
:108D40009C4218DD0022D44B12F0FCFB002879D0A5
:108D5000002200230020D14912F0B6FA07B0BDE886
:108D6000F08FCF4B99422FDD42464B4611F0D0FF9A
:108D700007B0BDE8F08FCB4B9C4270DDCA4B1E4460
:108D80009E427ED80022C94B4046494611F0C0FFA2
:108D90004FEA215AAAF2FF3ABAF1000F04460D46F3
:108DA0000E4640F3DE8142464B4611F0AFFF0246CD
:108DB0000B460020BD4911F0A9FF22462B4612F0B8
:108DC00083FACDE902010BE0B94B9E42DADD9FED5B
:108DD0009A7B8DED027B4FEA265A4446AAF2FF3A6F
:108DE000B44BC6F313069E4246F07F5500F3E7806E
:108DF00045F44015204629460022AC4B11F086FF71
:108E0000002204460D46AC4B12F034F922462B46A4
:108E100012F030F9A046CDE90401A946CDE90001E0
:108E2000002E3AD1002200232046294612F08AFB68
:108E3000002800F0CE80BAF1000F40F074810020CD
:108E4000002195E742464B464046314611F05EFF11
:108E500002460B4612F038FA07B0BDE8F08F002248
:108E6000964B11F055FF0022002312F093FB0028CF
:108E700000F0CC80924B9C4200F3C88040464946AB
:108E800076E700228C4B12F0F5F842464B4612F082
:108E9000F1F8CDE900014FF0000A00224FF08043C5
:108EA0004046494611F034FF02460B4640464946CB
:108EB00012F00AFA02460B4606460F4612F0DAF89E
:108EC0005FA3D3E9002304460D4612F0D3F85EA356
:108ED000D3E9002311F01CFF22462B4612F0CAF8FA
:108EE0005BA3D3E9002311F013FF22462B4612F0B7
:108EF000C1F859A3D3E9002311F00AFF22462B46FB
:108F000012F0B8F856A3D3E9002311F001FF22466E
:108F10002B4612F0AFF854A3D3E9002311F0F8FE6A
:108F200022462B4612F0A6F851A3D3E9002311F0F4
:108F3000EFFE22462B4612F09DF804460D46BAF18C
:108F4000000F00F0BF80504612F02EF84AA3D3E97C
:108F5000002382468B4612F08DF8DDE90023CDE92F
:108F600004012046294611F0D3FE32463B4612F05A
:108F700081F843A3D3E9002304460D4650465946E1
:108F800012F078F8DDE9022311F0C2FE02460B462A
:108F90002046294611F0BCFE02460B46DDE90001E1
:108FA00011F0B4FE42464B4611F0B0FE02460B46AD
:108FB000DDE9040111F0AAFE07B0BDE8F08F45F429
:108FC0000015C6F5801620462946B6100AF1010A9A
:108FD00012E72DA3D3E900232046294612F04AF8D0
:108FE00002460B460020314911F090FEDDE90423D2
:108FF00012F040F806460F46BAF1000F73D1024650
:109000000B462046294611F081FEB1E642464B460A
:109010004046494612F02EF80022274B12F02AF85B
:1090200002460B464046494611F070FE07B0BDE8C7
:10903000F08F00BFAFF300800000000000000000D0
:1090400044523EDF12F1C23F9FC678D0099AC33F17
:10905000DE03CB966446C73FAF788E1DC571CC3F0B
:10906000599322942449D23F04FA97999999D93F68
:10907000935555555555E53F0000E0FE422EE63F1D
:10908000763C7935EF39EA3D555555555555E53F0F
:109090007982DA3FFFFFEF3F0000F0BF000050C3CE
:1090A000FFFFEF7FFFFF1F3E3C412D400000F03FE0
:1090B000FFFF3F439DA006000000E03F000050433B
:1090C000FFFF8F3CDDE9004522462B4611F020FED4
:1090D00032463B4611F0CEFF02460B46204629465B
:1090E00011F014FE9CE7504611F05EFF23A3D3E974
:1090F000002382468B4611F0BDFF22A3D3E9002353
:10910000804689465046594611F0B4FFDDE90223F6
:1091100011F0FEFD02460B463046394611F0F6FDD1
:1091200022462B46DCE7504611F03EFF15A3D3E95B
:10913000002306460F4611F09DFFDDE9022311F0E2
:10914000E7FD0EA3D3E9002304460D463046394619
:1091500011F090FF02460B462046294611F0D8FD3B
:1091600006E60022044B11F0D1FD02460B464046B4
:10917000494611F0CBFD20E60000F03F0000E0FE84
:10918000422EE63F763C7935EF39EA3D000000009B
:1091900008B513F049F804A3D3E9002312F094F8BA
:1091A00008BD00BFAFF30080EF39FAFE422EE63F64
:1091B0002DE9F043DFF8B4808BB004460D4601F092
:1091C000F3F898F90030013306460F462BD02246BB
:1091D0002B462046294612F0E7F9814618BB204667
:1091E000294612F09BFC1FA3D3E9002312F0D2F909
:1091F000C8B1194A98F90030CDF820900321CDE983
:109200000445CDE902458DE806008BB9134B4FF0BC
:109210006042CDE90623684614F0D2F970B1089B8C
:109220009BB9DDE90667304639460BB0BDE8F083EF
:109230000B490020022BCDE90601ECD114F03EFBD6
:1092400022230360089B002BEBD014F037FB089B14
:109250000360E6E7AFF30080E40C0208FFFFEF478E
:109260000000F07F7DF8B98FCE3386408E0300205A
:109270002DE9F043DFF8E4808BB004460D4601F0A1
:1092800043F998F90030013306460F4633D02046A3
:10929000294614F08FF970B32CA3D3E9002320469C
:1092A000294612F077F9814650BB2AA3D3E900235F
:1092B0002046294612F050F9E8B198F90030204ACA
:1092C000CDF82090002600270421022BCDE904458B
:1092D000CDE90245CDE906678DE8060029D068464C
:1092E00014F06EF928B3089B1BB114F0E7FA089B41
:1092F0000360DDE90667304639460BB0BDE8F08310
:109300000F4A98F90030019203210022CDE904456B
:10931000CDE90245009108922BB90A4B4FF060420B
:10932000CDE90623DBE708490020022BCDE9060141
:10933000D5D114F0C3FA22230360D4E7AFF3008041
:10934000EC0C0208FFFFEF470000F07FEF39FAFE58
:10935000422E864051302DD5104987C08E03002003
:109360002DE9F04FDFF80C938DB006460F461446FA
:109370001D4601F0C5FC99F90080B8F1FF3FCDE929
:10938000000136D022462B462046294612F00CF921
:10939000834670BB32463B463046394612F004F9EC
:1093A0008246002840F0A280304639460022002341
:1093B00012F0C8F810B3002200232046294612F00C
:1093C000C1F8834600286AD09FEDA17B0122A44BFF
:1093D000CDF828A00292CDE90467CDE906458DEDD0
:1093E000087B0393B8F1000F45D09FED9B7B8DED7B
:1093F000007BDDE900010DB0BDE8F08FDDE9000183
:1094000014F0D8F88046002800F08D804FF0000A54
:109410004FF0000BDDE9000152465B4612F092F876
:109420000028E6D03046394614F0C4F80028E0D0D1
:109430002046294614F0BEF80028DAD099F9003009
:10944000874A039204210022022BCDE90467CDE96B
:109450000645CDE908AB02910A9203D002A814F0A8
:10946000AFF868B914F02AFA2223036008E09FEDF0
:10947000787B8DED087B02A814F0A2F8002830D08C
:109480000A9B1BB114F01AFA0A9B03609DED087B3E
:109490008DED007BDDE900010DB0BDE8F08F2046C9
:1094A000294614F087F80028A3D000220023204684
:1094B000294612F051F800289BD099F90030684AEB
:1094C000CDF828B00121CDE90467CDE90645029128
:1094D0000392002BCBD063490020022BCDE9080179
:1094E000C9D114F0EBF921230360C9E7002200235E
:1094F0002046294612F026F800283FF47AAF5A4B4E
:109500005749CDF828B000220120B8F1020FCDE96B
:1095100004670290CDE90645CDE908230391AAD15D
:10952000CDE9002365E73046394614F043F80028BA
:109530003FF46CAF2046294614F03CF800283FF475
:1095400065AFDDE900231046194612F02DF800281A
:109550005FD1032399F900800293414B0A90CDE932
:109560000467CDE906450393B8F1000F2BD1DFF86E
:1095700008B14FF0604A0022002330463946CDE959
:1095800008AB11F0E9FF00283FF468AF0022374B29
:109590002046294611F06EFD04460D4614F018F8D9
:1095A00002460B462046294611F0CCFF70BB304BDB
:1095B00099F900804FF06042CDE90823B8F1020F1D
:1095C0007FF44CAF4EE7DFF8B4B04FF0000A002252
:1095D000002330463946CDE908AB11F0BDFF002825
:1095E000ECD00022214B2046294611F043FD0446D1
:1095F0000D4613F0EDFF02460B462046294611F0BA
:10960000A1FF18B9174B0022CDE9082399F9008072
:10961000D4E799F90090124BCDF828800122CDE9CA
:109620000467CDE9064502920393B9F1000F3FF4B8
:109630001EAF002200231046194611F045FEB9F175
:10964000020FCDE908013FF44CAF14E7AFF30080FF
:109650000000000000000000000000000000F03FDB
:10966000040D02080000F0FF0000F03F0000E03FA2
:10967000FFFFEFC78E030020FFFFEF470000F07FE2
:109680002DE9F84FC44E21F00043B34204460D4685
:109690000DDD03F1404303F58013034340F0B9802F
:1096A000002940F3408100200021BDE8F88FBB4E27
:1096B000B34240F3A6800029C0F2788102460B46EF
:1096C0000020B74911F022FB0022B64B11F0D2FC6A
:1096D00004460D4613F0E6F895A3D3E90023894626
:1096E00080462946204611F0C5FC93A3D3E9002308
:1096F00011F00EFB22462B4611F0BCFC90A3D3E9DF
:10970000002311F003FB22462B4611F0B3FC8EA37D
:10971000D3E9002311F0FCFA22462B4611F0AAFCF3
:109720008BA3D3E9002311F0F1FA22462B4611F066
:10973000A1FC89A3D3E9002311F0EAFA22462B46C3
:1097400011F098FC86A3D3E9002382468B4620467D
:10975000294611F08FFC84A3D3E9002311F0D6FA37
:1097600022462B4611F086FC81A3D3E9002311F099
:10977000CFFA22462B4611F07DFC7FA3D3E90023CC
:1097800011F0C4FA22462B4611F074FC0022844BDF
:1097900011F0BEFA02460B465046594611F094FDB0
:1097A00042464B4611F066FC002682468B46324606
:1097B0004B463046494611F05DFC02460B462046BA
:1097C000294611F0A3FA324604460D464B46404660
:1097D000494611F09DFA02460B462046294611F0F3
:1097E00073FD02460B465046594611F091FA324637
:1097F0004B4611F08DFA02460B4611F089FABDE88E
:10980000F88F694A93420EDC5DA1D1E90001BDE801
:10981000F88F02460B4611F079FA02460B4611F01A
:1098200053FDBDE8F88F02460B4611F023FC40A320
:10983000D3E9002306460F4611F01CFC3EA3D3E9F2
:10984000002311F065FA32463B4611F013FC3CA3AD
:10985000D3E9002311F05AFA32463B4611F00AFCD4
:1098600039A3D3E9002311F053FA32463B4611F0F5
:1098700001FC37A3D3E9002311F048FA32463B46F6
:1098800011F0F8FB34A3D3E9002311F041FA32467A
:109890003B4611F0EFFB32A3D3E900238046894613
:1098A0003046394611F0E6FB2FA3D3E9002311F02F
:1098B0002DFA32463B4611F0DDFB2DA3D3E9002300
:1098C00011F026FA32463B4611F0D4FB2AA3D3E925
:1098D000002311F01BFA32463B4611F0CBFB00226D
:1098E0002F4B11F015FA02460B464046494611F03F
:1098F000EBFC22462B4611F0BDFB02460B4622A193
:10990000D1E9000111F002FA02460B462046294631
:1099100011F0FCF902460B4619A1D1E9000111F042
:10992000F5F9BDE8F88F1AA1D1E90001BDE8F88F7B
:1099300009F7FD0DE13D023F88B20175E0EF493FB7
:109940003B8F68B52882A43F5544880E55C1C93F56
:109950007D6FEB0312D6D43F555555555555C53F30
:1099600082922EB1C5B8B33F59018D1B6C06E63FFC
:10997000C88A599CE52A00404B2D8A1C273A03408F
:10998000182D4454FB21F93F075C143326A6913C63
:10999000182D4454FB210940FFFFEF3FFFFFDF3F3D
:1099A0000000F03F0000E03F0000603C00225C4B04
:1099B00011F0AEF900225B4B11F05CFB40A3D3E940
:1099C000002304460D4611F055FB3FA3D3E90023C5
:1099D00011F09EF922462B4611F04CFB3CA3D3E933
:1099E000002311F093F922462B4611F043FB3AA3D2
:1099F000D3E9002311F08CF922462B4611F03AFBF3
:109A000037A3D3E9002311F081F922462B4611F048
:109A100031FB35A3D3E9002311F07AF922462B4616
:109A200011F028FB804689462046294612F03AFF6D
:109A30002FA3D3E9002306460F462046294611F0FE
:109A400019FB2DA3D3E9002311F060F922462B4620
:109A500011F010FB2AA3D3E9002311F059F9224693
:109A60002B4611F007FB28A3D3E9002311F04EF990
:109A700022462B4611F0FEFA0022294B11F048F93C
:109A800002460B464046494611F01EFC32463B4614
:109A900011F0F0FA1EA3D3E9002311F037F9324692
:109AA0003B4611F035F902460B4611F031F90246FA
:109AB0000B4619A1D1E9000111F028F9BDE8F88F92
:109AC00009F7FD0DE13D023F88B20175E0EF493F26
:109AD0003B8F68B52882A43F5544880E55C1C93FC5
:109AE0007D6FEB0312D6D43F555555555555C53F9F
:109AF00082922EB1C5B8B33F59018D1B6C06E63F6B
:109B0000C88A599CE52A00404B2D8A1C273A0340FD
:109B1000075C143326A6913C182D4454FB210940C0
:109B20000000F03F0000E03F434A91422DE9F84336
:109B300004460D4639DD414A914209DD02F1795270
:109B4000914240DD02460B4611F0E2F8BDE8F88391
:109B500001F1404202F58012024330D0B1F1804F52
:109B60003ADC0022364B11F0D1F802460B4604468F
:109B70000D4611F0CDF8224606460F462B462046EC
:109B8000294611F077FA02460B463046394611F065
:109B9000BFF812F087FE0B4602462946204611F018
:109BA000B7F8BDE8F843FFF7BFB802460B4611F01F
:109BB000ADF802460B4611F087FBBDE8F8830020A4
:109BC0000021BDE8F88300F017FE19A3D3E90023B4
:109BD00011F09EF8BDE8F88302460B4611F04AFAF0
:109BE0000022174B11F092F812F05CFE22468046DC
:109BF00089462B462046294611F08AF842460646F9
:109C00000F464B462046294611F082F802460B4685
:109C100000200B4911F058FB0B46024639463046EE
:109C200011F074F8BDE8F84300F0E6BDAFF3008032
:109C3000EF39FAFE422EE63FFFFFEF3FFFFFAF4155
:109C40000000F03F000000002DE9F047BE4B21F07E
:109C50000048984584B004460D4612DD08F140489E
:109C600008F58018034658EA030321D002460B4644
:109C700011F04CF802460B4611F026FB04B0BDE88B
:109C8000F087B24B98458A4629DCB8F1795F80F2BB
:109C9000658191A3D3E9002311F03AF80022AC4B7F
:109CA00011F078FCD8B12046294604B0BDE8F08711
:109CB0008BA3D3E9002311F0DDF98BA3D3E90023B3
:109CC00006460F462046294611F0D4F902460B46B7
:109CD0003046394611F01CF804B0BDE8F087204644
:109CE000294611F01BFF02460B460020984911F04F
:109CF0000DF80022974B11F0BDF97DA3D3E90023A5
:109D000004460D4611F0B6F97BA3D3E9002310F009
:109D1000FFFF22462B4611F0ADF979A3D3E90023CA
:109D200010F0F4FF22462B4611F0A4F976A3D3E9F4
:109D3000002310F0EDFF22462B4611F09BF974A38F
:109D4000D3E9002310F0E2FF22462B4611F092F9EE
:109D500071A3D3E9002310F0DBFF22462B4611F05C
:109D600089F96FA3D3E90023CDE9000120462946F4
:109D700011F080F96CA3D3E9002310F0C7FF22464D
:109D80002B4611F077F96AA3D3E9002310F0C0FF46
:109D900022462B4611F06EF967A3D3E9002310F099
:109DA000B5FF22462B4611F065F9694B002210F0F1
:109DB000AFFFCDE902012046294612F073FD664B44
:109DC000984506460F4666DCDDE90223DDE9000121
:109DD00011F07AFA3246CDE900013B463046394669
:109DE00010F096FF02460B46DDE9000111F042F942
:109DF0004FF00008CDE9000142463B464046394657
:109E000011F038F902460B462046294610F07EFF35
:109E1000424604460D463B463046394610F078FF30
:109E200002460B462046294611F04EFA02460B46E2
:109E300010F06EFF02460B462BA1D1E9000110F095
:109E400065FF02460B46DDE9000110F05FFF424668
:109E500004460D463B464046394610F059FF02463F
:109E60000B4637A1D1E9000110F050FF02460B4626
:109E70002046294610F04AFF02460B4630A1D1E9A0
:109E8000000110F043FFBAF1000F3FF7F7AE01F108
:109E900000431946F2E6DDE90223DDE9000111F095
:109EA00013FA32463B4611F0E5F832463B4610F0D5
:109EB0002FFF02460B4610F02BFF0BA3D3E9002324
:109EC00010F024FF02460B4605A1D1E9000110F075
:109ED0001DFFD8E7AFF300809C7500883CE4377E17
:109EE000182D4454FB21F93F075C143326A6913CFE
:109EF00009F7FD0DE13D023F88B20175E0EF493FF2
:109F00003B8F68B52882A43F5544880E55C1C93F90
:109F10007D6FEB0312D6D43F555555555555C53F6A
:109F200082922EB1C5B8B33F59018D1B6C06E63F36
:109F3000C88A599CE52A00404B2D8A1C273A0340C9
:109F4000182D4454FB21E93FFFFFEF3FFFFFDF3FA8
:109F50000000F03F0000E03F3233EF3F02460B4687
:109F600011F088F837A3D3E9002306460F4611F015
:109F700081F836A3D3E9002310F0CAFE32463B46EF
:109F800011F078F833A3D3E9002310F0BFFE324676
:109F90003B4611F06FF831A3D3E9002310F0B8FE6F
:109FA00032463B4611F066F82EA3D3E9002310F0A9
:109FB000ADFE32463B4611F05DF82CA3D3E90023F9
:109FC00010F0A6FE32463B4611F054F829A3D3E91F
:109FD0000023804689463046394611F04BF827A3C6
:109FE000D3E9002310F092FE32463B4611F042F8CE
:109FF00024A3D3E9002310F08BFE32463B4611F038
:10A0000039F822A3D3E9002310F080FE32463B4604
:10A0100011F030F800220A4B10F07AFE02460B468F
:10A020004046494611F050F922462B4611F022F8DD
:10A0300022462B4610F06CFE04B0BDE8F08700BF4E
:10A040000000F03F09F7FD0DE13D023F88B20175C8
:10A05000E0EF493F3B8F68B52882A43F5544880E06
:10A0600055C1C93F7D6FEB0312D6D43F55555555A9
:10A070005555C53F82922EB1C5B8B33F59018D1BCE
:10A080006C06E63FC88A599CE52A00404B2D8A1C85
:10A09000273A0340000000002DE9F84F1D465342C7
:10A0A000134325F0004ADFF8E0E14AEAD373734531
:10A0B000144606460F4647D8C0F1000848EA000893
:10A0C00021F0004343EAD878F0458B463CD805F1AF
:10A0D000404808F5801858EA020850D04FEAA578A1
:10A0E00008F0020848EAD17850EA030134D052EA75
:10A0F0000A023CD0F24557D0734538D0A3EB0A038F
:10A100001B153C2B42DC002D70DB22462B463046D3
:10A11000394611F0D9F811F001FDFEF751FBB8F105
:10A12000010F5FD0B8F1020F4ED0B8F1000F62D02E
:10A1300043A3D3E9002310F0E9FD43A3D3E90023AF
:10A1400010F0E4FDBDE8F88F32463B462046294634
:10A1500010F0DEFDBDE8F88FB8F1020F1AD0B8F1AB
:10A16000030F10D13AA1D1E90001BDE8F88FBBF18E
:10A17000000F14DB38A1D1E90001BDE8F88FBDE87C
:10A18000F84FFEF71DBB3946BDE8F88F32A1D1E983
:10A190000001C4E72CA1D1E90001BDE8F88F30A18E
:10A1A000D1E90001BDE8F88F534526D0B8F1020F80
:10A1B000F0D0B8F1030FD5D0B8F1010F4FF0000087
:10A1C00029D00021BDE8F88F1DA3D3E9002310F0AA
:10A1D0009DFD02460B461CA1D1E9000110F096FD41
:10A1E000BDE8F88F01F10041BDE8F88F3C338CDA0F
:10A1F0000020002193E7BDE8F88FB8F1020F18D0D6
:10A20000B8F1030F10D0B8F1010F08D016A1D1E9B1
:10A210000001BDE8F88F4FF00041BDE8F88F14A1B0
:10A22000D1E90001BDE8F88F13A1D1E90001BDE833
:10A23000F88F13A1D1E90001BDE8F88FAFF30080DA
:10A24000075C143326A6A13C182D4454FB21094079
:10A25000182D4454FB2109C0182D4454FB21F93F0B
:10A26000182D4454FB21F9BF182D4454FB21E93F1C
:10A27000182D4454FB21E9BFD221337F7CD902C081
:10A28000D221337F7CD902400000F07F0000000023
:10A2900043422DE9F047034321F000463E4A46EA97
:10A2A000D373934204460D4613D896423DD03B4BA0
:10A2B0009E428A4617DC36A3D3E9002310F028FD1E
:10A2C0000022002311F066F9A8B320462946BDE814
:10A2D000F08702460B4610F019FD02460B4610F0BF
:10A2E000F3FFBDE8F0872E4B9E42354624DD334612
:10A2F0000246314610F00CFD224606460F462B461C
:10A300000020254910F002FD02460B463046394632
:10A3100010F0DAFFFEF708FD0022224B10F0AAFE33
:10A32000BAF1000F2FDBBDE8F0870022002310F008
:10A33000CBFFBDE8F087354622462B46204629460E
:10A3400010F0E6FC22462B4606460F4610F092FE21
:10A350002246804689462B4600200F4910F0D6FC45
:10A3600002460B464046494610F0AEFF32463B4699
:10A3700010F0CEFCFEF7D8FC00220A4B10F07AFE5B
:10A38000BAF1000FCFDA01F100431946BDE8F087BA
:10A390009C7500883CE4377E0000F03FFFFF2F3EB5
:10A3A000FFFFDF3F0000E03F2DE9F8434E4B21F077
:10A3B00000449C4206460F461BDC4C4B9C4222DD6F
:10A3C0004B4B9C4263DD4B4B9C427BDD4A4B9C429A
:10A3D00046DD01339C4240D041A3D3E9002310461F
:10A3E000194610F047FE06460F4630463946BDE88E
:10A3F000F88302460B4610F03DFE06460F463046F7
:10A400003946BDE8F88311F089FB02F0B1FC002267
:10A410003A4B8046894610F07BFCB4F1725F0646E9
:10A420000F46ECDB42464B464046494610F022FEC2
:10A4300032463B4604460D463046394610F068FC2D
:10A4400002460B462046294610F03EFF00222B4BC9
:10A4500010F05EFC06460F46D1E7294B9842BBD868
:10A460003046394611F05AFB0022264B10F002FE0E
:10A4700000F04AF8002204460D46224B10F0FAFD87
:10A4800022462B4610F0F6FD06460F46B7E711F0C0
:10A4900045FB00F039F800221A4B06460F4610F033
:10A4A000E9FD32463B4604460D460020154910F0B2
:10A4B0000BFF02460B462046294610F029FC0646B3
:10A4C0000F469CE711F02AFB00F01EF800220D4B0E
:10A4D00010F0D0FD06460F4691E700BFAFF30080B5
:10A4E0009C7500883CE4377EFFFFEF7F422ED63F0D
:10A4F000FFFF3540412E8640CD3386400000F03FBF
:10A500007DF8B98F0000E03F2DE9F04FB04E21F00B
:10A510000042B24283B004460D464FEAD1770DD9CE
:10A52000AC4EB24225D9C1F31303034340F0EC8093
:10A530000FB10020002103B0BDE8F08FA64B9A4276
:10A5400000F2CB80A54B9A4200F2DC808AA3D3E9CB
:10A55000002310F0DDFB0022A14B11F01BF80028B6
:10A5600000F006812046294600229D4B10F0D0FBCA
:10A57000E1E783A3D3E9002311F00CF8002840F0B1
:10A58000C88081A3D3E900232046294610F0E4FFC8
:10A590000028CED1934E7EA3D3E9002306EBC70655
:10A5A0002046294610F066FDD6E9002310F0B0FBE6
:10A5B00011F010F8064610F0F7FC77A3D3E900235A
:10A5C0008046894610F056FD02460B462046294635
:10A5D00010F09CFB72A3D3E90023CDE900014046B3
:10A5E000494610F047FD82468B4652465B46DDE900
:10A5F000000110F08BFB04460D4622462B462046F8
:10A60000294610F037FD68A3D3E900238046894628
:10A6100010F030FD66A3D3E9002310F077FB42462B
:10A620004B4610F027FD64A3D3E9002310F070FB24
:10A6300042464B4610F01EFD61A3D3E9002310F003
:10A6400065FB42464B4610F015FD5FA3D3E900239E
:10A6500010F05EFB42464B4610F00CFD02460B46E6
:10A660002046294610F052FB80468946002E58D0DD
:10A670002046294642464B4610F0FCFC4246044622
:10A680000D464B4600204FF0804110F03FFB024644
:10A690000B462046294610F017FE02460B46504650
:10A6A000594610F033FBDDE9002310F02FFB0B4679
:10A6B00002464B49002010F029FB6FF47F739E4245
:10A6C00051DA06F57A7601EB065100224FF0B873A5
:10A6D00010F0D0FC03B0BDE8F08F434B9A423FF638
:10A6E00059AF424BFC002344D3E9002310F00EFB8A
:10A6F0003F4BC7F101062344CDE90001D3E900AB8C
:10A70000F61B72E7002678E702460B4610F000FBC6
:10A7100011E719A3D3E900231046194610F0AAFC4B
:10A7200009E702460B462046294610F0A3FC00220A
:10A7300006460F464FF080434046494610F0E6FA81
:10A7400002460B463046394610F0BEFD22462B46E7
:10A7500010F0DCFA02460B460020214910F0D6FA30
:10A7600003B0BDE8F08F01EB065103B0BDE8F08FF8
:10A77000064642E7AFF300809C7500883CE4377ED4
:10A78000EF39FAFE422E864051302DD5104987C050
:10A79000FE822B654715F73F0000E0FE422EE63FA4
:10A7A000763C7935EF39EA3DD0A4BE726937663E12
:10A7B000F16BD2C541BDBB3E2CDE25AF6A56113FC1
:10A7C00093BDBE166CC1663F3E5555555555C53FA8
:10A7D000412E8640FFFFEF7F422ED63FFFFF2F3EE8
:10A7E0000000F03F68FE0108B1A2F03F78FE0108CA
:10A7F00088FE0108000000002DE9F04FB1F5801F30
:10A8000085B006460F460B465ADA024621F0004450
:10A81000224300F0F8800029C0F27A810022D64B52
:10A8200010F028FCD54A0B46934206460F466FF0BF
:10A83000350C4ADCC3F3130505F5152E0EF6647EC0
:10A840000EF4801E8EF07F5282F440121C1542EAF4
:10A850000507A4F2FF3464440022C94B3046394650
:10A8600004EB1E5410F052FAAB1CC3F31303022B7B
:10A8700082468B464FF0000230DC002310F062FE6F
:10A88000002800F0C980002C00F04B81204610F019
:10A890008BFBA5A3D3E9002306460F4610F0EAFB85
:10A8A000A3A3D3E9002304460D463046394610F0F1
:10A8B000E1FB02460B462046294610F029FA0AE041
:10A8C000AE4A93424FF0000CB4DD32463B46304670
:10A8D000394610F01DFA05B0BDE8F08F4FF0804307
:10A8E00010F016FA02460B465046594610F0ECFCA2
:10A8F000064620460F4610F057FB3246CDE90001D0
:10A900003B4630463946CDE9026710F0B3FB0246BC
:10A910000B468046894610F0ADFB87A3D3E90023A0
:10A9200006460F4610F0A6FB85A3D3E9002310F0DE
:10A93000EFF932463B4610F09DFB83A3D3E9002399
:10A9400010F0E6F932463B4610F094FB80A3D3E9C1
:10A95000002310F0DDF942464B4610F08BFB7EA33E
:10A96000D3E90023804689463046394610F082FB01
:10A970007BA3D3E9002310F0CBF932463B4610F01D
:10A9800079FB79A3D3E9002310F0C2F932463B46A4
:10A9900010F070FB0B4602464946404610F0B8F9ED
:10A9A000A5F5C223C5F5D725A3F27A4351351D433A
:10A9B000002D8046894656DD0022724B504659468E
:10A9C00010F058FB52465B4610F054FB06460F460B
:10A9D000002C68D132463B464046494610F098F973
:10A9E000DDE9022310F046FB02460B4630463946AD
:10A9F00010F08CF902460B465046594610F086F985
:10AA000005B0BDE8F08F0022002300205E4910F061
:10AA10005BFC05B0BDE8F08F55A3D3E90023504699
:10AA2000594610F027FB02460B460020554910F00E
:10AA30006DF9524606460F465B465046594610F0A1
:10AA400019FB02460B463046394610F013FB06460A
:10AA50000F46002C40F09A8002460B46504659465D
:10AA600010F054F937E7002C00F0A4802EA3D3E9AE
:10AA70000023DDE9000110F0FDFA42464B46044692
:10AA80000D465046594610F041F9DDE9022310F019
:10AA9000F1FA27A3D3E9002306460F46DDE90001BA
:10AAA00010F0E8FA21E020A3D3E90023DDE900015A
:10AAB00010F0E0FA32463B4604460D464046494611
:10AAC00010F026F9DDE9022310F0D4FA18A3D3E937
:10AAD000002380468946DDE9000110F0CBFA0246EA
:10AAE0000B464046494610F013F902460B463046E5
:10AAF000394610F00BF952465B4610F007F9024652
:10AB00000B462046294610F001F905B0BDE8F08F4C
:10AB100002460B4610F0FAF80022002310F0D4FB96
:10AB2000D9E600200021D6E60000E0FE422EE63FF6
:10AB3000763C7935EF39EA3D44523EDF12F1C23FAF
:10AB4000DE03CB966446C73F599322942449D23FF3
:10AB5000935555555555E53F9FC678D0099AC33F43
:10AB6000AF788E1DC571CC3F04FA97999999D93F5A
:10AB7000555555555555D53F00005043FFFFEF7FC4
:10AB80000000F03F0000E03F000050C3204610F0FE
:10AB90000BFA0FA3D3E900238046894610F06AFA26
:10ABA0000DA3D3E9002304460D464046494610F064
:10ABB00061FA9AE702460B465046594610F0A6F84D
:10ABC000DDE9022310F056FA14E700BFAFF300806E
:10ABD0000000E0FE422EE63F763C7935EF39EA3D53
:10ABE000B1F5801F2DE9F84304460D460B461ADAED
:10ABF000024621F00046324359D000295FDB002293
:10AC00003B4B10F037FA3B4A0D462B469342044625
:10AC10006FF035010CDD22462B462046294610F008
:10AC200077F8BDE8F883334A93424FF00001F2DC35
:10AC30001815A0F2FF3008444FEAD0794844C3F316
:10AC4000130810F0B1F9C9F57F73033348EA0355CF
:10AC500006460F4620462946FFF7CEFD1EA3D3E940
:10AC60000023804689463046394610F003FA1CA37B
:10AC7000D3E9002304460D464046494610F0FAF950
:10AC800002460B462046294610F042F816A3D3E9A7
:10AC9000002304460D463046394610F0EBF90246D3
:10ACA0000B462046294610F033F8BDE8F883002211
:10ACB00000230020104910F007FBBDE8F88302468E
:10ACC0000B4610F023F80022002310F0FDFABDE837
:10ACD000F88300BFAFF30080362BF111F3FE593D2E
:10ACE0000EE526157BCBDB3F00609F501344D33F1E
:10ACF00000005043FFFFEF7F000050C30000000042
:10AD00002DE9F04F23F0004757EA020493B037D003
:10AD1000674C21F00046A64283460D4629DC9A4640
:10AD2000964625D0A74224DC614CA74279D0002D5D
:10AD300080468946CDE9002377DB0024BEF1000F71
:10AD40002CD15B4B9F4200F08B805A4B9F4261D0CD
:10AD5000BAF1804F00F0C383574B9A451ED1002DA6
:10AD60001CDB4046494613B0BDE8F04F11F09ABDD8
:10AD700058B106F1404606F5801656EA0B0306D197
:10AD80004C49002013B0BDE8F08FB742CCDD4B48F2
:10AD900013B0BDE8F04F12F015BC00244046494600
:10ADA00010F0BCFEBBF1000F19D126B1414B25F0CC
:10ADB00040429A4213D1BAF1000FC0F2CA83002D6B
:10ADC000E0DA06F1404606F5801656EA040300F084
:10ADD000A584012CD6D101F100431946D2E7ED0F2D
:10ADE000013D54EA05034ED0354B9F426EDD03F121
:10ADF00004739F4240F3FE83324B9E424EDDBAF114
:10AE0000000F4EDD28A3D3E900231046194610F0A9
:10AE100031F9B7E7BAF1000FC0F252844046494613
:10AE2000B0E7BEF1000F82D0A3E7274B9F4228DC9A
:10AE3000A3F154739F4280DD3B15A3F2FF33142B23
:10AE400040F35484C3F134032EFA03F202FA03F3FD
:10AE50009E457FF472AF02F00102C2F102046DE779
:10AE600006F1404303F5801353EA0B0388D0154BDA
:10AE70009E4240F33B83BAF1000F12DBDDE9000193
:10AE800080E702245AE742464B46104619460FF027
:10AE90003DFF02460B4610F017FA73E7BAF1000FB8
:10AEA000B0DB002000216DE79C7500883CE4377E14
:10AEB0000000F07F0000F03F0000E03FA402020825
:10AEC0000000E041FFFFEF3FFFFF3F43B6F5801F6B
:10AED0004FF0000205DAD84B10F0CCF86FF03402D6
:10AEE0000E463315D54FC6F31306A3F2FF331344B2
:10AEF00046F07F5ABE421A460D934AF4401A40F378
:10AF00002F83CF4B9E4240F30D849FEDB57B8DED9B
:10AF1000087B8DED0E7B9FEDB47B13468DED067B9C
:10AF200001330D93AAF5801A0027DDE90623514667
:10AF3000CDE90A010FF0EAFEDDE9062380468946E5
:10AF4000DDE90A010FF0E4FE02460B460020BD4990
:10AF500010F0BAF90A460146CDE9101213464946E7
:10AF60000246404610F086F84FEA6A0343F0005369
:10AF70008C46834603F50023CDE904BCDA468B46B4
:10AF8000D9190023CDE902AB0293DDE902AB002021
:10AF900006460F4602460B465046594610F06AF8E0
:10AFA00002460B46404649460FF0B0FEDDE9062357
:10AFB00080468946304639460FF0A8FE02460B46C9
:10AFC000DDE90A010FF0A2FE52465B4610F052F88E
:10AFD00002460B46404649460FF098FEDDE9102335
:10AFE00010F048F8DDE90467CDE9060132463B463A
:10AFF0003046394610F03EF87DA3D3E900230646DB
:10B000000F4610F037F87CA3D3E900230FF080FE41
:10B0100032463B4610F02EF879A3D3E900230FF017
:10B0200077FE32463B4610F025F877A3D3E900239C
:10B030000FF06EFE32463B4610F01CF874A3D3E9C5
:10B0400000230FF065FE32463B4610F013F872A362
:10B05000D3E900230FF05CFE3246804689463B462A
:10B060003046394610F006F802460B46404649463F
:10B0700010F000F8524606460F465B46DDE9040133
:10B080000FF046FEDDE906230FF0F4FF32463B46A3
:10B090000FF03EFE5246804689465B465046594672
:10B0A0000FF0E8FF0022684BCDE90A010FF030FEF7
:10B0B00042464B460FF02CFE02980F46064632469B
:10B0C0003B46504659460FF0D5FF002282468B463C
:10B0D0005D4B304639460FF019FEDDE90A230FF0CB
:10B0E00015FE02460B46404649460FF00FFEDDE9CD
:10B0F00004230FF0BFFF3246804689463B46DDE918
:10B1000006010FF0B7FF02460B46404649460FF0D6
:10B11000FFFD8046894602460B4650465946CDE91A
:10B1200004AB0FF0F5FDDDE902AB3DA3D3E900234D
:10B1300050460F460FF09EFFDDE90423CDE90201E2
:10B14000394650460FF0E2FD02460B46404649465E
:10B150000FF0DCFD34A3D3E900230FF08BFF34A301
:10B16000D3E9002380468946504639460FF082FFD6
:10B1700002460B46404649460FF0CAFDDDE90E2364
:10B180000FF0C6FD80460D9889460FF00DFF424630
:10B1900006460F464B46DDE902010FF0B9FDDDE939
:10B1A00008230FF0B5FD32463B460FF0B1FD3246A5
:10B1B0003B4650468B460FF0A9FDDDE908230FF012
:10B1C000A5FDDDE902230FF0A1FD02460B46404636
:10B1D00049460FF09BFD8046894637E0AFF300807B
:10B1E0000000000000000000000000000000F03F30
:10B1F000EF4E454A287ECA3F65DBC9934A86CD3F5C
:10B2000001411DA96074D13F4D268F515555D53F41
:10B21000FFAB6FDBB66DDB3F033333333333E33FD9
:10B22000000000E009C7EE3FFD033ADC09C7EE3F2E
:10B23000F5015B14E02F3EBE000040438E980300F2
:10B2400079B60B000000F03F00000840013C54EAD2
:10B25000050300F079819FEDC87B8DED047BDDE96E
:10B2600000120B461446CDE9023400230293DDE9B7
:10B27000024508462B46114622460FF047FD52462E
:10B280005B460FF0F7FEDDE9002306460F46404619
:10B2900049460FF0EFFE02460B46304639460FF0A6
:10B2A00037FD2246804689462B4650465946CDE911
:10B2B00000890FF0DFFE0B46024606460F46404669
:10B2C00049460FF025FDC64B994204460D468A4675
:10B2D00040F3168101F13F4303F5E003034340F0DF
:10B2E000F781A7A3D3E90023DDE900010FF010FDEA
:10B2F0003246804689463B46204629460FF006FDE9
:10B3000002460B464046494610F044F9002840F0FA
:10B31000DF81A8464FEA28534FF48012A3F2FE3390
:10B3200042FA03F35344C3F30A52AE4DA2F2FF3282
:10B330001541C3F3130423EA05010020C2F1140BE5
:10B3400044F48014BAF1000F02460B4644FA0BFB9A
:10B3500030463946B8BFCBF1000B0FF0D7FC0246A0
:10B360000B4606460F46DDE900010FF0D1FC4FEA1F
:10B370000B5A0D46002484A3D3E900232046294616
:10B380000FF078FE3246804689463B4620462946E5
:10B390000FF0BCFC02460B46DDE900010FF0B6FCE5
:10B3A0007BA3D3E900230FF065FE7BA3D3E9002341
:10B3B00006460F46204629460FF05CFE02460B4625
:10B3C000304639460FF0A4FC06460F4602460B46AF
:10B3D000404649460FF09CFC42464B4604460D460B
:10B3E0000FF094FC02460B46304639460FF08EFCB7
:10B3F0002246804689462B46204629460FF03AFED3
:10B4000067A3D3E9002306460F460FF033FE66A379
:10B41000D3E900230FF07AFC32463B460FF02AFEB8
:10B4200063A3D3E900230FF073FC32463B460FF0D1
:10B4300021FE61A3D3E900230FF068FC32463B46AE
:10B440000FF018FE5EA3D3E900230FF061FC324633
:10B450003B460FF00FFE02460B46204629460FF0F2
:10B4600055FC06460F4602460B46204629460FF07D
:10B4700001FE0022CDE900014FF0804330463946FD
:10B480000FF044FC02460B46DDE900010FF01CFF03
:10B49000424606460F464B46204629460FF0EAFD37
:10B4A00042464B460FF034FC02460B4630463946C6
:10B4B0000FF02CFC22462B460FF028FC02460B46D0
:10B4C000002049490FF022FC8A44BAF5801FC0F2DF
:10B4D00039815146DDE904230FF0CCFD52E44246A8
:10B4E0004B46404649460FF0C5FD4BE4BAF1000F0C
:10B4F000BFF6D7ACDDE90034184604F1004141E461
:10B500003A4B21F00048984540F3FF80384B0B44FC
:10B5100003430CD132463B460FF0F8FB02460B4684
:10B52000DDE9000110F022F800283FF4F3AEDDE978
:10B53000040125A3D3E900230FF09CFD22A3D3E946
:10B5400000230FF097FD1DE49FED217B8DED047B23
:10B5500085E602460B46002023490FF0B5FE2EE497
:10B560009FED1D7B8DED087B8DED0E7B9FED027BAE
:10B5700000278DED067BD8E4000000000000F03FBE
:10B58000FE822B654715973C00000000432EE63FE6
:10B59000EF39FAFE422EE63F396CA80C615C20BE02
:10B5A000D0A4BE726937663EF16BD2C541BDBB3EC9
:10B5B0002CDE25AF6A56113F93BDBE166CC1663FA7
:10B5C0003E5555555555C53F59F3F8C21F6EA50157
:10B5D000000000000000F0BF0000000000000000BC
:10B5E000FFFF8F40FFFF0F000000F03FFFCB9040B8
:10B5F00000346F3F684B9E427FF750AC674B9E42D2
:10B600003FF7FDAB0022654B0FF080FB52A3D3E95F
:10B61000002306460F460FF02DFD51A3D3E900236A
:10B6200080468946304639460FF024FD0022824686
:10B630008B465B4B304639460FF01CFD02460B46ED
:10B6400049A1D1E900010FF061FB32463B460FF002
:10B6500011FD02460B46002052490FF057FB3246BF
:10B66000CDE902013B46304639460FF003FD024664
:10B670000B46DDE902010FF0FDFC3DA3D3E90023F9
:10B680000FF0F8FC02460B46504659460FF03EFBC1
:10B6900002460B4606460F46404649460FF038FB29
:10B6A00042464B46002082468B460FF02FFB024657
:10B6B0000B46304639460FF029FB80468946C5E5E2
:10B6C00042464B46002035490FF0FEFDFFF75ABBBE
:10B6D000DDE9040128A3D3E900230FF0CBFC26A366
:10B6E000D3E900230FF0C6FCFFF74CBBBEF1000FFF
:10B6F0007FF453ABC3F1140347FA03F202FA03F3E6
:10B700009F4223D07446FFF720BB264B98453FF756
:10B7100001AEDDE90223924693462BE602460B4634
:10B72000FFF7B3BB9FED167B8DED087B9FED167B7E
:10B730008DED0E7B9FED167B4FF480278DED067B04
:10B74000FFF7F3BB5A4601F04FFDC3E602F00102DA
:10B75000C2F10204FFF7F9BA000000604715F73F95
:10B7600044DF5DF80BAE543E555555555555D53F04
:10B77000FE822B654715F73F9C7500883CE4377EB9
:10B780000000004003B8E23F06D0CF43EBFD4C3E43
:10B79000000000000000F83FFEFFEF3F0000F03F18
:10B7A0000000D03F0000E03F2DE9F0479C4B21F026
:10B7B00000479F4290B08046894640F38E80994B67
:10B7C0009F420C46924626DC00298BA3D3E9002336
:10B7D00040F3B0810FF09AFA934B9F4204460D4616
:10B7E00000F0908086A3D3E900230FF08FFA024681
:10B7F0000B46CAE90023204629460FF087FA80A3AA
:10B80000D3E900230FF082FA0125CAE90201284694
:10B8100010B0BDE8F087854B9F4240F39080844B89
:10B820009F4265DC3D15A5F21645A7EB0553194669
:10B830001F4606460FF0CEFE0FF0B6FB8046894647
:10B8400042464B4630463946CDE90A890FF05EFA4A
:10B850000022784B0FF00EFC894680460FF0BAFEAE
:10B860000FF0A2FB06460F4632463B46404649468D
:10B87000CDE90C670FF04AFA00226E4B0FF0FAFB8D
:10B8800000220023CDE90E010FF05CFE002800F03D
:10B890006F8100233046394600220FF053FE002806
:10B8A00014BF01230223644A019202212A46009117
:10B8B0000AA8514600F08CFB002C054614DADAF891
:10B8C0000420DAF80C3002F1004203F10043454253
:10B8D000CAF80420CAF80C3006E000200021C2E9B2
:10B8E0000089C2E902010025284610B0BDE8F087B2
:10B8F00002460B460FF00AFA0025CAE90201CAE91E
:10B900000001F1E740A3D3E900230FF0FFF940A3C2
:10B91000D3E900230D4604460FF0F8F902460B4622
:10B92000CAE90023294620460FF0F0F938A3D3E9ED
:10B9300000230FF0EBF90125CAE90201D4E710F06A
:10B94000EDF835A3D3E90023804689460FF092FB3A
:10B9500000223A4B0FF0DCF90FF03CFE05460FF0E9
:10B9600023FB25A3D3E90023CDE906010FF082FBD9
:10B9700002460B46404649460FF0C8F920A3D3E9DA
:10B980000023CDE90201DDE906010FF073FB1F2D55
:10B9900080468946CDE9048954DC294B6A1E53F858
:10B9A00022309F424ED002460B46DDE902010FF0E5
:10B9B000ADF980468946CAE9008942464B46DDE931
:10B9C00002010FF0A3F9DDE904230FF09FF9002C29
:10B9D000CAE9020188DA09F1004401F100436D422D
:10B9E000CAF80080CAF80440CAF80800CAF80C3047
:10B9F0007AE700BFAFF3008000004054FB21F93F1D
:10BA00003163621A61B4D03D0000601A61B4D03D68
:10BA10007370032E8A19A33B83C8C96D305FE43F5E
:10BA2000FB21E93F7BD90240FB21F93FFB21394152
:10BA3000FFFFEF7F00007041A00D02080000E03F13
:10BA4000200D0208DDE90423DDE902010FF05EF9B3
:10BA50003F15C1F30A53FB1A80468946102BCAE9E9
:10BA60000089AADD58A3D3E90023DDE906010FF020
:10BA700001FB8046894602460B46DDE902010FF0D4
:10BA800045F902460B46DDE90201CDE908230FF036
:10BA90003DF942464B460FF039F94DA3D3E9002357
:10BAA00080468946DDE906010FF0E4FA42464B463E
:10BAB0000FF02CF90B46CDE904010246DDE908013F
:10BAC0000FF024F9C1F30A53FF1A80468946312F3B
:10BAD000CAE900896CDD41A3D3E90023DDE9060151
:10BAE0000FF0C8FADDE9088906460F4602460B4604
:10BAF000404649460FF00AF902460B464046494681
:10BB0000CDE902230FF002F932463B460FF0FEF872
:10BB100034A3D3E9002306460F46DDE906010FF002
:10BB2000A9FA32463B460FF0F1F802460B46CDE942
:10BB300004233AE70FF0ECF8274B9F4204460D46EA
:10BB400018D01FA3D3E900230FF0E2F802460B46FA
:10BB5000CAE90023294620460FF0D8F818A3D3E9F4
:10BB600000230FF0D5F84FF0FF35CAE90201BBE61C
:10BB7000032398E614A3D3E900230FF0C9F814A314
:10BB8000D3E900230D4604460FF0C2F802460B46E7
:10BB9000CAE90023294620460FF0B8F80CA3D3E9E0
:10BBA00000230FF0B5F84FF0FF35CAE902019BE61C
:10BBB0009DED087B8DED027BFFE600BFAFF30080BB
:10BBC0003163621A61B4D03D0000601A61B4D03DA7
:10BBD0007370032E8A19A33BFB21F93F0000002E4E
:10BBE0008A19A33BC14920259A837B3900000000B4
:10BBF000594A2DE9F84F21F00048904506460F4676
:10BC00002BDC564B0029B4BF554D564D98454FF08F
:10BC1000000410DC544B984570DC4DA3D3E900239D
:10BC20000FF076F80022514B0FF0B4FCD8B130463B
:10BC30003946BDE8F88F4E4B98457CDD4D4B984515
:10BC400044DD013398453ED03046394640A3D3E920
:10BC500000230FF00FFABDE8F88F02460B460FF0F5
:10BC600057F8BDE8F88F304639460FF057FF01F01E
:10BC70007FF806460F4632463B46304639460FF0BF
:10BC800047F8324682468B463B46304639460FF0EF
:10BC9000F1F9002280468946344B304639460FF090
:10BCA00037F802460B46404649460FF00DFB024668
:10BCB0000B46504659460FF029F822462B460FF006
:10BCC000D9F9BDE8F88F2C4B9842BDD8304639469B
:10BCD0000FF024FF0022234B0FF0CCF9FEF714FCE9
:10BCE00006460F4602460B46204629460FF0C2F98B
:10BCF00032463B460FF0BEF9BDE8F88F0FF00EFF5D
:10BD000001F036F81D4B984506460F46B3DD00227C
:10BD1000164B0EF0FDFF02460B46304639460FF03B
:10BD2000D3FA32463B460EF0F3FF22462B460FF085
:10BD3000A1F9BDE8F88F0FF0F1FEFEF7E5FB024632
:10BD40000B46204629460FF095F9BDE8F88F00BF55
:10BD50003374AC3C1F7BAC7FFFFFEF7FFFFF3540B0
:10BD60000000E0BF0000E03FFFFF2F3E0000F03F7B
:10BD7000412E8640CD3386407DF8B98FFFFFEF3FDF
:10BD80002DE9F04F21F00048B8F1795F85B0064603
:10BD90000F4692469B466BDA0FF01CFC002800F021
:10BDA000EA8032463B46304639460FF063F974A3C9
:10BDB000D3E9002304460D460FF05CF972A3D3E9E2
:10BDC00000230EF0A5FF22462B460FF053F970A377
:10BDD000D3E900230EF09AFF22462B460FF04AF9D2
:10BDE0006DA3D3E900230EF093FF22462B460FF0FC
:10BDF00041F96BA3D3E900230EF088FF22462B46BE
:10BE00000FF038F968A3D3E900230EF081FF224632
:10BE10002B460FF02FF9CDE900010022664B20469A
:10BE200029460FF027F9DDE90023804689462046A0
:10BE300029460FF01FF9524604460D465B46304630
:10BE400039460FF017F902460B46204629460EF0F8
:10BE50005DFF02460B46404649460EF057FF02463C
:10BE60000B46002055490EF051FF05B0BDE8F08F9C
:10BE700002460B460FF0FEF841A3D3E90023044627
:10BE80000D460FF0F7F840A3D3E900230EF040FF72
:10BE900022462B460FF0EEF83DA3D3E900230EF027
:10BEA00035FF22462B460FF0E5F83BA3D3E90023EC
:10BEB0000EF02EFF22462B460FF0DCF838A3D3E914
:10BEC00000230EF023FF22462B460FF0D3F836A3B3
:10BED000D3E900230EF01CFF2B4622460FF0CAF8D0
:10BEE000374B9845CDE9000197DD364B984539DC55
:10BEF000A8F50013002200203049904699460EF024
:10BF000005FFCDE9020100222B4B204629460FF008
:10BF1000B1F842464B460EF0F9FEDDE900238046BB
:10BF20008946204629460FF0A5F8524604460D469C
:10BF30005B46304639460FF09DF802460B462046D8
:10BF400029460EF0E3FE02460B46404649460EF0F7
:10BF5000DDFE02460B46DDE902010EF0D7FE05B01C
:10BF6000BDE8F08F9FED127B4FF000088DED027B56
:10BF7000DFF85490C7E71149002005B0BDE8F08F05
:10BF8000D43888BEE9FAA8BDC4B1B4BD9EEE213E46
:10BF9000AD529C804F7E923E9015CB19A001FA3E87
:10BFA0007751C1166CC1563F4C5555555555A53F57
:10BFB000000000000000E73F0000E03F0000F03F0D
:10BFC0003233D33F0000E93F0000D23F00000000C1
:10BFD0002DE9F04FADF51B7D9F4CA49E9F4D54F86D
:10BFE000264007942646D41E85FB0475E417C4EB4F
:10BFF000A50424EAE4741D460A93631CA3EB83039F
:10C00000013D02EBC30306932B460B940395651B7E
:10C01000F418049008911AD42C4400260027013407
:10C020000DF18808DDF8949208E059F825000EF02B
:10C03000BBFF0135A542E8E8020108D0002DF4DA83
:10C04000013530463946A542E8E80201F6D1079BA2
:10C05000002BC0F2DF83079B03F1010B0A9B22A98F
:10C06000DB001A4601EB03090093049B0DF5E47A0B
:10C0700019460AEBCB0B01EB0208039B002BC0F225
:10C08000F582049C4D460026002775E90223F4E85A
:10C0900002010EF0EFFF02460B46304639460EF025
:10C0A00037FE444506460F46EFD1EAE80267DA4517
:10C0B00009F10809E1D107990098049C009101F168
:10C0C0008043013B9B0020441A1F83460EA8024474
:10C0D00003440C920D93009A9AA901EBC203002A23
:10C0E00053E9284529DD0DF5E47A0AEBC2080DF184
:10C0F000340900225A4B204629460EF0BBFF0FF0B0
:10C1000069FA0EF051FF0022564B06460F460EF01C
:10C11000B1FF02460B46204629460EF0F7FD0FF010
:10C1200059FA78E9022349F8040F394630460EF0EF
:10C13000EFFDD04504460D46DBD1DDF818902046D2
:10C1400029464A4601F050F800224FF07F5304463A
:10C150000D460EF08FFFFCF75FFD0022424B0EF004
:10C1600089FF02460B46204629460EF0CFFD0D46BC
:10C1700004460FF02FFA80460EF016FF0B460246DB
:10C18000294620460EF0C2FD4B46002B06460F46C0
:10C1900040F3F980009A0EA9013AC9F1180351F849
:10C1A000225045FA03F101FA03F30EA8EB1A40F806
:10C1B0002230C9F11705884443FA05F5002D6DDDDD
:10C1C000009B002B08F1010840F36F820E9C002CAD
:10C1D00040F01683009B012B40F38F820EAA0123AF
:10C1E00052F8044F002C00F08382581C0EAAC4F1B0
:10C1F000807442F82340009A824219DD0EAA0EACE8
:10C2000052F820106FF07F42511A44F82010009924
:10C21000023399420CDD1046009A0EA901EB83030C
:10C2200001EB82011A68821A43F8042B8B42F9D180
:10C23000069B002B1ADD069B012B4FF0010440F0FA
:10C240003C82009B5A1E0EAB0EA953F82230C3F35A
:10C25000160341F822303CE240120208ABAAAA2A97
:10C260000000703E0000704100002040022D15D1FA
:10C2700032463B46002092490EF048FD06460F46E6
:10C28000069A8F49002000F0AFFF02460B46304669
:10C2900039460EF03BFD022506460F4600220023DC
:10C2A000304639460FF04EF9002800F03782009AE8
:10C2B000079B501E83420FDC02F18043013B0EAA14
:10C2C0000D9C02EB8303002253F80419A34242EAB7
:10C2D0000102F9D1002A67D1079B0EAA013B52F84F
:10C2E0002330002B40F018820C9A012352F80419D5
:10C2F00001330029FAD0009AD31802F1010A9A45B5
:10C3000009933DDC009B0A990B9A0B4409990AEBAF
:10C310000208994622AB08F1804803EBC9098B1843
:10C32000A59A08F1FF3802EB880872AA02EBCA0A44
:10C33000A59A02EB8303009358F8040F0EF034FE25
:10C34000039B002BE9E802014FF000064FF00007C5
:10C3500011DB049C4D4675E90223F4E802010EF05E
:10C3600089FE02460B46304639460EF0D1FC5C454C
:10C3700006460F46EFD1009B9845EAE80267DBD1FD
:10C38000099B0093A7E606D1009B0EAA013B52F839
:10C390002350ED1512E700224A4B0FF0F1F8002868
:10C3A00040F06E81054679E70EA9039551F82030DB
:10C3B0000699CDF8248018390246009006916BB991
:10C3C00000F18043013B0EA800EB830353F80409FE
:10C3D000013A18390028F9D000920691069A384996
:10C3E000002000F001FF009B002B04460D46C0F228
:10C3F000F781DA0072A901EB020B06920EAA02EB9A
:10C400008306DFF8C4904FF000080BF108070436EC
:10C4100056F8040D0EF0C8FD22462B460EF02AFEFB
:10C420004B4667E902014246204629460EF022FEAD
:10C430000EAB9E4204460D46EAD14AACDDF81C9094
:10C4400004944FF0000AB9F1000FC0F22B81DFF81D
:10C450007C805D4618A1D1E9000100260027002458
:10C4600003E0544510DCF8E80201F5E802230EF081
:10C4700001FE02460B46304639460EF049FC0134B7
:10C48000A14506460F46ECDA049B03EBCA03ABF169
:10C49000080BC3E9006770AB9B450AF1010AD2D1D2
:10C4A000A49B049C032B00F28980DFE803F0C58E77
:10C4B0008E1100BFAFF3008000000040FB21F93F68
:10C4C0000000F03F0000E03F0000703EB0FE0108B9
:10C4D000009B002B40F38181069A04EB020ADAE903
:10C4E000008902F1080525440DF5987B1AED027BC1
:10C4F00042464B4651EC170B8DED047B0EF008FCC9
:10C5000006460F4602460B46DDE904010EF0FEFB2F
:10C5100042464B460EF0FCFB65E902015D45B04624
:10C52000B9466AE90267E1D1009B012B40F35581CE
:10C53000069BE518D5E9008903F1080B04EB0B0A0B
:10C5400015ED027B42464B4651EC170B8DED007BFF
:10C550000EF0DEFB06460F4602460B46DDE9000103
:10C560000EF0D4FB4B4642460EF0D2FB6AE90201C4
:10C570004EAB5345B046B94665E90267E0D10020AD
:10C58000002104EB0B0575E902230EF0C1FBAA455F
:10C59000F9D1039B002B00F00A816268E368089FD1
:10C5A0002568A4683D6002F1004203F1004301F1F7
:10C5B00000417A60FB60BC6038617961099B03F0DF
:10C5C00007000DF51B7DBDE8F08F069D083525445D
:10C5D0000020002175E902230EF09AFBA542F9D153
:10C5E000039B002B00F0D280089E024601F100431D
:10C5F00086E80C000B460246D4E900010EF086FBEB
:10C60000009B002B0BDD4CAD0124F5E802230EF05E
:10C610007FFB009B0134A342F7DA039B13B101F1C6
:10C6200000431946089BC3E90201099B03F0070078
:10C630000DF51B7DBDE8F08F069D0835002000211B
:10C64000254475E902230EF063FBAC42F9D1039B4C
:10C6500013B101F100431946089BC3E90001099B8E
:10C6600003F007000DF51B7DBDE8F08F00260027C5
:10C67000EAE80267DA4509F108097FF4FEAC1AE539
:10C68000009B002B08F10108C8BF02253FF79EADB3
:10C6900032463B46002061490EF038FB0225064633
:10C6A0000F46FBE500260027EEE6069B002B27DD64
:10C6B0000024069B012B3FF4C4AD022B09D1009B43
:10C6C0005A1E0EAB0EA953F82230C3F3150341F8DE
:10C6D0002230022D7FF4E2AD32463B4600204F4926
:10C6E0000EF014FB06460F46002C3FF4D7ADC7E50D
:10C6F0000099013399427FF473AD069B002BD8DC7F
:10C70000022D7FF4CBAD32463B46002043490EF06C
:10C71000FDFA06460F46C1E50123ECE53946069FC2
:10C7200003957A423046CDF8248000F05DFD00226A
:10C730003B4B04460D460EF023FF002843D0002259
:10C74000384B204629460EF095FC0EF043FF064676
:10C750000EF02AFC0022324B0EF08CFC02460B46F7
:10C76000204629460EF0D2FA0EF034FF00990B460F
:10C7700001331A4600933B46183306930B460EA925
:10C7800041F82300134641F8236027E6089B024640
:10C79000C3E900010B46D4E900010EF0B7FA009B93
:10C7A000002B3FF730AF089BC3E902013DE7D4E916
:10C7B0000067D4E90223089DC5E90401C5E90067C3
:10C7C000C5E90223FAE6294620460EF003FF009A47
:10C7D0000EA941F8220001E64AAC00200021D8E66B
:10C7E000A49B032B3FF6EAAE01A252F823F000BF50
:10C7F0000FC8000807C8000807C80008D9C7000804
:10C8000001200023F2E4002000214AACE8E60020E9
:10C8100000211CE70A9BDB0000934CE40000F03F82
:10C82000000070410000703E2DE9F04F21F00046FD
:10C83000B6F1795F85B004460D469046994604DA14
:10C840000EF0C8FE002800F0858022462B462046C8
:10C8500029460EF00FFC06460F4602460B462046C0
:10C8600029460EF007FC41A3D3E9002382468B46FC
:10C87000304639460EF0FEFB3EA3D3E900230EF00E
:10C8800045FA32463B460EF0F5FB3CA3D3E90023C4
:10C890000EF03EFA32463B460EF0ECFB39A3D3E9EC
:10C8A00000230EF033FA32463B460EF0E3FB37A38B
:10C8B000D3E900230EF02CFA0E9BCDE900019BB3C7
:10C8C0000022294B404649460EF0D4FBDDE9002307
:10C8D000CDE90201504659460EF0CCFB02460B460C
:10C8E000DDE902010EF012FA32463B460EF0C2FBC1
:10C8F00042464B460EF00AFA19A3D3E90023064636
:10C900000F46504659460EF0B5FB02460B463046E0
:10C9100039460EF0FDF902460B46204629460EF038
:10C92000F5F905B0BDE8F08F02460B4630463946B2
:10C930000EF0A0FB0AA3D3E900230EF0E7F952465C
:10C940005B460EF097FB22462B460EF0E1F905B050
:10C95000BDE8F08F2046294605B0BDE8F08F00BF46
:10C96000495555555555C53F0000E03F7CD5CF5A38
:10C970003AD9E53DEB9C2B8AE6E55A3E7DFEB15760
:10C98000E31DC73ED561C119A0012A3FA6F81011C9
:10C990001111813F000000002DE9F04FBE4C21F045
:10C9A000004687B0A64282468B460F46CDE900235B
:10C9B0001BDC0EF00FFE002837D153461E43109BA0
:10C9C0000133334300F0B381109B012B00F0C88189
:10C9D00052465B460020B1490EF076FC04460D46F7
:10C9E0002046294607B0BDE8F08FAD4B9E421CDDC6
:10C9F0000029C0F2A98152465B4687A1D1E9000116
:10CA00000EF084F9DDE9002304460D4684A1D1E946
:10CA100000010EF07BF99FED847B22462B468DEDC5
:10CA2000007B0EF075F982468B4652465B465046B7
:10CA300059460EF01FFB02460B46804689460EF013
:10CA400019FB424604460D464B46504659460EF0E9
:10CA500011FB77A3D3E90023CDE902012046294643
:10CA60000EF008FB74A3D3E900230EF051F922461F
:10CA70002B460EF0FFFA72A3D3E900230EF048F91B
:10CA800022462B460EF0F6FA6FA3D3E900230EF0F0
:10CA90003FF922462B460EF0EDFA6DA3D3E90023B1
:10CAA0000EF036F922462B460EF0E4FA6AA3D3E9DB
:10CAB00000230EF02DF942464B460EF0DBFA68A338
:10CAC000D3E90023CDE90401204629460EF0D2FA2D
:10CAD00065A3D3E900230EF01BF922462B460EF086
:10CAE000C9FA63A3D3E900230EF012F922462B46BC
:10CAF0000EF0C0FA60A3D3E900230EF009F9224634
:10CB00002B460EF0B7FA5EA3D3E900230EF000F92E
:10CB100022462B460EF0AEFA5BA3D3E900230EF0BB
:10CB2000F7F802460B46DDE904010EF0F1F8DDE905
:10CB300002230EF09FFADDE9004522462B460EF057
:10CB4000E7F842464B460EF095FA02460B46204661
:10CB500029460EF0DDF84EA3D3E9002304460D4626
:10CB6000DDE902010EF086FA22462B460EF0D0F8DF
:10CB70000B46024680468946504659460EF0C8F894
:10CB8000474B9E4204460D4600F38E80109B012BBE
:10CB90003BD002460B46002040490EF095FB002496
:10CBA00006460F462046294652465B46CDE90067B9
:10CBB000CDE9020100940EF0A9F8DDE900AB0246D0
:10CBC0000B46404649460EF0A1F852465B460EF031
:10CBD00051FA524604460D465B46DDE902010EF06D
:10CBE00049FA00222F4B0EF093F802460B462046DE
:10CBF00029460EF08DF832463B460EF03BFA52467F
:10CC00005B460EF085F804460D462046294607B0DF
:10CC1000BDE8F08FAFF30080182D4454FB21E93FAD
:10CC2000075C143326A6813C0000000000000000D1
:10CC3000D47ABF74702AFB3EE9A7F0320FB8123FD6
:10CC400068108D1AF726303F1583E0FEC8DB573F8A
:10CC500093846EE9E326823FFE41B31BBAA1AB3F4A
:10CC6000735360DBCB75F3BEA69237A0887E143F6A
:10CC70000165F2F2D844433F280356C9226D6D3F47
:10CC800037D60684F464963F7AFE10111111C13F25
:10CC9000635555555555D53FFFFF2F3E0000F0BF5A
:10CCA0002794E53F0000F03F10980EF07DF92246F2
:10CCB000CDE900012B46204629460EF0DBF9DDE9DF
:10CCC0000023CDE90201204629460EF021F8024654
:10CCD0000B46DDE902010EF0F7FA42464B460EF034
:10CCE00015F802460B46504659460EF00FF802461C
:10CCF0000B460EF00DF802460B46DDE900010EF082
:10CD000005F80446B81700F00200C0F101000D4616
:10CD10000EF04AF902460B46204629460EF0AAF9C3
:10CD200004460D462046294607B0BDE8F08F504620
:10CD300059460EF0F3FE02460B4600200A490EF05B
:10CD4000C3FA04460D4660E7DDE9004501F1004104
:10CD5000224605F1004382468B46CDE900234AE690
:10CD600054465D4651E700BF0000F03F0000000060
:10CD70002DE9F04FD24A21F00043934285B082461C
:10CD80008B460C462DD9CF4A93421AD8002C80F2FC
:10CD90001681B5A3D3E90023504659460DF0B8FFDC
:10CDA000002200230EF0D8FBC0B9B1A3D3E90023C1
:10CDB000504659460EF05EF902460B460020C24925
:10CDC00008E1C24A934240F2D0800346C1F3130205
:10CDD000134340F0F481002980F2C4800020BC4954
:10CDE000C0E0BC4A934200F22981BB4A934240F220
:10CDF000DE80002301930022B84B504659460EF0C6
:10CE000039F906460F4602460B46504659460EF083
:10CE100031F999A3D3E9002304460D460EF02AF90F
:10CE200097A3D3E900230DF073FF22462B460EF0A3
:10CE300021F995A3D3E900230DF068FF22462B4684
:10CE40000EF018F992A3D3E900230DF061FF2246FA
:10CE50002B460EF00FF990A3D3E900230DF056FFF7
:10CE600022462B460EF006F900229D4B0DF050FF96
:10CE70008046894602460B46304639460EF0FAF89F
:10CE800002460B46002097490DF040FF0646024639
:10CE90000B460F46404649460DF038FF3246804665
:10CEA00089463B46504659460EF0E4F802460B468A
:10CEB00000208D490DF02AFF02460B4640464946A8
:10CEC0000EF002FA22462B460EF0D4F8019E0246DE
:10CED0000B46002E38D0DDE9026732463B460DF0A6
:10CEE00015FF52465B460EF0C5F832463B460DF044
:10CEF0000DFF2B4622460DF009FF019B013306462C
:10CF00000F4600F00F81019B012B00F0F180019B87
:10CF10000133392B39D8019B132B40F31281019C2B
:10CF2000C4F57F75033500222B050DF0F1FE024696
:10CF30000B46504659460DF0E9FE0022684B0DF0B5
:10CF4000E7FE01EB04510DE0504659460EF092F811
:10CF500022462B460DF0DAFE02460B465046594655
:10CF60000DF0D4FE05B0BDE8F08F4DA3D3E900234A
:10CF70000EF010FB00283FF409AF4BA3D3E90023C8
:10CF8000104619460EF076F8ECE752465B460DF077
:10CF9000BDFE02460B46002051490DF0B7FE019A36
:10CFA0004F4B01EB025100220DF0B0FEDAE73EA339
:10CFB000D3E900230DF0ACFE02460B46CAE72CA3D2
:10CFC000D3E90023504659460EF054F80B46434926
:10CFD000024600200DF09CFE0EF0FCFA01900DF0D0
:10CFE000E3FF33A3D3E9002306460F460EF042F8D1
:10CFF00002460B46504659460DF088FE2EA3D3E953
:10D00000002380468946304639460EF033F80646FE
:10D010000F4632463B46404649460DF077FE0246F3
:10D020000B4682468B46404649460DF06FFE32461F
:10D030003B460DF06BFECDE90201DCE62B4A934244
:10D0400000F2958000291AA3D3E90023C0F2AC8036
:10D050000DF05CFE012380468946019316A7D7E9AF
:10D060000067D6E7AFF3008059F3F8C21F6EA50141
:10D07000FE822B654715F73F2DC3096EB7FD8ABEAB
:10D080003952E686CACFD03EB7DBAA9E19CE143FEE
:10D090008555FE19A0015A3FF41011111111A13F3D
:10D0A000EF39FAFE422E86409C7500883CE4377EBC
:10D0B0000000E0FE422EE63F763C7935EF39EA3D4E
:10D0C00079684340412E86400000E0BFFFFFEF7FBC
:10D0D0000000F0BF422ED63FFFFF8F3C0000E03F34
:10D0E0000000F03F0000084000001840B1A2F03FEF
:10D0F0000022394B504659460EF02EFA002844D0F3
:10D10000504659460022354B0DF002FE02460B46B2
:10D11000304639460DF0FAFD00224FF040430DF045
:10D12000A9FF1FE702460B46504659460DF0EEFD9B
:10D1300000222A4B0DF09EFF0022284B0DF0E6FD49
:10D1400010E7019C4FF400132341C3F17F5752466F
:10D150005B460DF0DBFD002607F5401702460B4647
:10D16000304639460DF0D2FD01EB0451FAE616A324
:10D17000D3E900230DF07EFF002C02460B464FF052
:10D180000000FFF61CAE154924E732463B465046E8
:10D1900059460DF0BBFD02460B460DF0B9FD0022CD
:10D1A0000F4B0DF0B5FDDDE60DF0B2FD4FF0FF3396
:10D1B00080468946019306A7D7E9006729E702461A
:10D1C0000B460DF0A5FDCDE6FE822B654715F73F1A
:10D1D000763C7935EF39EABD0000D0BF0000E03F72
:10D1E0000000F03F00000000F8B5C1F30A56044605
:10D1F0000D460B4617460EBB21F0004303438646FF
:10D2000025D00022344B0DF035FF344A97420446B6
:10D210000D460B462ADBC1F30A56363E3E4440F229
:10D22000FE72964228DC002E12DD23F0FF4323F429
:10D23000E00343EA065520462946F8BD40F2FF7256
:10D240009642EBD102460B460DF062FDF8BDF8BDEB
:10D2500016F1350F1DDA4CF250339F4222462B4611
:10D2600025DC19A1D1E9000110F01AFB16A3D3E9BE
:10D2700000230DF0FFFEF8BD22462B4614A1D1E994
:10D28000000110F00DFB12A3D3E900230DF0F2FE14
:10D29000F8BD23F0FF4323F4E003363643EA065596
:10D2A0002046294600220E4B0DF0E4FEF8BD08A1F1
:10D2B000D1E9000110F0F4FA05A3D3E900230DF041
:10D2C000D9FEF8BDAFF3008059F3F8C21F6EA50177
:10D2D0009C7500883CE4377E00005043B03CFFFF63
:10D2E0000000903C10B5054C237833B9044B13B1C2
:10D2F0000448AFF300800123237010BD20040020F8
:10D30000000000005C1A02080C4B43B10C480D49A8
:10D3100010B5AFF300800C48036823B910BD0A486C
:10D32000036833B97047094B002BF7D0BDE81040B4
:10D330001847064B002BF5D0184700BF000000002F
:10D340005C1A020824040020A00300200000000052
:10D35000154B002B08BF134B9D46A3F5803A0021C7
:10D360008B460F461348144A121A05F0BBFA0F4BAE
:10D37000002B00D098470E4B002B00D09847002080
:10D38000002104000D000D48002802D00C4811F0C7
:10D39000F2FA10F0F3FB2000290011F0E0FA11F08E
:10D3A000E7FA00BF00000800008001200000000034
:10D3B00051E90108A8030020F82B002077E90108B3
:10D3C00000000000F0B5214D2C6883B014B1204658
:10D3D00003B0F0BD4FF492700BF06EF84FF0FF31D8
:10D3E0000646032000F090FE00B202F081FF4FF0ED
:10D3F000FF310746022000F087FE00B202F078FFFE
:10D400003946024606F1D807304608F005FD2346A6
:10D4100022463846012108F09FFB4FF0FF310120E2
:10D4200000F072FE00B202F063FF38244FF0050EE8
:10D4300002468DE810403B46314606F1E00005F01B
:10D44000F9FD344620462E6003B0F0BD3C040020B8
:10D450002DE9F04104460F46FFF7B4FF00F1E00567
:10D460000646284605F0FEFD082C0BD0A4F1090362
:10D47000012B15D93A46214610230D20BDE8F04175
:10D4800002F016BED6F8E03028461B6A98470228FC
:10D49000F0DCD6F8E0302846DB6904219847E9E75C
:10D4A000D6F8E03028461B6A98470528E2DCD6F813
:10D4B000E0302846DB6908219847DBE710B52DED01
:10D4C000028BFFF77FFF00F1E004204607F0CEF962
:10D4D00007EE900A2046F8EEE78A07F0D7F907EE44
:10D4E000900A2046B8EEE78A07F0E0F968EE087A7D
:10D4F00007EE100AE8EEA87AB8EEC77AE7EE077AE8
:10D50000F5EE407AF1EE10FAB1EEE78A03D517EEA8
:10D51000900A0FF04FF8FDEEC87ABDEC028B17EEC3
:10D52000900A10BD08B503281CD8DFE800F0140DE0
:10D530000602BDE80840FFF7C1BFFFF743FFBDE8A3
:10D540000840E03007F0B2B9FFF73CFFBDE8084003
:10D55000E03007F09BB9FFF735FFBDE80840E03049
:10D5600007F084B9002008BD08B550B1012806D1E4
:10D57000FFF728FFBDE80840E030FBF765B8002062
:10D5800008BDFFF71FFFBDE80840E030FBF73CB8DF
:10D5900010B50446FFF716FF2146E030BDE8104005
:10D5A00006F072BF08B500F09DFFFBF7F1FDBDE886
:10D5B000084000F0E1BC00BF08B500F093FFFBF7A6
:10D5C00057FEBDE8084000F0D7BC00BF08B500F02A
:10D5D00089FF0EF019FBBDE8084000F0CDBC00BF8C
:10D5E00008B500F07FFF0EF021FFBDE8084000F015
:10D5F000C3BC00BF08B500F075FFFBF7D9FDBDE85F
:10D60000084000F0B9BC00BF08B500F06BFF0EF099
:10D6100039FDBDE8084000F0AFBC00BF08B500F020
:10D6200061FFFBF731F8BDE8084000F0A5BC00BF82
:10D6300008B500F057FF0EF079FCBDE8084000F097
:10D640009BBC00BF70B5049E96420C4628DB154675
:10D650006BB1002A00EB020107DD2046A21811F889
:10D66000013D00F8013B9042F9D1002070BD042A31
:10D670000FD0022A02D110F0010306D001462A463B
:10D68000204604F0B9F8002070BD02880A801846D0
:10D6900070BD10F00303F1D102680A60184670BD36
:10D6A0000846002105F01EF94FF0FF3070BD00BFA5
:10D6B0000830704740B1002905DB4368994202DA1F
:10D6C0000844007A70470020704700BF30B100293D
:10D6D00004DB43689942BCBF40180272704700BF28
:10D6E000002B23DB002921DB70B54668B1421ADC30
:10D6F0005568761A1446EA1AB242A8BF3246002A82
:10D7000011DB84420D4607D0083408300844E11884
:10D7100004F072F8002070BD0834E118601911F0AF
:10D7200013FF002070BD4FF0FF3070BD4FF0FF3091
:10D73000704700BF4068704710B4141E10DB426889
:10D7400094420DDC33EA230328BF1346121B083032
:10D750009A422044A8BF1A465DF8044B05F0C2B8AF
:10D760005DF8044B704700BF43688B4210B400F172
:10D7700008041846A8BF084632EA220128BF194605
:10D780001B1A99422044A8BF19465DF8044B00F0CB
:10D7900099BA00BF002BBCBF43689B1A002A70B522
:10D7A0000E4622DB44689918A1421EDC8A421CDC2A
:10D7B000DBB136F0004118D059428E4213DDB3423E
:10D7C00011DD0830002E00EB020516DB9C1B224603
:10D7D000A919284611F0B8FE324628190021BDE8E3
:10D7E000704005F07FB8002C00DA70BD224608308A
:10D7F0000021BDE8704005F075B874429A192946B9
:10D80000281911F0A1FE224628460021BDE87040EB
:10D8100005F068B870B5044600206168490000F062
:10D820002FFA6668002E11DD094D04F1080100EBA6
:10D830004606034611F8012B141102F00F022C5D6D
:10D84000AA5C9C71DA7102339E42F3D170BD00BFB5
:10D85000F8FE0108002BBCBF43689B1A002A2FDB8F
:10D8600070B445689C18AC4229DCA24227DC33B373
:10D8700031F0004423D00029B8BF01EB032191FB14
:10D88000F3F603FB1616002E00F10800B8BFF618D9
:10D8900002441644B242134411D0304604E0B2426E
:10D8A00008460ED090420AD00146147811F8015B68
:10D8B00002F8015B8B420470F1D13046F2E770BC94
:10D8C00070470E46EEE700BF00B583B04FF0FF3360
:10D8D00000930023FFF704FF03B05DF804FB00BFD3
:10D8E0000146002000F0EEB930B5013A83B004469D
:10D8F0000D460F2A16D8DFE802F01717838D94170C
:10D900002E08081F424D5C367462184600F07AFEFD
:10D91000012DADF8000005DD9DF800209DF80130D7
:10D920002370627003B030BD184600F06BFE002D0E
:10D93000F8DD207003B030BD184600F063FE032D03
:10D940000090EFDD6A46231D12F8011B03F8011D4C
:10D950009C42F9D1E6E7184600F054FE002DC0B213
:10D96000E0DD2070E6E7184600F0BCFD072DCDE9AC
:10D970000001D7DD6B4603CB20606160D2E718461B
:10D9800000F0D4FD032DCDDDA3070CBF2060206087
:10D9900003B030BD184600F0C9FD032D0090C1DD75
:10D9A0006A46231D12F8011B03F8011D9C42F9D1A0
:10D9B000B8E7184600F08CFE032DE5DCB2E7184608
:10D9C00000F090FD072DCDE90001ABDD0DF1FF3238
:10D9D00004F1080312F8011F03F8011DA342F9D155
:10D9E000A0E7184600F074FE032D00909ADD6A4609
:10D9F000231D12F8011B03F8011DA342F9D191E781
:10DA0000184600F0FFFD012D8CDDE20754BF208099
:10DA1000208087E7184600F0F5FD012D82DD80B2F9
:10DA2000F3E7184600F0EEFD032DADDC7AE700BF0A
:10DA300030B4141E07DB456808300A462044291B11
:10DA400030BCFFF751BF30BC704700BF00B5013A92
:10DA500085B00F2A00F28880DFE802F01623303DFF
:10DA60004A56595C5F626571748083080091012396
:10DA700008220DEB0201FFF7E5FDDDE9020100F0F0
:10DA80007BFA05B05DF804FB00910023012202A996
:10DA9000FFF7D8FD9DF9080000F0AEFA05B05DF87B
:10DAA00004FB00910023012202A9FFF7CBFD9DF8A2
:10DAB000080000F0A1FA05B05DF804FB0091002316
:10DAC000022202A9FFF7BEFDBDF9080000F094FA9A
:10DAD00005B05DF804FB00910023022202A9FFF7C4
